{
	"tarea4.sol": {
		"StructTest": {
			"abi": [
				{
					"inputs": [
						{
							"components": [
								{
									"internalType": "string",
									"name": "title",
									"type": "string"
								},
								{
									"internalType": "string",
									"name": "author",
									"type": "string"
								},
								{
									"internalType": "uint256",
									"name": "id",
									"type": "uint256"
								},
								{
									"internalType": "bool",
									"name": "available",
									"type": "bool"
								},
								{
									"internalType": "uint256",
									"name": "quantity",
									"type": "uint256"
								}
							],
							"internalType": "struct StructTest.Book",
							"name": "newBook",
							"type": "tuple"
						}
					],
					"name": "addBook",
					"outputs": [],
					"stateMutability": "nonpayable",
					"type": "function"
				},
				{
					"inputs": [],
					"name": "book1",
					"outputs": [
						{
							"internalType": "string",
							"name": "title",
							"type": "string"
						},
						{
							"internalType": "string",
							"name": "author",
							"type": "string"
						},
						{
							"internalType": "uint256",
							"name": "id",
							"type": "uint256"
						},
						{
							"internalType": "bool",
							"name": "available",
							"type": "bool"
						},
						{
							"internalType": "uint256",
							"name": "quantity",
							"type": "uint256"
						}
					],
					"stateMutability": "view",
					"type": "function"
				},
				{
					"inputs": [],
					"name": "book2",
					"outputs": [
						{
							"internalType": "string",
							"name": "title",
							"type": "string"
						},
						{
							"internalType": "string",
							"name": "author",
							"type": "string"
						},
						{
							"internalType": "uint256",
							"name": "id",
							"type": "uint256"
						},
						{
							"internalType": "bool",
							"name": "available",
							"type": "bool"
						},
						{
							"internalType": "uint256",
							"name": "quantity",
							"type": "uint256"
						}
					],
					"stateMutability": "view",
					"type": "function"
				},
				{
					"inputs": [
						{
							"internalType": "uint256",
							"name": "idBook",
							"type": "uint256"
						}
					],
					"name": "borrowBook",
					"outputs": [],
					"stateMutability": "nonpayable",
					"type": "function"
				},
				{
					"inputs": [
						{
							"internalType": "uint256",
							"name": "idBook",
							"type": "uint256"
						}
					],
					"name": "getBook",
					"outputs": [
						{
							"internalType": "bool",
							"name": "",
							"type": "bool"
						}
					],
					"stateMutability": "view",
					"type": "function"
				},
				{
					"inputs": [],
					"name": "getTitle",
					"outputs": [
						{
							"internalType": "string",
							"name": "",
							"type": "string"
						}
					],
					"stateMutability": "view",
					"type": "function"
				},
				{
					"inputs": [],
					"name": "getTitleAndIdBook",
					"outputs": [
						{
							"internalType": "string",
							"name": "",
							"type": "string"
						},
						{
							"internalType": "uint256",
							"name": "",
							"type": "uint256"
						}
					],
					"stateMutability": "view",
					"type": "function"
				},
				{
					"inputs": [
						{
							"internalType": "uint256",
							"name": "",
							"type": "uint256"
						}
					],
					"name": "libraryBook",
					"outputs": [
						{
							"internalType": "string",
							"name": "title",
							"type": "string"
						},
						{
							"internalType": "string",
							"name": "author",
							"type": "string"
						},
						{
							"internalType": "uint256",
							"name": "id",
							"type": "uint256"
						},
						{
							"internalType": "bool",
							"name": "available",
							"type": "bool"
						},
						{
							"internalType": "uint256",
							"name": "quantity",
							"type": "uint256"
						}
					],
					"stateMutability": "view",
					"type": "function"
				},
				{
					"inputs": [],
					"name": "setTitle",
					"outputs": [],
					"stateMutability": "nonpayable",
					"type": "function"
				}
			],
			"devdoc": {
				"kind": "dev",
				"methods": {},
				"version": 1
			},
			"evm": {
				"assembly": "    /* \"tarea4.sol\":65:1198  contract StructTest {\r... */\n  mstore(0x40, 0x80)\n    /* \"tarea4.sol\":279:322  Book(\"Nuevo titulo\", \"Rodrigo\", 1, true, 5) */\n  mload(0x40)\n  dup1\n  0xa0\n  add\n  0x40\n  mstore\n  dup1\n  mload(0x40)\n  dup1\n  0x40\n  add\n  0x40\n  mstore\n  dup1\n  0x0c\n  dup2\n  mstore\n  0x20\n  add\n  0x4e7565766f20746974756c6f0000000000000000000000000000000000000000\n  dup2\n  mstore\n  pop\n  dup2\n  mstore\n  0x20\n  add\n  mload(0x40)\n  dup1\n  0x40\n  add\n  0x40\n  mstore\n  dup1\n  0x07\n  dup2\n  mstore\n  0x20\n  add\n  0x526f647269676f00000000000000000000000000000000000000000000000000\n  dup2\n  mstore\n  pop\n  dup2\n  mstore\n  0x20\n  add\n    /* \"tarea4.sol\":311:312  1 */\n  0x01\n    /* \"tarea4.sol\":279:322  Book(\"Nuevo titulo\", \"Rodrigo\", 1, true, 5) */\n  dup2\n  mstore\n  0x20\n  add\n    /* \"tarea4.sol\":314:318  true */\n  0x01\n    /* \"tarea4.sol\":279:322  Book(\"Nuevo titulo\", \"Rodrigo\", 1, true, 5) */\n  iszero\n  iszero\n  dup2\n  mstore\n  0x20\n  add\n    /* \"tarea4.sol\":320:321  5 */\n  0x05\n    /* \"tarea4.sol\":279:322  Book(\"Nuevo titulo\", \"Rodrigo\", 1, true, 5) */\n  dup2\n  mstore\n  pop\n    /* \"tarea4.sol\":258:322  Book public book2 =  Book(\"Nuevo titulo\", \"Rodrigo\", 1, true, 5) */\n  0x05\n  0x00\n  dup3\n  add\n  mload\n  dup2\n  0x00\n  add\n  swap1\n  dup1\n  mload\n  swap1\n  0x20\n  add\n  swap1\n  tag_1\n  swap3\n  swap2\n  swap1\n  tag_2\n  jump\t// in\ntag_1:\n  pop\n  0x20\n  dup3\n  add\n  mload\n  dup2\n  0x01\n  add\n  swap1\n  dup1\n  mload\n  swap1\n  0x20\n  add\n  swap1\n  tag_3\n  swap3\n  swap2\n  swap1\n  tag_2\n  jump\t// in\ntag_3:\n  pop\n  0x40\n  dup3\n  add\n  mload\n  dup2\n  0x02\n  add\n  sstore\n  0x60\n  dup3\n  add\n  mload\n  dup2\n  0x03\n  add\n  exp(0x0100, 0x00)\n  dup2\n  sload\n  dup2\n  0xff\n  mul\n  not\n  and\n  swap1\n  dup4\n  iszero\n  iszero\n  mul\n  or\n  swap1\n  sstore\n  pop\n  0x80\n  dup3\n  add\n  mload\n  dup2\n  0x04\n  add\n  sstore\n  pop\n  pop\n    /* \"tarea4.sol\":65:1198  contract StructTest {\r... */\n  callvalue\n  dup1\n  iszero\n  tag_4\n  jumpi\n  0x00\n  dup1\n  revert\ntag_4:\n  pop\n  jump(tag_5)\ntag_2:\n  dup3\n  dup1\n  sload\n  tag_6\n  swap1\n  tag_7\n  jump\t// in\ntag_6:\n  swap1\n  0x00\n  mstore\n  keccak256(0x00, 0x20)\n  swap1\n  0x1f\n  add\n  0x20\n  swap1\n  div\n  dup2\n  add\n  swap3\n  dup3\n  tag_9\n  jumpi\n  0x00\n  dup6\n  sstore\n  jump(tag_8)\ntag_9:\n  dup3\n  0x1f\n  lt\n  tag_10\n  jumpi\n  dup1\n  mload\n  not(0xff)\n  and\n  dup4\n  dup1\n  add\n  or\n  dup6\n  sstore\n  jump(tag_8)\ntag_10:\n  dup3\n  dup1\n  add\n  0x01\n  add\n  dup6\n  sstore\n  dup3\n  iszero\n  tag_8\n  jumpi\n  swap2\n  dup3\n  add\ntag_11:\n  dup3\n  dup2\n  gt\n  iszero\n  tag_12\n  jumpi\n  dup3\n  mload\n  dup3\n  sstore\n  swap2\n  0x20\n  add\n  swap2\n  swap1\n  0x01\n  add\n  swap1\n  jump(tag_11)\ntag_12:\ntag_8:\n  pop\n  swap1\n  pop\n  tag_13\n  swap2\n  swap1\n  tag_14\n  jump\t// in\ntag_13:\n  pop\n  swap1\n  jump\t// out\ntag_14:\ntag_15:\n  dup1\n  dup3\n  gt\n  iszero\n  tag_16\n  jumpi\n  0x00\n  dup2\n  0x00\n  swap1\n  sstore\n  pop\n  0x01\n  add\n  jump(tag_15)\ntag_16:\n  pop\n  swap1\n  jump\t// out\n    /* \"#utility.yul\":7:327   */\ntag_7:\n    /* \"#utility.yul\":51:57   */\n  0x00\n    /* \"#utility.yul\":88:89   */\n  0x02\n    /* \"#utility.yul\":82:86   */\n  dup3\n    /* \"#utility.yul\":78:90   */\n  div\n    /* \"#utility.yul\":68:90   */\n  swap1\n  pop\n    /* \"#utility.yul\":135:136   */\n  0x01\n    /* \"#utility.yul\":129:133   */\n  dup3\n    /* \"#utility.yul\":125:137   */\n  and\n    /* \"#utility.yul\":156:174   */\n  dup1\n    /* \"#utility.yul\":146:227   */\n  tag_19\n  jumpi\n    /* \"#utility.yul\":212:216   */\n  0x7f\n    /* \"#utility.yul\":204:210   */\n  dup3\n    /* \"#utility.yul\":200:217   */\n  and\n    /* \"#utility.yul\":190:217   */\n  swap2\n  pop\n    /* \"#utility.yul\":146:227   */\ntag_19:\n    /* \"#utility.yul\":274:276   */\n  0x20\n    /* \"#utility.yul\":266:272   */\n  dup3\n    /* \"#utility.yul\":263:277   */\n  lt\n    /* \"#utility.yul\":243:261   */\n  dup2\n    /* \"#utility.yul\":240:278   */\n  eq\n    /* \"#utility.yul\":237:321   */\n  iszero\n  tag_20\n  jumpi\n    /* \"#utility.yul\":293:311   */\n  tag_21\n  tag_22\n  jump\t// in\ntag_21:\n    /* \"#utility.yul\":237:321   */\ntag_20:\n    /* \"#utility.yul\":58:327   */\n  pop\n    /* \"#utility.yul\":7:327   */\n  swap2\n  swap1\n  pop\n  jump\t// out\n    /* \"#utility.yul\":333:513   */\ntag_22:\n    /* \"#utility.yul\":381:458   */\n  0x4e487b7100000000000000000000000000000000000000000000000000000000\n    /* \"#utility.yul\":378:379   */\n  0x00\n    /* \"#utility.yul\":371:459   */\n  mstore\n    /* \"#utility.yul\":478:482   */\n  0x22\n    /* \"#utility.yul\":475:476   */\n  0x04\n    /* \"#utility.yul\":468:483   */\n  mstore\n    /* \"#utility.yul\":502:506   */\n  0x24\n    /* \"#utility.yul\":499:500   */\n  0x00\n    /* \"#utility.yul\":492:507   */\n  revert\n    /* \"tarea4.sol\":65:1198  contract StructTest {\r... */\ntag_5:\n  dataSize(sub_0)\n  dup1\n  dataOffset(sub_0)\n  0x00\n  codecopy\n  0x00\n  return\nstop\n\nsub_0: assembly {\n        /* \"tarea4.sol\":65:1198  contract StructTest {\r... */\n      mstore(0x40, 0x80)\n      callvalue\n      dup1\n      iszero\n      tag_1\n      jumpi\n      0x00\n      dup1\n      revert\n    tag_1:\n      pop\n      jumpi(tag_2, lt(calldatasize, 0x04))\n      shr(0xe0, calldataload(0x00))\n      dup1\n      0xcad4a2df\n      gt\n      tag_12\n      jumpi\n      dup1\n      0xcad4a2df\n      eq\n      tag_7\n      jumpi\n      dup1\n      0xe0ff5b8b\n      eq\n      tag_8\n      jumpi\n      dup1\n      0xe815fe1d\n      eq\n      tag_9\n      jumpi\n      dup1\n      0xfb6a8fcc\n      eq\n      tag_10\n      jumpi\n      dup1\n      0xff3c1a8f\n      eq\n      tag_11\n      jumpi\n      jump(tag_2)\n    tag_12:\n      dup1\n      0x2b07630b\n      eq\n      tag_3\n      jumpi\n      dup1\n      0x7e490a9e\n      eq\n      tag_4\n      jumpi\n      dup1\n      0xb15195ed\n      eq\n      tag_5\n      jumpi\n      dup1\n      0xc849a2a6\n      eq\n      tag_6\n      jumpi\n    tag_2:\n      0x00\n      dup1\n      revert\n        /* \"tarea4.sol\":331:371  mapping(uint => Book) public libraryBook */\n    tag_3:\n      tag_13\n      0x04\n      dup1\n      calldatasize\n      sub\n      dup2\n      add\n      swap1\n      tag_14\n      swap2\n      swap1\n      tag_15\n      jump\t// in\n    tag_14:\n      tag_16\n      jump\t// in\n    tag_13:\n      mload(0x40)\n      tag_17\n      swap6\n      swap5\n      swap4\n      swap3\n      swap2\n      swap1\n      tag_18\n      jump\t// in\n    tag_17:\n      mload(0x40)\n      dup1\n      swap2\n      sub\n      swap1\n      return\n        /* \"tarea4.sol\":602:892  function borrowBook(uint idBook) public {\r... */\n    tag_4:\n      tag_19\n      0x04\n      dup1\n      calldatasize\n      sub\n      dup2\n      add\n      swap1\n      tag_20\n      swap2\n      swap1\n      tag_15\n      jump\t// in\n    tag_20:\n      tag_21\n      jump\t// in\n    tag_19:\n      stop\n        /* \"tarea4.sol\":999:1069  function setTitle() public {\r... */\n    tag_5:\n      tag_22\n      tag_23\n      jump\t// in\n    tag_22:\n      stop\n        /* \"tarea4.sol\":1077:1195  function getTitleAndIdBook() public view returns(string memory, uint){\r... */\n    tag_6:\n      tag_24\n      tag_25\n      jump\t// in\n    tag_24:\n      mload(0x40)\n      tag_26\n      swap3\n      swap2\n      swap1\n      tag_27\n      jump\t// in\n    tag_26:\n      mload(0x40)\n      dup1\n      swap2\n      sub\n      swap1\n      return\n        /* \"tarea4.sol\":498:594  function addBook(Book memory newBook)public {\r... */\n    tag_7:\n      tag_28\n      0x04\n      dup1\n      calldatasize\n      sub\n      dup2\n      add\n      swap1\n      tag_29\n      swap2\n      swap1\n      tag_30\n      jump\t// in\n    tag_29:\n      tag_31\n      jump\t// in\n    tag_28:\n      stop\n        /* \"tarea4.sol\":380:490  function getBook(uint idBook) public view returns(bool){\r... */\n    tag_8:\n      tag_32\n      0x04\n      dup1\n      calldatasize\n      sub\n      dup2\n      add\n      swap1\n      tag_33\n      swap2\n      swap1\n      tag_15\n      jump\t// in\n    tag_33:\n      tag_34\n      jump\t// in\n    tag_32:\n      mload(0x40)\n      tag_35\n      swap2\n      swap1\n      tag_36\n      jump\t// in\n    tag_35:\n      mload(0x40)\n      dup1\n      swap2\n      sub\n      swap1\n      return\n        /* \"tarea4.sol\":258:322  Book public book2 =  Book(\"Nuevo titulo\", \"Rodrigo\", 1, true, 5) */\n    tag_9:\n      tag_37\n      tag_38\n      jump\t// in\n    tag_37:\n      mload(0x40)\n      tag_39\n      swap6\n      swap5\n      swap4\n      swap3\n      swap2\n      swap1\n      tag_18\n      jump\t// in\n    tag_39:\n      mload(0x40)\n      dup1\n      swap2\n      sub\n      swap1\n      return\n        /* \"tarea4.sol\":234:251  Book public book1 */\n    tag_10:\n      tag_40\n      tag_41\n      jump\t// in\n    tag_40:\n      mload(0x40)\n      tag_42\n      swap6\n      swap5\n      swap4\n      swap3\n      swap2\n      swap1\n      tag_18\n      jump\t// in\n    tag_42:\n      mload(0x40)\n      dup1\n      swap2\n      sub\n      swap1\n      return\n        /* \"tarea4.sol\":900:991  function getTitle() public view returns(string memory){\r... */\n    tag_11:\n      tag_43\n      tag_44\n      jump\t// in\n    tag_43:\n      mload(0x40)\n      tag_45\n      swap2\n      swap1\n      tag_46\n      jump\t// in\n    tag_45:\n      mload(0x40)\n      dup1\n      swap2\n      sub\n      swap1\n      return\n        /* \"tarea4.sol\":331:371  mapping(uint => Book) public libraryBook */\n    tag_16:\n      mstore(0x20, 0x0a)\n      dup1\n      0x00\n      mstore\n      keccak256(0x00, 0x40)\n      0x00\n      swap2\n      pop\n      swap1\n      pop\n      dup1\n      0x00\n      add\n      dup1\n      sload\n      tag_47\n      swap1\n      tag_48\n      jump\t// in\n    tag_47:\n      dup1\n      0x1f\n      add\n      0x20\n      dup1\n      swap2\n      div\n      mul\n      0x20\n      add\n      mload(0x40)\n      swap1\n      dup2\n      add\n      0x40\n      mstore\n      dup1\n      swap3\n      swap2\n      swap1\n      dup2\n      dup2\n      mstore\n      0x20\n      add\n      dup3\n      dup1\n      sload\n      tag_49\n      swap1\n      tag_48\n      jump\t// in\n    tag_49:\n      dup1\n      iszero\n      tag_50\n      jumpi\n      dup1\n      0x1f\n      lt\n      tag_51\n      jumpi\n      0x0100\n      dup1\n      dup4\n      sload\n      div\n      mul\n      dup4\n      mstore\n      swap2\n      0x20\n      add\n      swap2\n      jump(tag_50)\n    tag_51:\n      dup3\n      add\n      swap2\n      swap1\n      0x00\n      mstore\n      keccak256(0x00, 0x20)\n      swap1\n    tag_52:\n      dup2\n      sload\n      dup2\n      mstore\n      swap1\n      0x01\n      add\n      swap1\n      0x20\n      add\n      dup1\n      dup4\n      gt\n      tag_52\n      jumpi\n      dup3\n      swap1\n      sub\n      0x1f\n      and\n      dup3\n      add\n      swap2\n    tag_50:\n      pop\n      pop\n      pop\n      pop\n      pop\n      swap1\n      dup1\n      0x01\n      add\n      dup1\n      sload\n      tag_53\n      swap1\n      tag_48\n      jump\t// in\n    tag_53:\n      dup1\n      0x1f\n      add\n      0x20\n      dup1\n      swap2\n      div\n      mul\n      0x20\n      add\n      mload(0x40)\n      swap1\n      dup2\n      add\n      0x40\n      mstore\n      dup1\n      swap3\n      swap2\n      swap1\n      dup2\n      dup2\n      mstore\n      0x20\n      add\n      dup3\n      dup1\n      sload\n      tag_54\n      swap1\n      tag_48\n      jump\t// in\n    tag_54:\n      dup1\n      iszero\n      tag_55\n      jumpi\n      dup1\n      0x1f\n      lt\n      tag_56\n      jumpi\n      0x0100\n      dup1\n      dup4\n      sload\n      div\n      mul\n      dup4\n      mstore\n      swap2\n      0x20\n      add\n      swap2\n      jump(tag_55)\n    tag_56:\n      dup3\n      add\n      swap2\n      swap1\n      0x00\n      mstore\n      keccak256(0x00, 0x20)\n      swap1\n    tag_57:\n      dup2\n      sload\n      dup2\n      mstore\n      swap1\n      0x01\n      add\n      swap1\n      0x20\n      add\n      dup1\n      dup4\n      gt\n      tag_57\n      jumpi\n      dup3\n      swap1\n      sub\n      0x1f\n      and\n      dup3\n      add\n      swap2\n    tag_55:\n      pop\n      pop\n      pop\n      pop\n      pop\n      swap1\n      dup1\n      0x02\n      add\n      sload\n      swap1\n      dup1\n      0x03\n      add\n      0x00\n      swap1\n      sload\n      swap1\n      0x0100\n      exp\n      swap1\n      div\n      0xff\n      and\n      swap1\n      dup1\n      0x04\n      add\n      sload\n      swap1\n      pop\n      dup6\n      jump\t// out\n        /* \"tarea4.sol\":602:892  function borrowBook(uint idBook) public {\r... */\n    tag_21:\n        /* \"tarea4.sol\":688:689  1 */\n      0x01\n        /* \"tarea4.sol\":656:667  libraryBook */\n      0x0a\n        /* \"tarea4.sol\":656:675  libraryBook[idBook] */\n      0x00\n        /* \"tarea4.sol\":668:674  idBook */\n      dup4\n        /* \"tarea4.sol\":656:675  libraryBook[idBook] */\n      dup2\n      mstore\n      0x20\n      add\n      swap1\n      dup2\n      mstore\n      0x20\n      add\n      0x00\n      keccak256\n        /* \"tarea4.sol\":656:684  libraryBook[idBook].quantity */\n      0x04\n      add\n      sload\n        /* \"tarea4.sol\":656:689  libraryBook[idBook].quantity == 1 */\n      eq\n        /* \"tarea4.sol\":653:754  if(libraryBook[idBook].quantity == 1){\r... */\n      iszero\n      tag_59\n      jumpi\n        /* \"tarea4.sol\":737:742  false */\n      0x00\n        /* \"tarea4.sol\":705:716  libraryBook */\n      0x0a\n        /* \"tarea4.sol\":705:724  libraryBook[idBook] */\n      0x00\n        /* \"tarea4.sol\":717:723  idBook */\n      dup4\n        /* \"tarea4.sol\":705:724  libraryBook[idBook] */\n      dup2\n      mstore\n      0x20\n      add\n      swap1\n      dup2\n      mstore\n      0x20\n      add\n      0x00\n      keccak256\n        /* \"tarea4.sol\":705:734  libraryBook[idBook].available */\n      0x03\n      add\n      0x00\n        /* \"tarea4.sol\":705:742  libraryBook[idBook].available = false */\n      0x0100\n      exp\n      dup2\n      sload\n      dup2\n      0xff\n      mul\n      not\n      and\n      swap1\n      dup4\n      iszero\n      iszero\n      mul\n      or\n      swap1\n      sstore\n      pop\n        /* \"tarea4.sol\":653:754  if(libraryBook[idBook].quantity == 1){\r... */\n    tag_59:\n        /* \"tarea4.sol\":803:804  0 */\n      0x00\n        /* \"tarea4.sol\":772:783  libraryBook */\n      0x0a\n        /* \"tarea4.sol\":772:791  libraryBook[idBook] */\n      0x00\n        /* \"tarea4.sol\":784:790  idBook */\n      dup4\n        /* \"tarea4.sol\":772:791  libraryBook[idBook] */\n      dup2\n      mstore\n      0x20\n      add\n      swap1\n      dup2\n      mstore\n      0x20\n      add\n      0x00\n      keccak256\n        /* \"tarea4.sol\":772:800  libraryBook[idBook].quantity */\n      0x04\n      add\n      sload\n        /* \"tarea4.sol\":772:804  libraryBook[idBook].quantity > 0 */\n      gt\n        /* \"tarea4.sol\":764:840  require(libraryBook[idBook].quantity > 0, \"There is no more books in stock\") */\n      tag_60\n      jumpi\n      mload(0x40)\n      0x08c379a000000000000000000000000000000000000000000000000000000000\n      dup2\n      mstore\n      0x04\n      add\n      tag_61\n      swap1\n      tag_62\n      jump\t// in\n    tag_61:\n      mload(0x40)\n      dup1\n      swap2\n      sub\n      swap1\n      revert\n    tag_60:\n        /* \"tarea4.sol\":883:884  1 */\n      0x01\n        /* \"tarea4.sol\":851:862  libraryBook */\n      0x0a\n        /* \"tarea4.sol\":851:870  libraryBook[idBook] */\n      0x00\n        /* \"tarea4.sol\":863:869  idBook */\n      dup4\n        /* \"tarea4.sol\":851:870  libraryBook[idBook] */\n      dup2\n      mstore\n      0x20\n      add\n      swap1\n      dup2\n      mstore\n      0x20\n      add\n      0x00\n      keccak256\n        /* \"tarea4.sol\":851:879  libraryBook[idBook].quantity */\n      0x04\n      add\n      0x00\n        /* \"tarea4.sol\":851:884  libraryBook[idBook].quantity -= 1 */\n      dup3\n      dup3\n      sload\n      tag_63\n      swap2\n      swap1\n      tag_64\n      jump\t// in\n    tag_63:\n      swap3\n      pop\n      pop\n      dup2\n      swap1\n      sstore\n      pop\n        /* \"tarea4.sol\":602:892  function borrowBook(uint idBook) public {\r... */\n      pop\n      jump\t// out\n        /* \"tarea4.sol\":999:1069  function setTitle() public {\r... */\n    tag_23:\n        /* \"tarea4.sol\":1037:1061  book1.title = \"my title\" */\n      mload(0x40)\n      dup1\n      0x40\n      add\n      0x40\n      mstore\n      dup1\n      0x08\n      dup2\n      mstore\n      0x20\n      add\n      0x6d79207469746c65000000000000000000000000000000000000000000000000\n      dup2\n      mstore\n      pop\n        /* \"tarea4.sol\":1037:1042  book1 */\n      0x00\n        /* \"tarea4.sol\":1037:1048  book1.title */\n      dup1\n      add\n        /* \"tarea4.sol\":1037:1061  book1.title = \"my title\" */\n      swap1\n      dup1\n      mload\n      swap1\n      0x20\n      add\n      swap1\n      tag_66\n      swap3\n      swap2\n      swap1\n      tag_67\n      jump\t// in\n    tag_66:\n      pop\n        /* \"tarea4.sol\":999:1069  function setTitle() public {\r... */\n      jump\t// out\n        /* \"tarea4.sol\":1077:1195  function getTitleAndIdBook() public view returns(string memory, uint){\r... */\n    tag_25:\n        /* \"tarea4.sol\":1126:1139  string memory */\n      0x60\n        /* \"tarea4.sol\":1141:1145  uint */\n      0x00\n        /* \"tarea4.sol\":1165:1170  book2 */\n      0x05\n        /* \"tarea4.sol\":1165:1176  book2.title */\n      0x00\n      add\n        /* \"tarea4.sol\":1178:1183  book2 */\n      0x05\n        /* \"tarea4.sol\":1178:1186  book2.id */\n      0x02\n      add\n      sload\n        /* \"tarea4.sol\":1157:1187  return (book2.title, book2.id) */\n      dup2\n      dup1\n      sload\n      tag_69\n      swap1\n      tag_48\n      jump\t// in\n    tag_69:\n      dup1\n      0x1f\n      add\n      0x20\n      dup1\n      swap2\n      div\n      mul\n      0x20\n      add\n      mload(0x40)\n      swap1\n      dup2\n      add\n      0x40\n      mstore\n      dup1\n      swap3\n      swap2\n      swap1\n      dup2\n      dup2\n      mstore\n      0x20\n      add\n      dup3\n      dup1\n      sload\n      tag_70\n      swap1\n      tag_48\n      jump\t// in\n    tag_70:\n      dup1\n      iszero\n      tag_71\n      jumpi\n      dup1\n      0x1f\n      lt\n      tag_72\n      jumpi\n      0x0100\n      dup1\n      dup4\n      sload\n      div\n      mul\n      dup4\n      mstore\n      swap2\n      0x20\n      add\n      swap2\n      jump(tag_71)\n    tag_72:\n      dup3\n      add\n      swap2\n      swap1\n      0x00\n      mstore\n      keccak256(0x00, 0x20)\n      swap1\n    tag_73:\n      dup2\n      sload\n      dup2\n      mstore\n      swap1\n      0x01\n      add\n      swap1\n      0x20\n      add\n      dup1\n      dup4\n      gt\n      tag_73\n      jumpi\n      dup3\n      swap1\n      sub\n      0x1f\n      and\n      dup3\n      add\n      swap2\n    tag_71:\n      pop\n      pop\n      pop\n      pop\n      pop\n      swap2\n      pop\n      swap2\n      pop\n      swap2\n      pop\n        /* \"tarea4.sol\":1077:1195  function getTitleAndIdBook() public view returns(string memory, uint){\r... */\n      swap1\n      swap2\n      jump\t// out\n        /* \"tarea4.sol\":498:594  function addBook(Book memory newBook)public {\r... */\n    tag_31:\n        /* \"tarea4.sol\":579:586  newBook */\n      dup1\n        /* \"tarea4.sol\":553:564  libraryBook */\n      0x0a\n        /* \"tarea4.sol\":553:576  libraryBook[newBook.id] */\n      0x00\n        /* \"tarea4.sol\":565:572  newBook */\n      dup4\n        /* \"tarea4.sol\":565:575  newBook.id */\n      0x40\n      add\n      mload\n        /* \"tarea4.sol\":553:576  libraryBook[newBook.id] */\n      dup2\n      mstore\n      0x20\n      add\n      swap1\n      dup2\n      mstore\n      0x20\n      add\n      0x00\n      keccak256\n        /* \"tarea4.sol\":553:586  libraryBook[newBook.id] = newBook */\n      0x00\n      dup3\n      add\n      mload\n      dup2\n      0x00\n      add\n      swap1\n      dup1\n      mload\n      swap1\n      0x20\n      add\n      swap1\n      tag_75\n      swap3\n      swap2\n      swap1\n      tag_67\n      jump\t// in\n    tag_75:\n      pop\n      0x20\n      dup3\n      add\n      mload\n      dup2\n      0x01\n      add\n      swap1\n      dup1\n      mload\n      swap1\n      0x20\n      add\n      swap1\n      tag_76\n      swap3\n      swap2\n      swap1\n      tag_67\n      jump\t// in\n    tag_76:\n      pop\n      0x40\n      dup3\n      add\n      mload\n      dup2\n      0x02\n      add\n      sstore\n      0x60\n      dup3\n      add\n      mload\n      dup2\n      0x03\n      add\n      exp(0x0100, 0x00)\n      dup2\n      sload\n      dup2\n      0xff\n      mul\n      not\n      and\n      swap1\n      dup4\n      iszero\n      iszero\n      mul\n      or\n      swap1\n      sstore\n      pop\n      0x80\n      dup3\n      add\n      mload\n      dup2\n      0x04\n      add\n      sstore\n      swap1\n      pop\n      pop\n        /* \"tarea4.sol\":498:594  function addBook(Book memory newBook)public {\r... */\n      pop\n      jump\t// out\n        /* \"tarea4.sol\":380:490  function getBook(uint idBook) public view returns(bool){\r... */\n    tag_34:\n        /* \"tarea4.sol\":430:434  bool */\n      0x00\n        /* \"tarea4.sol\":453:464  libraryBook */\n      0x0a\n        /* \"tarea4.sol\":453:472  libraryBook[idBook] */\n      0x00\n        /* \"tarea4.sol\":465:471  idBook */\n      dup4\n        /* \"tarea4.sol\":453:472  libraryBook[idBook] */\n      dup2\n      mstore\n      0x20\n      add\n      swap1\n      dup2\n      mstore\n      0x20\n      add\n      0x00\n      keccak256\n        /* \"tarea4.sol\":453:482  libraryBook[idBook].available */\n      0x03\n      add\n      0x00\n      swap1\n      sload\n      swap1\n      0x0100\n      exp\n      swap1\n      div\n      0xff\n      and\n        /* \"tarea4.sol\":446:482  return libraryBook[idBook].available */\n      swap1\n      pop\n        /* \"tarea4.sol\":380:490  function getBook(uint idBook) public view returns(bool){\r... */\n      swap2\n      swap1\n      pop\n      jump\t// out\n        /* \"tarea4.sol\":258:322  Book public book2 =  Book(\"Nuevo titulo\", \"Rodrigo\", 1, true, 5) */\n    tag_38:\n      0x05\n      dup1\n      0x00\n      add\n      dup1\n      sload\n      tag_78\n      swap1\n      tag_48\n      jump\t// in\n    tag_78:\n      dup1\n      0x1f\n      add\n      0x20\n      dup1\n      swap2\n      div\n      mul\n      0x20\n      add\n      mload(0x40)\n      swap1\n      dup2\n      add\n      0x40\n      mstore\n      dup1\n      swap3\n      swap2\n      swap1\n      dup2\n      dup2\n      mstore\n      0x20\n      add\n      dup3\n      dup1\n      sload\n      tag_79\n      swap1\n      tag_48\n      jump\t// in\n    tag_79:\n      dup1\n      iszero\n      tag_80\n      jumpi\n      dup1\n      0x1f\n      lt\n      tag_81\n      jumpi\n      0x0100\n      dup1\n      dup4\n      sload\n      div\n      mul\n      dup4\n      mstore\n      swap2\n      0x20\n      add\n      swap2\n      jump(tag_80)\n    tag_81:\n      dup3\n      add\n      swap2\n      swap1\n      0x00\n      mstore\n      keccak256(0x00, 0x20)\n      swap1\n    tag_82:\n      dup2\n      sload\n      dup2\n      mstore\n      swap1\n      0x01\n      add\n      swap1\n      0x20\n      add\n      dup1\n      dup4\n      gt\n      tag_82\n      jumpi\n      dup3\n      swap1\n      sub\n      0x1f\n      and\n      dup3\n      add\n      swap2\n    tag_80:\n      pop\n      pop\n      pop\n      pop\n      pop\n      swap1\n      dup1\n      0x01\n      add\n      dup1\n      sload\n      tag_83\n      swap1\n      tag_48\n      jump\t// in\n    tag_83:\n      dup1\n      0x1f\n      add\n      0x20\n      dup1\n      swap2\n      div\n      mul\n      0x20\n      add\n      mload(0x40)\n      swap1\n      dup2\n      add\n      0x40\n      mstore\n      dup1\n      swap3\n      swap2\n      swap1\n      dup2\n      dup2\n      mstore\n      0x20\n      add\n      dup3\n      dup1\n      sload\n      tag_84\n      swap1\n      tag_48\n      jump\t// in\n    tag_84:\n      dup1\n      iszero\n      tag_85\n      jumpi\n      dup1\n      0x1f\n      lt\n      tag_86\n      jumpi\n      0x0100\n      dup1\n      dup4\n      sload\n      div\n      mul\n      dup4\n      mstore\n      swap2\n      0x20\n      add\n      swap2\n      jump(tag_85)\n    tag_86:\n      dup3\n      add\n      swap2\n      swap1\n      0x00\n      mstore\n      keccak256(0x00, 0x20)\n      swap1\n    tag_87:\n      dup2\n      sload\n      dup2\n      mstore\n      swap1\n      0x01\n      add\n      swap1\n      0x20\n      add\n      dup1\n      dup4\n      gt\n      tag_87\n      jumpi\n      dup3\n      swap1\n      sub\n      0x1f\n      and\n      dup3\n      add\n      swap2\n    tag_85:\n      pop\n      pop\n      pop\n      pop\n      pop\n      swap1\n      dup1\n      0x02\n      add\n      sload\n      swap1\n      dup1\n      0x03\n      add\n      0x00\n      swap1\n      sload\n      swap1\n      0x0100\n      exp\n      swap1\n      div\n      0xff\n      and\n      swap1\n      dup1\n      0x04\n      add\n      sload\n      swap1\n      pop\n      dup6\n      jump\t// out\n        /* \"tarea4.sol\":234:251  Book public book1 */\n    tag_41:\n      0x00\n      dup1\n      0x00\n      add\n      dup1\n      sload\n      tag_88\n      swap1\n      tag_48\n      jump\t// in\n    tag_88:\n      dup1\n      0x1f\n      add\n      0x20\n      dup1\n      swap2\n      div\n      mul\n      0x20\n      add\n      mload(0x40)\n      swap1\n      dup2\n      add\n      0x40\n      mstore\n      dup1\n      swap3\n      swap2\n      swap1\n      dup2\n      dup2\n      mstore\n      0x20\n      add\n      dup3\n      dup1\n      sload\n      tag_89\n      swap1\n      tag_48\n      jump\t// in\n    tag_89:\n      dup1\n      iszero\n      tag_90\n      jumpi\n      dup1\n      0x1f\n      lt\n      tag_91\n      jumpi\n      0x0100\n      dup1\n      dup4\n      sload\n      div\n      mul\n      dup4\n      mstore\n      swap2\n      0x20\n      add\n      swap2\n      jump(tag_90)\n    tag_91:\n      dup3\n      add\n      swap2\n      swap1\n      0x00\n      mstore\n      keccak256(0x00, 0x20)\n      swap1\n    tag_92:\n      dup2\n      sload\n      dup2\n      mstore\n      swap1\n      0x01\n      add\n      swap1\n      0x20\n      add\n      dup1\n      dup4\n      gt\n      tag_92\n      jumpi\n      dup3\n      swap1\n      sub\n      0x1f\n      and\n      dup3\n      add\n      swap2\n    tag_90:\n      pop\n      pop\n      pop\n      pop\n      pop\n      swap1\n      dup1\n      0x01\n      add\n      dup1\n      sload\n      tag_93\n      swap1\n      tag_48\n      jump\t// in\n    tag_93:\n      dup1\n      0x1f\n      add\n      0x20\n      dup1\n      swap2\n      div\n      mul\n      0x20\n      add\n      mload(0x40)\n      swap1\n      dup2\n      add\n      0x40\n      mstore\n      dup1\n      swap3\n      swap2\n      swap1\n      dup2\n      dup2\n      mstore\n      0x20\n      add\n      dup3\n      dup1\n      sload\n      tag_94\n      swap1\n      tag_48\n      jump\t// in\n    tag_94:\n      dup1\n      iszero\n      tag_95\n      jumpi\n      dup1\n      0x1f\n      lt\n      tag_96\n      jumpi\n      0x0100\n      dup1\n      dup4\n      sload\n      div\n      mul\n      dup4\n      mstore\n      swap2\n      0x20\n      add\n      swap2\n      jump(tag_95)\n    tag_96:\n      dup3\n      add\n      swap2\n      swap1\n      0x00\n      mstore\n      keccak256(0x00, 0x20)\n      swap1\n    tag_97:\n      dup2\n      sload\n      dup2\n      mstore\n      swap1\n      0x01\n      add\n      swap1\n      0x20\n      add\n      dup1\n      dup4\n      gt\n      tag_97\n      jumpi\n      dup3\n      swap1\n      sub\n      0x1f\n      and\n      dup3\n      add\n      swap2\n    tag_95:\n      pop\n      pop\n      pop\n      pop\n      pop\n      swap1\n      dup1\n      0x02\n      add\n      sload\n      swap1\n      dup1\n      0x03\n      add\n      0x00\n      swap1\n      sload\n      swap1\n      0x0100\n      exp\n      swap1\n      div\n      0xff\n      and\n      swap1\n      dup1\n      0x04\n      add\n      sload\n      swap1\n      pop\n      dup6\n      jump\t// out\n        /* \"tarea4.sol\":900:991  function getTitle() public view returns(string memory){\r... */\n    tag_44:\n        /* \"tarea4.sol\":940:953  string memory */\n      0x60\n        /* \"tarea4.sol\":972:977  book1 */\n      0x00\n        /* \"tarea4.sol\":972:983  book1.title */\n      dup1\n      add\n        /* \"tarea4.sol\":965:983  return book1.title */\n      dup1\n      sload\n      tag_99\n      swap1\n      tag_48\n      jump\t// in\n    tag_99:\n      dup1\n      0x1f\n      add\n      0x20\n      dup1\n      swap2\n      div\n      mul\n      0x20\n      add\n      mload(0x40)\n      swap1\n      dup2\n      add\n      0x40\n      mstore\n      dup1\n      swap3\n      swap2\n      swap1\n      dup2\n      dup2\n      mstore\n      0x20\n      add\n      dup3\n      dup1\n      sload\n      tag_100\n      swap1\n      tag_48\n      jump\t// in\n    tag_100:\n      dup1\n      iszero\n      tag_101\n      jumpi\n      dup1\n      0x1f\n      lt\n      tag_102\n      jumpi\n      0x0100\n      dup1\n      dup4\n      sload\n      div\n      mul\n      dup4\n      mstore\n      swap2\n      0x20\n      add\n      swap2\n      jump(tag_101)\n    tag_102:\n      dup3\n      add\n      swap2\n      swap1\n      0x00\n      mstore\n      keccak256(0x00, 0x20)\n      swap1\n    tag_103:\n      dup2\n      sload\n      dup2\n      mstore\n      swap1\n      0x01\n      add\n      swap1\n      0x20\n      add\n      dup1\n      dup4\n      gt\n      tag_103\n      jumpi\n      dup3\n      swap1\n      sub\n      0x1f\n      and\n      dup3\n      add\n      swap2\n    tag_101:\n      pop\n      pop\n      pop\n      pop\n      pop\n      swap1\n      pop\n        /* \"tarea4.sol\":900:991  function getTitle() public view returns(string memory){\r... */\n      swap1\n      jump\t// out\n    tag_67:\n      dup3\n      dup1\n      sload\n      tag_104\n      swap1\n      tag_48\n      jump\t// in\n    tag_104:\n      swap1\n      0x00\n      mstore\n      keccak256(0x00, 0x20)\n      swap1\n      0x1f\n      add\n      0x20\n      swap1\n      div\n      dup2\n      add\n      swap3\n      dup3\n      tag_106\n      jumpi\n      0x00\n      dup6\n      sstore\n      jump(tag_105)\n    tag_106:\n      dup3\n      0x1f\n      lt\n      tag_107\n      jumpi\n      dup1\n      mload\n      not(0xff)\n      and\n      dup4\n      dup1\n      add\n      or\n      dup6\n      sstore\n      jump(tag_105)\n    tag_107:\n      dup3\n      dup1\n      add\n      0x01\n      add\n      dup6\n      sstore\n      dup3\n      iszero\n      tag_105\n      jumpi\n      swap2\n      dup3\n      add\n    tag_108:\n      dup3\n      dup2\n      gt\n      iszero\n      tag_109\n      jumpi\n      dup3\n      mload\n      dup3\n      sstore\n      swap2\n      0x20\n      add\n      swap2\n      swap1\n      0x01\n      add\n      swap1\n      jump(tag_108)\n    tag_109:\n    tag_105:\n      pop\n      swap1\n      pop\n      tag_110\n      swap2\n      swap1\n      tag_111\n      jump\t// in\n    tag_110:\n      pop\n      swap1\n      jump\t// out\n    tag_111:\n    tag_112:\n      dup1\n      dup3\n      gt\n      iszero\n      tag_113\n      jumpi\n      0x00\n      dup2\n      0x00\n      swap1\n      sstore\n      pop\n      0x01\n      add\n      jump(tag_112)\n    tag_113:\n      pop\n      swap1\n      jump\t// out\n        /* \"#utility.yul\":7:419   */\n    tag_115:\n        /* \"#utility.yul\":85:90   */\n      0x00\n        /* \"#utility.yul\":110:176   */\n      tag_117\n        /* \"#utility.yul\":126:175   */\n      tag_118\n        /* \"#utility.yul\":168:174   */\n      dup5\n        /* \"#utility.yul\":126:175   */\n      tag_119\n      jump\t// in\n    tag_118:\n        /* \"#utility.yul\":110:176   */\n      tag_120\n      jump\t// in\n    tag_117:\n        /* \"#utility.yul\":101:176   */\n      swap1\n      pop\n        /* \"#utility.yul\":199:205   */\n      dup3\n        /* \"#utility.yul\":192:197   */\n      dup2\n        /* \"#utility.yul\":185:206   */\n      mstore\n        /* \"#utility.yul\":237:241   */\n      0x20\n        /* \"#utility.yul\":230:235   */\n      dup2\n        /* \"#utility.yul\":226:242   */\n      add\n        /* \"#utility.yul\":275:278   */\n      dup5\n        /* \"#utility.yul\":266:272   */\n      dup5\n        /* \"#utility.yul\":261:264   */\n      dup5\n        /* \"#utility.yul\":257:273   */\n      add\n        /* \"#utility.yul\":254:279   */\n      gt\n        /* \"#utility.yul\":251:363   */\n      iszero\n      tag_121\n      jumpi\n        /* \"#utility.yul\":282:361   */\n      tag_122\n      tag_123\n      jump\t// in\n    tag_122:\n        /* \"#utility.yul\":251:363   */\n    tag_121:\n        /* \"#utility.yul\":372:413   */\n      tag_124\n        /* \"#utility.yul\":406:412   */\n      dup5\n        /* \"#utility.yul\":401:404   */\n      dup3\n        /* \"#utility.yul\":396:399   */\n      dup6\n        /* \"#utility.yul\":372:413   */\n      tag_125\n      jump\t// in\n    tag_124:\n        /* \"#utility.yul\":91:419   */\n      pop\n        /* \"#utility.yul\":7:419   */\n      swap4\n      swap3\n      pop\n      pop\n      pop\n      jump\t// out\n        /* \"#utility.yul\":425:558   */\n    tag_126:\n        /* \"#utility.yul\":468:473   */\n      0x00\n        /* \"#utility.yul\":506:512   */\n      dup2\n        /* \"#utility.yul\":493:513   */\n      calldataload\n        /* \"#utility.yul\":484:513   */\n      swap1\n      pop\n        /* \"#utility.yul\":522:552   */\n      tag_128\n        /* \"#utility.yul\":546:551   */\n      dup2\n        /* \"#utility.yul\":522:552   */\n      tag_129\n      jump\t// in\n    tag_128:\n        /* \"#utility.yul\":425:558   */\n      swap3\n      swap2\n      pop\n      pop\n      jump\t// out\n        /* \"#utility.yul\":578:918   */\n    tag_130:\n        /* \"#utility.yul\":634:639   */\n      0x00\n        /* \"#utility.yul\":683:686   */\n      dup3\n        /* \"#utility.yul\":676:680   */\n      0x1f\n        /* \"#utility.yul\":668:674   */\n      dup4\n        /* \"#utility.yul\":664:681   */\n      add\n        /* \"#utility.yul\":660:687   */\n      slt\n        /* \"#utility.yul\":650:772   */\n      tag_132\n      jumpi\n        /* \"#utility.yul\":691:770   */\n      tag_133\n      tag_134\n      jump\t// in\n    tag_133:\n        /* \"#utility.yul\":650:772   */\n    tag_132:\n        /* \"#utility.yul\":808:814   */\n      dup2\n        /* \"#utility.yul\":795:815   */\n      calldataload\n        /* \"#utility.yul\":833:912   */\n      tag_135\n        /* \"#utility.yul\":908:911   */\n      dup5\n        /* \"#utility.yul\":900:906   */\n      dup3\n        /* \"#utility.yul\":893:897   */\n      0x20\n        /* \"#utility.yul\":885:891   */\n      dup7\n        /* \"#utility.yul\":881:898   */\n      add\n        /* \"#utility.yul\":833:912   */\n      tag_115\n      jump\t// in\n    tag_135:\n        /* \"#utility.yul\":824:912   */\n      swap2\n      pop\n        /* \"#utility.yul\":640:918   */\n      pop\n        /* \"#utility.yul\":578:918   */\n      swap3\n      swap2\n      pop\n      pop\n      jump\t// out\n        /* \"#utility.yul\":954:2354   */\n    tag_136:\n        /* \"#utility.yul\":1023:1028   */\n      0x00\n        /* \"#utility.yul\":1067:1071   */\n      0xa0\n        /* \"#utility.yul\":1055:1064   */\n      dup3\n        /* \"#utility.yul\":1050:1053   */\n      dup5\n        /* \"#utility.yul\":1046:1065   */\n      sub\n        /* \"#utility.yul\":1042:1072   */\n      slt\n        /* \"#utility.yul\":1039:1156   */\n      iszero\n      tag_138\n      jumpi\n        /* \"#utility.yul\":1075:1154   */\n      tag_139\n      tag_140\n      jump\t// in\n    tag_139:\n        /* \"#utility.yul\":1039:1156   */\n    tag_138:\n        /* \"#utility.yul\":1174:1195   */\n      tag_141\n        /* \"#utility.yul\":1190:1194   */\n      0xa0\n        /* \"#utility.yul\":1174:1195   */\n      tag_120\n      jump\t// in\n    tag_141:\n        /* \"#utility.yul\":1165:1195   */\n      swap1\n      pop\n        /* \"#utility.yul\":1283:1284   */\n      0x00\n        /* \"#utility.yul\":1272:1281   */\n      dup3\n        /* \"#utility.yul\":1268:1285   */\n      add\n        /* \"#utility.yul\":1255:1286   */\n      calldataload\n        /* \"#utility.yul\":1313:1331   */\n      0xffffffffffffffff\n        /* \"#utility.yul\":1305:1311   */\n      dup2\n        /* \"#utility.yul\":1302:1332   */\n      gt\n        /* \"#utility.yul\":1299:1416   */\n      iszero\n      tag_142\n      jumpi\n        /* \"#utility.yul\":1335:1414   */\n      tag_143\n      tag_144\n      jump\t// in\n    tag_143:\n        /* \"#utility.yul\":1299:1416   */\n    tag_142:\n        /* \"#utility.yul\":1455:1514   */\n      tag_145\n        /* \"#utility.yul\":1510:1513   */\n      dup5\n        /* \"#utility.yul\":1501:1507   */\n      dup3\n        /* \"#utility.yul\":1490:1499   */\n      dup6\n        /* \"#utility.yul\":1486:1508   */\n      add\n        /* \"#utility.yul\":1455:1514   */\n      tag_130\n      jump\t// in\n    tag_145:\n        /* \"#utility.yul\":1448:1452   */\n      0x00\n        /* \"#utility.yul\":1441:1446   */\n      dup4\n        /* \"#utility.yul\":1437:1453   */\n      add\n        /* \"#utility.yul\":1430:1515   */\n      mstore\n        /* \"#utility.yul\":1205:1526   */\n      pop\n        /* \"#utility.yul\":1615:1617   */\n      0x20\n        /* \"#utility.yul\":1604:1613   */\n      dup3\n        /* \"#utility.yul\":1600:1618   */\n      add\n        /* \"#utility.yul\":1587:1619   */\n      calldataload\n        /* \"#utility.yul\":1646:1664   */\n      0xffffffffffffffff\n        /* \"#utility.yul\":1638:1644   */\n      dup2\n        /* \"#utility.yul\":1635:1665   */\n      gt\n        /* \"#utility.yul\":1632:1749   */\n      iszero\n      tag_146\n      jumpi\n        /* \"#utility.yul\":1668:1747   */\n      tag_147\n      tag_144\n      jump\t// in\n    tag_147:\n        /* \"#utility.yul\":1632:1749   */\n    tag_146:\n        /* \"#utility.yul\":1788:1847   */\n      tag_148\n        /* \"#utility.yul\":1843:1846   */\n      dup5\n        /* \"#utility.yul\":1834:1840   */\n      dup3\n        /* \"#utility.yul\":1823:1832   */\n      dup6\n        /* \"#utility.yul\":1819:1841   */\n      add\n        /* \"#utility.yul\":1788:1847   */\n      tag_130\n      jump\t// in\n    tag_148:\n        /* \"#utility.yul\":1781:1785   */\n      0x20\n        /* \"#utility.yul\":1774:1779   */\n      dup4\n        /* \"#utility.yul\":1770:1786   */\n      add\n        /* \"#utility.yul\":1763:1848   */\n      mstore\n        /* \"#utility.yul\":1536:1859   */\n      pop\n        /* \"#utility.yul\":1916:1918   */\n      0x40\n        /* \"#utility.yul\":1957:2006   */\n      tag_149\n        /* \"#utility.yul\":2002:2005   */\n      dup5\n        /* \"#utility.yul\":1993:1999   */\n      dup3\n        /* \"#utility.yul\":1982:1991   */\n      dup6\n        /* \"#utility.yul\":1978:2000   */\n      add\n        /* \"#utility.yul\":1957:2006   */\n      tag_150\n      jump\t// in\n    tag_149:\n        /* \"#utility.yul\":1950:1954   */\n      0x40\n        /* \"#utility.yul\":1943:1948   */\n      dup4\n        /* \"#utility.yul\":1939:1955   */\n      add\n        /* \"#utility.yul\":1932:2007   */\n      mstore\n        /* \"#utility.yul\":1869:2018   */\n      pop\n        /* \"#utility.yul\":2082:2084   */\n      0x60\n        /* \"#utility.yul\":2123:2169   */\n      tag_151\n        /* \"#utility.yul\":2165:2168   */\n      dup5\n        /* \"#utility.yul\":2156:2162   */\n      dup3\n        /* \"#utility.yul\":2145:2154   */\n      dup6\n        /* \"#utility.yul\":2141:2163   */\n      add\n        /* \"#utility.yul\":2123:2169   */\n      tag_126\n      jump\t// in\n    tag_151:\n        /* \"#utility.yul\":2116:2120   */\n      0x60\n        /* \"#utility.yul\":2109:2114   */\n      dup4\n        /* \"#utility.yul\":2105:2121   */\n      add\n        /* \"#utility.yul\":2098:2170   */\n      mstore\n        /* \"#utility.yul\":2028:2181   */\n      pop\n        /* \"#utility.yul\":2244:2247   */\n      0x80\n        /* \"#utility.yul\":2286:2335   */\n      tag_152\n        /* \"#utility.yul\":2331:2334   */\n      dup5\n        /* \"#utility.yul\":2322:2328   */\n      dup3\n        /* \"#utility.yul\":2311:2320   */\n      dup6\n        /* \"#utility.yul\":2307:2329   */\n      add\n        /* \"#utility.yul\":2286:2335   */\n      tag_150\n      jump\t// in\n    tag_152:\n        /* \"#utility.yul\":2279:2283   */\n      0x80\n        /* \"#utility.yul\":2272:2277   */\n      dup4\n        /* \"#utility.yul\":2268:2284   */\n      add\n        /* \"#utility.yul\":2261:2336   */\n      mstore\n        /* \"#utility.yul\":2191:2347   */\n      pop\n        /* \"#utility.yul\":954:2354   */\n      swap3\n      swap2\n      pop\n      pop\n      jump\t// out\n        /* \"#utility.yul\":2360:2499   */\n    tag_150:\n        /* \"#utility.yul\":2406:2411   */\n      0x00\n        /* \"#utility.yul\":2444:2450   */\n      dup2\n        /* \"#utility.yul\":2431:2451   */\n      calldataload\n        /* \"#utility.yul\":2422:2451   */\n      swap1\n      pop\n        /* \"#utility.yul\":2460:2493   */\n      tag_154\n        /* \"#utility.yul\":2487:2492   */\n      dup2\n        /* \"#utility.yul\":2460:2493   */\n      tag_155\n      jump\t// in\n    tag_154:\n        /* \"#utility.yul\":2360:2499   */\n      swap3\n      swap2\n      pop\n      pop\n      jump\t// out\n        /* \"#utility.yul\":2505:3034   */\n    tag_30:\n        /* \"#utility.yul\":2584:2590   */\n      0x00\n        /* \"#utility.yul\":2633:2635   */\n      0x20\n        /* \"#utility.yul\":2621:2630   */\n      dup3\n        /* \"#utility.yul\":2612:2619   */\n      dup5\n        /* \"#utility.yul\":2608:2631   */\n      sub\n        /* \"#utility.yul\":2604:2636   */\n      slt\n        /* \"#utility.yul\":2601:2720   */\n      iszero\n      tag_157\n      jumpi\n        /* \"#utility.yul\":2639:2718   */\n      tag_158\n      tag_159\n      jump\t// in\n    tag_158:\n        /* \"#utility.yul\":2601:2720   */\n    tag_157:\n        /* \"#utility.yul\":2787:2788   */\n      0x00\n        /* \"#utility.yul\":2776:2785   */\n      dup3\n        /* \"#utility.yul\":2772:2789   */\n      add\n        /* \"#utility.yul\":2759:2790   */\n      calldataload\n        /* \"#utility.yul\":2817:2835   */\n      0xffffffffffffffff\n        /* \"#utility.yul\":2809:2815   */\n      dup2\n        /* \"#utility.yul\":2806:2836   */\n      gt\n        /* \"#utility.yul\":2803:2920   */\n      iszero\n      tag_160\n      jumpi\n        /* \"#utility.yul\":2839:2918   */\n      tag_161\n      tag_162\n      jump\t// in\n    tag_161:\n        /* \"#utility.yul\":2803:2920   */\n    tag_160:\n        /* \"#utility.yul\":2944:3017   */\n      tag_163\n        /* \"#utility.yul\":3009:3016   */\n      dup5\n        /* \"#utility.yul\":3000:3006   */\n      dup3\n        /* \"#utility.yul\":2989:2998   */\n      dup6\n        /* \"#utility.yul\":2985:3007   */\n      add\n        /* \"#utility.yul\":2944:3017   */\n      tag_136\n      jump\t// in\n    tag_163:\n        /* \"#utility.yul\":2934:3017   */\n      swap2\n      pop\n        /* \"#utility.yul\":2730:3027   */\n      pop\n        /* \"#utility.yul\":2505:3034   */\n      swap3\n      swap2\n      pop\n      pop\n      jump\t// out\n        /* \"#utility.yul\":3040:3369   */\n    tag_15:\n        /* \"#utility.yul\":3099:3105   */\n      0x00\n        /* \"#utility.yul\":3148:3150   */\n      0x20\n        /* \"#utility.yul\":3136:3145   */\n      dup3\n        /* \"#utility.yul\":3127:3134   */\n      dup5\n        /* \"#utility.yul\":3123:3146   */\n      sub\n        /* \"#utility.yul\":3119:3151   */\n      slt\n        /* \"#utility.yul\":3116:3235   */\n      iszero\n      tag_165\n      jumpi\n        /* \"#utility.yul\":3154:3233   */\n      tag_166\n      tag_159\n      jump\t// in\n    tag_166:\n        /* \"#utility.yul\":3116:3235   */\n    tag_165:\n        /* \"#utility.yul\":3274:3275   */\n      0x00\n        /* \"#utility.yul\":3299:3352   */\n      tag_167\n        /* \"#utility.yul\":3344:3351   */\n      dup5\n        /* \"#utility.yul\":3335:3341   */\n      dup3\n        /* \"#utility.yul\":3324:3333   */\n      dup6\n        /* \"#utility.yul\":3320:3342   */\n      add\n        /* \"#utility.yul\":3299:3352   */\n      tag_150\n      jump\t// in\n    tag_167:\n        /* \"#utility.yul\":3289:3352   */\n      swap2\n      pop\n        /* \"#utility.yul\":3245:3362   */\n      pop\n        /* \"#utility.yul\":3040:3369   */\n      swap3\n      swap2\n      pop\n      pop\n      jump\t// out\n        /* \"#utility.yul\":3375:3484   */\n    tag_168:\n        /* \"#utility.yul\":3456:3477   */\n      tag_170\n        /* \"#utility.yul\":3471:3476   */\n      dup2\n        /* \"#utility.yul\":3456:3477   */\n      tag_171\n      jump\t// in\n    tag_170:\n        /* \"#utility.yul\":3451:3454   */\n      dup3\n        /* \"#utility.yul\":3444:3478   */\n      mstore\n        /* \"#utility.yul\":3375:3484   */\n      pop\n      pop\n      jump\t// out\n        /* \"#utility.yul\":3490:3854   */\n    tag_172:\n        /* \"#utility.yul\":3578:3581   */\n      0x00\n        /* \"#utility.yul\":3606:3645   */\n      tag_174\n        /* \"#utility.yul\":3639:3644   */\n      dup3\n        /* \"#utility.yul\":3606:3645   */\n      tag_175\n      jump\t// in\n    tag_174:\n        /* \"#utility.yul\":3661:3732   */\n      tag_176\n        /* \"#utility.yul\":3725:3731   */\n      dup2\n        /* \"#utility.yul\":3720:3723   */\n      dup6\n        /* \"#utility.yul\":3661:3732   */\n      tag_177\n      jump\t// in\n    tag_176:\n        /* \"#utility.yul\":3654:3732   */\n      swap4\n      pop\n        /* \"#utility.yul\":3741:3793   */\n      tag_178\n        /* \"#utility.yul\":3786:3792   */\n      dup2\n        /* \"#utility.yul\":3781:3784   */\n      dup6\n        /* \"#utility.yul\":3774:3778   */\n      0x20\n        /* \"#utility.yul\":3767:3772   */\n      dup7\n        /* \"#utility.yul\":3763:3779   */\n      add\n        /* \"#utility.yul\":3741:3793   */\n      tag_179\n      jump\t// in\n    tag_178:\n        /* \"#utility.yul\":3818:3847   */\n      tag_180\n        /* \"#utility.yul\":3840:3846   */\n      dup2\n        /* \"#utility.yul\":3818:3847   */\n      tag_181\n      jump\t// in\n    tag_180:\n        /* \"#utility.yul\":3813:3816   */\n      dup5\n        /* \"#utility.yul\":3809:3848   */\n      add\n        /* \"#utility.yul\":3802:3848   */\n      swap2\n      pop\n        /* \"#utility.yul\":3582:3854   */\n      pop\n        /* \"#utility.yul\":3490:3854   */\n      swap3\n      swap2\n      pop\n      pop\n      jump\t// out\n        /* \"#utility.yul\":3860:4226   */\n    tag_182:\n        /* \"#utility.yul\":4002:4005   */\n      0x00\n        /* \"#utility.yul\":4023:4090   */\n      tag_184\n        /* \"#utility.yul\":4087:4089   */\n      0x1f\n        /* \"#utility.yul\":4082:4085   */\n      dup4\n        /* \"#utility.yul\":4023:4090   */\n      tag_177\n      jump\t// in\n    tag_184:\n        /* \"#utility.yul\":4016:4090   */\n      swap2\n      pop\n        /* \"#utility.yul\":4099:4192   */\n      tag_185\n        /* \"#utility.yul\":4188:4191   */\n      dup3\n        /* \"#utility.yul\":4099:4192   */\n      tag_186\n      jump\t// in\n    tag_185:\n        /* \"#utility.yul\":4217:4219   */\n      0x20\n        /* \"#utility.yul\":4212:4215   */\n      dup3\n        /* \"#utility.yul\":4208:4220   */\n      add\n        /* \"#utility.yul\":4201:4220   */\n      swap1\n      pop\n        /* \"#utility.yul\":3860:4226   */\n      swap2\n      swap1\n      pop\n      jump\t// out\n        /* \"#utility.yul\":4232:4350   */\n    tag_187:\n        /* \"#utility.yul\":4319:4343   */\n      tag_189\n        /* \"#utility.yul\":4337:4342   */\n      dup2\n        /* \"#utility.yul\":4319:4343   */\n      tag_190\n      jump\t// in\n    tag_189:\n        /* \"#utility.yul\":4314:4317   */\n      dup3\n        /* \"#utility.yul\":4307:4344   */\n      mstore\n        /* \"#utility.yul\":4232:4350   */\n      pop\n      pop\n      jump\t// out\n        /* \"#utility.yul\":4356:4566   */\n    tag_36:\n        /* \"#utility.yul\":4443:4447   */\n      0x00\n        /* \"#utility.yul\":4481:4483   */\n      0x20\n        /* \"#utility.yul\":4470:4479   */\n      dup3\n        /* \"#utility.yul\":4466:4484   */\n      add\n        /* \"#utility.yul\":4458:4484   */\n      swap1\n      pop\n        /* \"#utility.yul\":4494:4559   */\n      tag_192\n        /* \"#utility.yul\":4556:4557   */\n      0x00\n        /* \"#utility.yul\":4545:4554   */\n      dup4\n        /* \"#utility.yul\":4541:4558   */\n      add\n        /* \"#utility.yul\":4532:4538   */\n      dup5\n        /* \"#utility.yul\":4494:4559   */\n      tag_168\n      jump\t// in\n    tag_192:\n        /* \"#utility.yul\":4356:4566   */\n      swap3\n      swap2\n      pop\n      pop\n      jump\t// out\n        /* \"#utility.yul\":4572:4885   */\n    tag_46:\n        /* \"#utility.yul\":4685:4689   */\n      0x00\n        /* \"#utility.yul\":4723:4725   */\n      0x20\n        /* \"#utility.yul\":4712:4721   */\n      dup3\n        /* \"#utility.yul\":4708:4726   */\n      add\n        /* \"#utility.yul\":4700:4726   */\n      swap1\n      pop\n        /* \"#utility.yul\":4772:4781   */\n      dup2\n        /* \"#utility.yul\":4766:4770   */\n      dup2\n        /* \"#utility.yul\":4762:4782   */\n      sub\n        /* \"#utility.yul\":4758:4759   */\n      0x00\n        /* \"#utility.yul\":4747:4756   */\n      dup4\n        /* \"#utility.yul\":4743:4760   */\n      add\n        /* \"#utility.yul\":4736:4783   */\n      mstore\n        /* \"#utility.yul\":4800:4878   */\n      tag_194\n        /* \"#utility.yul\":4873:4877   */\n      dup2\n        /* \"#utility.yul\":4864:4870   */\n      dup5\n        /* \"#utility.yul\":4800:4878   */\n      tag_172\n      jump\t// in\n    tag_194:\n        /* \"#utility.yul\":4792:4878   */\n      swap1\n      pop\n        /* \"#utility.yul\":4572:4885   */\n      swap3\n      swap2\n      pop\n      pop\n      jump\t// out\n        /* \"#utility.yul\":4891:5725   */\n    tag_18:\n        /* \"#utility.yul\":5130:5134   */\n      0x00\n        /* \"#utility.yul\":5168:5171   */\n      0xa0\n        /* \"#utility.yul\":5157:5166   */\n      dup3\n        /* \"#utility.yul\":5153:5172   */\n      add\n        /* \"#utility.yul\":5145:5172   */\n      swap1\n      pop\n        /* \"#utility.yul\":5218:5227   */\n      dup2\n        /* \"#utility.yul\":5212:5216   */\n      dup2\n        /* \"#utility.yul\":5208:5228   */\n      sub\n        /* \"#utility.yul\":5204:5205   */\n      0x00\n        /* \"#utility.yul\":5193:5202   */\n      dup4\n        /* \"#utility.yul\":5189:5206   */\n      add\n        /* \"#utility.yul\":5182:5229   */\n      mstore\n        /* \"#utility.yul\":5246:5324   */\n      tag_196\n        /* \"#utility.yul\":5319:5323   */\n      dup2\n        /* \"#utility.yul\":5310:5316   */\n      dup9\n        /* \"#utility.yul\":5246:5324   */\n      tag_172\n      jump\t// in\n    tag_196:\n        /* \"#utility.yul\":5238:5324   */\n      swap1\n      pop\n        /* \"#utility.yul\":5371:5380   */\n      dup2\n        /* \"#utility.yul\":5365:5369   */\n      dup2\n        /* \"#utility.yul\":5361:5381   */\n      sub\n        /* \"#utility.yul\":5356:5358   */\n      0x20\n        /* \"#utility.yul\":5345:5354   */\n      dup4\n        /* \"#utility.yul\":5341:5359   */\n      add\n        /* \"#utility.yul\":5334:5382   */\n      mstore\n        /* \"#utility.yul\":5399:5477   */\n      tag_197\n        /* \"#utility.yul\":5472:5476   */\n      dup2\n        /* \"#utility.yul\":5463:5469   */\n      dup8\n        /* \"#utility.yul\":5399:5477   */\n      tag_172\n      jump\t// in\n    tag_197:\n        /* \"#utility.yul\":5391:5477   */\n      swap1\n      pop\n        /* \"#utility.yul\":5487:5559   */\n      tag_198\n        /* \"#utility.yul\":5555:5557   */\n      0x40\n        /* \"#utility.yul\":5544:5553   */\n      dup4\n        /* \"#utility.yul\":5540:5558   */\n      add\n        /* \"#utility.yul\":5531:5537   */\n      dup7\n        /* \"#utility.yul\":5487:5559   */\n      tag_187\n      jump\t// in\n    tag_198:\n        /* \"#utility.yul\":5569:5635   */\n      tag_199\n        /* \"#utility.yul\":5631:5633   */\n      0x60\n        /* \"#utility.yul\":5620:5629   */\n      dup4\n        /* \"#utility.yul\":5616:5634   */\n      add\n        /* \"#utility.yul\":5607:5613   */\n      dup6\n        /* \"#utility.yul\":5569:5635   */\n      tag_168\n      jump\t// in\n    tag_199:\n        /* \"#utility.yul\":5645:5718   */\n      tag_200\n        /* \"#utility.yul\":5713:5716   */\n      0x80\n        /* \"#utility.yul\":5702:5711   */\n      dup4\n        /* \"#utility.yul\":5698:5717   */\n      add\n        /* \"#utility.yul\":5689:5695   */\n      dup5\n        /* \"#utility.yul\":5645:5718   */\n      tag_187\n      jump\t// in\n    tag_200:\n        /* \"#utility.yul\":4891:5725   */\n      swap7\n      swap6\n      pop\n      pop\n      pop\n      pop\n      pop\n      pop\n      jump\t// out\n        /* \"#utility.yul\":5731:6154   */\n    tag_27:\n        /* \"#utility.yul\":5872:5876   */\n      0x00\n        /* \"#utility.yul\":5910:5912   */\n      0x40\n        /* \"#utility.yul\":5899:5908   */\n      dup3\n        /* \"#utility.yul\":5895:5913   */\n      add\n        /* \"#utility.yul\":5887:5913   */\n      swap1\n      pop\n        /* \"#utility.yul\":5959:5968   */\n      dup2\n        /* \"#utility.yul\":5953:5957   */\n      dup2\n        /* \"#utility.yul\":5949:5969   */\n      sub\n        /* \"#utility.yul\":5945:5946   */\n      0x00\n        /* \"#utility.yul\":5934:5943   */\n      dup4\n        /* \"#utility.yul\":5930:5947   */\n      add\n        /* \"#utility.yul\":5923:5970   */\n      mstore\n        /* \"#utility.yul\":5987:6065   */\n      tag_202\n        /* \"#utility.yul\":6060:6064   */\n      dup2\n        /* \"#utility.yul\":6051:6057   */\n      dup6\n        /* \"#utility.yul\":5987:6065   */\n      tag_172\n      jump\t// in\n    tag_202:\n        /* \"#utility.yul\":5979:6065   */\n      swap1\n      pop\n        /* \"#utility.yul\":6075:6147   */\n      tag_203\n        /* \"#utility.yul\":6143:6145   */\n      0x20\n        /* \"#utility.yul\":6132:6141   */\n      dup4\n        /* \"#utility.yul\":6128:6146   */\n      add\n        /* \"#utility.yul\":6119:6125   */\n      dup5\n        /* \"#utility.yul\":6075:6147   */\n      tag_187\n      jump\t// in\n    tag_203:\n        /* \"#utility.yul\":5731:6154   */\n      swap4\n      swap3\n      pop\n      pop\n      pop\n      jump\t// out\n        /* \"#utility.yul\":6160:6579   */\n    tag_62:\n        /* \"#utility.yul\":6326:6330   */\n      0x00\n        /* \"#utility.yul\":6364:6366   */\n      0x20\n        /* \"#utility.yul\":6353:6362   */\n      dup3\n        /* \"#utility.yul\":6349:6367   */\n      add\n        /* \"#utility.yul\":6341:6367   */\n      swap1\n      pop\n        /* \"#utility.yul\":6413:6422   */\n      dup2\n        /* \"#utility.yul\":6407:6411   */\n      dup2\n        /* \"#utility.yul\":6403:6423   */\n      sub\n        /* \"#utility.yul\":6399:6400   */\n      0x00\n        /* \"#utility.yul\":6388:6397   */\n      dup4\n        /* \"#utility.yul\":6384:6401   */\n      add\n        /* \"#utility.yul\":6377:6424   */\n      mstore\n        /* \"#utility.yul\":6441:6572   */\n      tag_205\n        /* \"#utility.yul\":6567:6571   */\n      dup2\n        /* \"#utility.yul\":6441:6572   */\n      tag_182\n      jump\t// in\n    tag_205:\n        /* \"#utility.yul\":6433:6572   */\n      swap1\n      pop\n        /* \"#utility.yul\":6160:6579   */\n      swap2\n      swap1\n      pop\n      jump\t// out\n        /* \"#utility.yul\":6585:6714   */\n    tag_120:\n        /* \"#utility.yul\":6619:6625   */\n      0x00\n        /* \"#utility.yul\":6646:6666   */\n      tag_207\n      tag_208\n      jump\t// in\n    tag_207:\n        /* \"#utility.yul\":6636:6666   */\n      swap1\n      pop\n        /* \"#utility.yul\":6675:6708   */\n      tag_209\n        /* \"#utility.yul\":6703:6707   */\n      dup3\n        /* \"#utility.yul\":6695:6701   */\n      dup3\n        /* \"#utility.yul\":6675:6708   */\n      tag_210\n      jump\t// in\n    tag_209:\n        /* \"#utility.yul\":6585:6714   */\n      swap2\n      swap1\n      pop\n      jump\t// out\n        /* \"#utility.yul\":6720:6795   */\n    tag_208:\n        /* \"#utility.yul\":6753:6759   */\n      0x00\n        /* \"#utility.yul\":6786:6788   */\n      0x40\n        /* \"#utility.yul\":6780:6789   */\n      mload\n        /* \"#utility.yul\":6770:6789   */\n      swap1\n      pop\n        /* \"#utility.yul\":6720:6795   */\n      swap1\n      jump\t// out\n        /* \"#utility.yul\":6801:7109   */\n    tag_119:\n        /* \"#utility.yul\":6863:6867   */\n      0x00\n        /* \"#utility.yul\":6953:6971   */\n      0xffffffffffffffff\n        /* \"#utility.yul\":6945:6951   */\n      dup3\n        /* \"#utility.yul\":6942:6972   */\n      gt\n        /* \"#utility.yul\":6939:6995   */\n      iszero\n      tag_213\n      jumpi\n        /* \"#utility.yul\":6975:6993   */\n      tag_214\n      tag_215\n      jump\t// in\n    tag_214:\n        /* \"#utility.yul\":6939:6995   */\n    tag_213:\n        /* \"#utility.yul\":7013:7042   */\n      tag_216\n        /* \"#utility.yul\":7035:7041   */\n      dup3\n        /* \"#utility.yul\":7013:7042   */\n      tag_181\n      jump\t// in\n    tag_216:\n        /* \"#utility.yul\":7005:7042   */\n      swap1\n      pop\n        /* \"#utility.yul\":7097:7101   */\n      0x20\n        /* \"#utility.yul\":7091:7095   */\n      dup2\n        /* \"#utility.yul\":7087:7102   */\n      add\n        /* \"#utility.yul\":7079:7102   */\n      swap1\n      pop\n        /* \"#utility.yul\":6801:7109   */\n      swap2\n      swap1\n      pop\n      jump\t// out\n        /* \"#utility.yul\":7115:7214   */\n    tag_175:\n        /* \"#utility.yul\":7167:7173   */\n      0x00\n        /* \"#utility.yul\":7201:7206   */\n      dup2\n        /* \"#utility.yul\":7195:7207   */\n      mload\n        /* \"#utility.yul\":7185:7207   */\n      swap1\n      pop\n        /* \"#utility.yul\":7115:7214   */\n      swap2\n      swap1\n      pop\n      jump\t// out\n        /* \"#utility.yul\":7220:7389   */\n    tag_177:\n        /* \"#utility.yul\":7304:7315   */\n      0x00\n        /* \"#utility.yul\":7338:7344   */\n      dup3\n        /* \"#utility.yul\":7333:7336   */\n      dup3\n        /* \"#utility.yul\":7326:7345   */\n      mstore\n        /* \"#utility.yul\":7378:7382   */\n      0x20\n        /* \"#utility.yul\":7373:7376   */\n      dup3\n        /* \"#utility.yul\":7369:7383   */\n      add\n        /* \"#utility.yul\":7354:7383   */\n      swap1\n      pop\n        /* \"#utility.yul\":7220:7389   */\n      swap3\n      swap2\n      pop\n      pop\n      jump\t// out\n        /* \"#utility.yul\":7395:7586   */\n    tag_64:\n        /* \"#utility.yul\":7435:7439   */\n      0x00\n        /* \"#utility.yul\":7455:7475   */\n      tag_220\n        /* \"#utility.yul\":7473:7474   */\n      dup3\n        /* \"#utility.yul\":7455:7475   */\n      tag_190\n      jump\t// in\n    tag_220:\n        /* \"#utility.yul\":7450:7475   */\n      swap2\n      pop\n        /* \"#utility.yul\":7489:7509   */\n      tag_221\n        /* \"#utility.yul\":7507:7508   */\n      dup4\n        /* \"#utility.yul\":7489:7509   */\n      tag_190\n      jump\t// in\n    tag_221:\n        /* \"#utility.yul\":7484:7509   */\n      swap3\n      pop\n        /* \"#utility.yul\":7528:7529   */\n      dup3\n        /* \"#utility.yul\":7525:7526   */\n      dup3\n        /* \"#utility.yul\":7522:7530   */\n      lt\n        /* \"#utility.yul\":7519:7553   */\n      iszero\n      tag_222\n      jumpi\n        /* \"#utility.yul\":7533:7551   */\n      tag_223\n      tag_224\n      jump\t// in\n    tag_223:\n        /* \"#utility.yul\":7519:7553   */\n    tag_222:\n        /* \"#utility.yul\":7578:7579   */\n      dup3\n        /* \"#utility.yul\":7575:7576   */\n      dup3\n        /* \"#utility.yul\":7571:7580   */\n      sub\n        /* \"#utility.yul\":7563:7580   */\n      swap1\n      pop\n        /* \"#utility.yul\":7395:7586   */\n      swap3\n      swap2\n      pop\n      pop\n      jump\t// out\n        /* \"#utility.yul\":7592:7682   */\n    tag_171:\n        /* \"#utility.yul\":7626:7633   */\n      0x00\n        /* \"#utility.yul\":7669:7674   */\n      dup2\n        /* \"#utility.yul\":7662:7675   */\n      iszero\n        /* \"#utility.yul\":7655:7676   */\n      iszero\n        /* \"#utility.yul\":7644:7676   */\n      swap1\n      pop\n        /* \"#utility.yul\":7592:7682   */\n      swap2\n      swap1\n      pop\n      jump\t// out\n        /* \"#utility.yul\":7688:7765   */\n    tag_190:\n        /* \"#utility.yul\":7725:7732   */\n      0x00\n        /* \"#utility.yul\":7754:7759   */\n      dup2\n        /* \"#utility.yul\":7743:7759   */\n      swap1\n      pop\n        /* \"#utility.yul\":7688:7765   */\n      swap2\n      swap1\n      pop\n      jump\t// out\n        /* \"#utility.yul\":7771:7925   */\n    tag_125:\n        /* \"#utility.yul\":7855:7861   */\n      dup3\n        /* \"#utility.yul\":7850:7853   */\n      dup2\n        /* \"#utility.yul\":7845:7848   */\n      dup4\n        /* \"#utility.yul\":7832:7862   */\n      calldatacopy\n        /* \"#utility.yul\":7917:7918   */\n      0x00\n        /* \"#utility.yul\":7908:7914   */\n      dup4\n        /* \"#utility.yul\":7903:7906   */\n      dup4\n        /* \"#utility.yul\":7899:7915   */\n      add\n        /* \"#utility.yul\":7892:7919   */\n      mstore\n        /* \"#utility.yul\":7771:7925   */\n      pop\n      pop\n      pop\n      jump\t// out\n        /* \"#utility.yul\":7931:8238   */\n    tag_179:\n        /* \"#utility.yul\":7999:8000   */\n      0x00\n        /* \"#utility.yul\":8009:8122   */\n    tag_229:\n        /* \"#utility.yul\":8023:8029   */\n      dup4\n        /* \"#utility.yul\":8020:8021   */\n      dup2\n        /* \"#utility.yul\":8017:8030   */\n      lt\n        /* \"#utility.yul\":8009:8122   */\n      iszero\n      tag_231\n      jumpi\n        /* \"#utility.yul\":8108:8109   */\n      dup1\n        /* \"#utility.yul\":8103:8106   */\n      dup3\n        /* \"#utility.yul\":8099:8110   */\n      add\n        /* \"#utility.yul\":8093:8111   */\n      mload\n        /* \"#utility.yul\":8089:8090   */\n      dup2\n        /* \"#utility.yul\":8084:8087   */\n      dup5\n        /* \"#utility.yul\":8080:8091   */\n      add\n        /* \"#utility.yul\":8073:8112   */\n      mstore\n        /* \"#utility.yul\":8045:8047   */\n      0x20\n        /* \"#utility.yul\":8042:8043   */\n      dup2\n        /* \"#utility.yul\":8038:8048   */\n      add\n        /* \"#utility.yul\":8033:8048   */\n      swap1\n      pop\n        /* \"#utility.yul\":8009:8122   */\n      jump(tag_229)\n    tag_231:\n        /* \"#utility.yul\":8140:8146   */\n      dup4\n        /* \"#utility.yul\":8137:8138   */\n      dup2\n        /* \"#utility.yul\":8134:8147   */\n      gt\n        /* \"#utility.yul\":8131:8232   */\n      iszero\n      tag_232\n      jumpi\n        /* \"#utility.yul\":8220:8221   */\n      0x00\n        /* \"#utility.yul\":8211:8217   */\n      dup5\n        /* \"#utility.yul\":8206:8209   */\n      dup5\n        /* \"#utility.yul\":8202:8218   */\n      add\n        /* \"#utility.yul\":8195:8222   */\n      mstore\n        /* \"#utility.yul\":8131:8232   */\n    tag_232:\n        /* \"#utility.yul\":7980:8238   */\n      pop\n        /* \"#utility.yul\":7931:8238   */\n      pop\n      pop\n      pop\n      jump\t// out\n        /* \"#utility.yul\":8244:8564   */\n    tag_48:\n        /* \"#utility.yul\":8288:8294   */\n      0x00\n        /* \"#utility.yul\":8325:8326   */\n      0x02\n        /* \"#utility.yul\":8319:8323   */\n      dup3\n        /* \"#utility.yul\":8315:8327   */\n      div\n        /* \"#utility.yul\":8305:8327   */\n      swap1\n      pop\n        /* \"#utility.yul\":8372:8373   */\n      0x01\n        /* \"#utility.yul\":8366:8370   */\n      dup3\n        /* \"#utility.yul\":8362:8374   */\n      and\n        /* \"#utility.yul\":8393:8411   */\n      dup1\n        /* \"#utility.yul\":8383:8464   */\n      tag_234\n      jumpi\n        /* \"#utility.yul\":8449:8453   */\n      0x7f\n        /* \"#utility.yul\":8441:8447   */\n      dup3\n        /* \"#utility.yul\":8437:8454   */\n      and\n        /* \"#utility.yul\":8427:8454   */\n      swap2\n      pop\n        /* \"#utility.yul\":8383:8464   */\n    tag_234:\n        /* \"#utility.yul\":8511:8513   */\n      0x20\n        /* \"#utility.yul\":8503:8509   */\n      dup3\n        /* \"#utility.yul\":8500:8514   */\n      lt\n        /* \"#utility.yul\":8480:8498   */\n      dup2\n        /* \"#utility.yul\":8477:8515   */\n      eq\n        /* \"#utility.yul\":8474:8558   */\n      iszero\n      tag_235\n      jumpi\n        /* \"#utility.yul\":8530:8548   */\n      tag_236\n      tag_237\n      jump\t// in\n    tag_236:\n        /* \"#utility.yul\":8474:8558   */\n    tag_235:\n        /* \"#utility.yul\":8295:8564   */\n      pop\n        /* \"#utility.yul\":8244:8564   */\n      swap2\n      swap1\n      pop\n      jump\t// out\n        /* \"#utility.yul\":8570:8851   */\n    tag_210:\n        /* \"#utility.yul\":8653:8680   */\n      tag_239\n        /* \"#utility.yul\":8675:8679   */\n      dup3\n        /* \"#utility.yul\":8653:8680   */\n      tag_181\n      jump\t// in\n    tag_239:\n        /* \"#utility.yul\":8645:8651   */\n      dup2\n        /* \"#utility.yul\":8641:8681   */\n      add\n        /* \"#utility.yul\":8783:8789   */\n      dup2\n        /* \"#utility.yul\":8771:8781   */\n      dup2\n        /* \"#utility.yul\":8768:8790   */\n      lt\n        /* \"#utility.yul\":8747:8765   */\n      0xffffffffffffffff\n        /* \"#utility.yul\":8735:8745   */\n      dup3\n        /* \"#utility.yul\":8732:8766   */\n      gt\n        /* \"#utility.yul\":8729:8791   */\n      or\n        /* \"#utility.yul\":8726:8814   */\n      iszero\n      tag_240\n      jumpi\n        /* \"#utility.yul\":8794:8812   */\n      tag_241\n      tag_215\n      jump\t// in\n    tag_241:\n        /* \"#utility.yul\":8726:8814   */\n    tag_240:\n        /* \"#utility.yul\":8834:8844   */\n      dup1\n        /* \"#utility.yul\":8830:8832   */\n      0x40\n        /* \"#utility.yul\":8823:8845   */\n      mstore\n        /* \"#utility.yul\":8613:8851   */\n      pop\n        /* \"#utility.yul\":8570:8851   */\n      pop\n      pop\n      jump\t// out\n        /* \"#utility.yul\":8857:9037   */\n    tag_224:\n        /* \"#utility.yul\":8905:8982   */\n      0x4e487b7100000000000000000000000000000000000000000000000000000000\n        /* \"#utility.yul\":8902:8903   */\n      0x00\n        /* \"#utility.yul\":8895:8983   */\n      mstore\n        /* \"#utility.yul\":9002:9006   */\n      0x11\n        /* \"#utility.yul\":8999:9000   */\n      0x04\n        /* \"#utility.yul\":8992:9007   */\n      mstore\n        /* \"#utility.yul\":9026:9030   */\n      0x24\n        /* \"#utility.yul\":9023:9024   */\n      0x00\n        /* \"#utility.yul\":9016:9031   */\n      revert\n        /* \"#utility.yul\":9043:9223   */\n    tag_237:\n        /* \"#utility.yul\":9091:9168   */\n      0x4e487b7100000000000000000000000000000000000000000000000000000000\n        /* \"#utility.yul\":9088:9089   */\n      0x00\n        /* \"#utility.yul\":9081:9169   */\n      mstore\n        /* \"#utility.yul\":9188:9192   */\n      0x22\n        /* \"#utility.yul\":9185:9186   */\n      0x04\n        /* \"#utility.yul\":9178:9193   */\n      mstore\n        /* \"#utility.yul\":9212:9216   */\n      0x24\n        /* \"#utility.yul\":9209:9210   */\n      0x00\n        /* \"#utility.yul\":9202:9217   */\n      revert\n        /* \"#utility.yul\":9229:9409   */\n    tag_215:\n        /* \"#utility.yul\":9277:9354   */\n      0x4e487b7100000000000000000000000000000000000000000000000000000000\n        /* \"#utility.yul\":9274:9275   */\n      0x00\n        /* \"#utility.yul\":9267:9355   */\n      mstore\n        /* \"#utility.yul\":9374:9378   */\n      0x41\n        /* \"#utility.yul\":9371:9372   */\n      0x04\n        /* \"#utility.yul\":9364:9379   */\n      mstore\n        /* \"#utility.yul\":9398:9402   */\n      0x24\n        /* \"#utility.yul\":9395:9396   */\n      0x00\n        /* \"#utility.yul\":9388:9403   */\n      revert\n        /* \"#utility.yul\":9415:9532   */\n    tag_134:\n        /* \"#utility.yul\":9524:9525   */\n      0x00\n        /* \"#utility.yul\":9521:9522   */\n      dup1\n        /* \"#utility.yul\":9514:9526   */\n      revert\n        /* \"#utility.yul\":9538:9655   */\n    tag_140:\n        /* \"#utility.yul\":9647:9648   */\n      0x00\n        /* \"#utility.yul\":9644:9645   */\n      dup1\n        /* \"#utility.yul\":9637:9649   */\n      revert\n        /* \"#utility.yul\":9661:9778   */\n    tag_144:\n        /* \"#utility.yul\":9770:9771   */\n      0x00\n        /* \"#utility.yul\":9767:9768   */\n      dup1\n        /* \"#utility.yul\":9760:9772   */\n      revert\n        /* \"#utility.yul\":9784:9901   */\n    tag_123:\n        /* \"#utility.yul\":9893:9894   */\n      0x00\n        /* \"#utility.yul\":9890:9891   */\n      dup1\n        /* \"#utility.yul\":9883:9895   */\n      revert\n        /* \"#utility.yul\":9907:10024   */\n    tag_162:\n        /* \"#utility.yul\":10016:10017   */\n      0x00\n        /* \"#utility.yul\":10013:10014   */\n      dup1\n        /* \"#utility.yul\":10006:10018   */\n      revert\n        /* \"#utility.yul\":10030:10147   */\n    tag_159:\n        /* \"#utility.yul\":10139:10140   */\n      0x00\n        /* \"#utility.yul\":10136:10137   */\n      dup1\n        /* \"#utility.yul\":10129:10141   */\n      revert\n        /* \"#utility.yul\":10153:10255   */\n    tag_181:\n        /* \"#utility.yul\":10194:10200   */\n      0x00\n        /* \"#utility.yul\":10245:10247   */\n      0x1f\n        /* \"#utility.yul\":10241:10248   */\n      not\n        /* \"#utility.yul\":10236:10238   */\n      0x1f\n        /* \"#utility.yul\":10229:10234   */\n      dup4\n        /* \"#utility.yul\":10225:10239   */\n      add\n        /* \"#utility.yul\":10221:10249   */\n      and\n        /* \"#utility.yul\":10211:10249   */\n      swap1\n      pop\n        /* \"#utility.yul\":10153:10255   */\n      swap2\n      swap1\n      pop\n      jump\t// out\n        /* \"#utility.yul\":10261:10442   */\n    tag_186:\n        /* \"#utility.yul\":10401:10434   */\n      0x5468657265206973206e6f206d6f726520626f6f6b7320696e2073746f636b00\n        /* \"#utility.yul\":10397:10398   */\n      0x00\n        /* \"#utility.yul\":10389:10395   */\n      dup3\n        /* \"#utility.yul\":10385:10399   */\n      add\n        /* \"#utility.yul\":10378:10435   */\n      mstore\n        /* \"#utility.yul\":10261:10442   */\n      pop\n      jump\t// out\n        /* \"#utility.yul\":10448:10564   */\n    tag_129:\n        /* \"#utility.yul\":10518:10539   */\n      tag_254\n        /* \"#utility.yul\":10533:10538   */\n      dup2\n        /* \"#utility.yul\":10518:10539   */\n      tag_171\n      jump\t// in\n    tag_254:\n        /* \"#utility.yul\":10511:10516   */\n      dup2\n        /* \"#utility.yul\":10508:10540   */\n      eq\n        /* \"#utility.yul\":10498:10558   */\n      tag_255\n      jumpi\n        /* \"#utility.yul\":10554:10555   */\n      0x00\n        /* \"#utility.yul\":10551:10552   */\n      dup1\n        /* \"#utility.yul\":10544:10556   */\n      revert\n        /* \"#utility.yul\":10498:10558   */\n    tag_255:\n        /* \"#utility.yul\":10448:10564   */\n      pop\n      jump\t// out\n        /* \"#utility.yul\":10570:10692   */\n    tag_155:\n        /* \"#utility.yul\":10643:10667   */\n      tag_257\n        /* \"#utility.yul\":10661:10666   */\n      dup2\n        /* \"#utility.yul\":10643:10667   */\n      tag_190\n      jump\t// in\n    tag_257:\n        /* \"#utility.yul\":10636:10641   */\n      dup2\n        /* \"#utility.yul\":10633:10668   */\n      eq\n        /* \"#utility.yul\":10623:10686   */\n      tag_258\n      jumpi\n        /* \"#utility.yul\":10682:10683   */\n      0x00\n        /* \"#utility.yul\":10679:10680   */\n      dup1\n        /* \"#utility.yul\":10672:10684   */\n      revert\n        /* \"#utility.yul\":10623:10686   */\n    tag_258:\n        /* \"#utility.yul\":10570:10692   */\n      pop\n      jump\t// out\n\n    auxdata: 0xa26469706673582212205160e4d1fc962fda2fea965ad98ee2b4f749248550d73c98b8faef822e283a5864736f6c63430008070033\n}\n",
				"bytecode": {
					"linkReferences": {},
					"object": "60806040526040518060a001604052806040518060400160405280600c81526020017f4e7565766f20746974756c6f000000000000000000000000000000000000000081525081526020016040518060400160405280600781526020017f526f647269676f00000000000000000000000000000000000000000000000000815250815260200160018152602001600115158152602001600581525060056000820151816000019080519060200190620000ba92919062000124565b506020820151816001019080519060200190620000d992919062000124565b506040820151816002015560608201518160030160006101000a81548160ff0219169083151502179055506080820151816004015550503480156200011d57600080fd5b5062000239565b8280546200013290620001d4565b90600052602060002090601f016020900481019282620001565760008555620001a2565b82601f106200017157805160ff1916838001178555620001a2565b82800160010185558215620001a2579182015b82811115620001a157825182559160200191906001019062000184565b5b509050620001b19190620001b5565b5090565b5b80821115620001d0576000816000905550600101620001b6565b5090565b60006002820490506001821680620001ed57607f821691505b602082108114156200020457620002036200020a565b5b50919050565b7f4e487b7100000000000000000000000000000000000000000000000000000000600052602260045260246000fd5b610f3680620002496000396000f3fe608060405234801561001057600080fd5b50600436106100935760003560e01c8063cad4a2df11610066578063cad4a2df14610111578063e0ff5b8b1461012d578063e815fe1d1461015d578063fb6a8fcc1461017f578063ff3c1a8f146101a157610093565b80632b07630b146100985780637e490a9e146100cc578063b15195ed146100e8578063c849a2a6146100f2575b600080fd5b6100b260048036038101906100ad9190610af7565b6101bf565b6040516100c3959493929190610bdb565b60405180910390f35b6100e660048036038101906100e19190610af7565b610312565b005b6100f06103eb565b005b6100fa61043b565b604051610108929190610c3c565b60405180910390f35b61012b60048036038101906101269190610aae565b6104de565b005b61014760048036038101906101429190610af7565b61056a565b6040516101549190610b9e565b60405180910390f35b610165610597565b604051610176959493929190610bdb565b60405180910390f35b6101876106d8565b604051610198959493929190610bdb565b60405180910390f35b6101a9610819565b6040516101b69190610bb9565b60405180910390f35b600a6020528060005260406000206000915090508060000180546101e290610d8a565b80601f016020809104026020016040519081016040528092919081815260200182805461020e90610d8a565b801561025b5780601f106102305761010080835404028352916020019161025b565b820191906000526020600020905b81548152906001019060200180831161023e57829003601f168201915b50505050509080600101805461027090610d8a565b80601f016020809104026020016040519081016040528092919081815260200182805461029c90610d8a565b80156102e95780601f106102be576101008083540402835291602001916102e9565b820191906000526020600020905b8154815290600101906020018083116102cc57829003601f168201915b5050505050908060020154908060030160009054906101000a900460ff16908060040154905085565b6001600a6000838152602001908152602001600020600401541415610361576000600a600083815260200190815260200160002060030160006101000a81548160ff0219169083151502179055505b6000600a600083815260200190815260200160002060040154116103ba576040517f08c379a00000000000000000000000000000000000000000000000000000000081526004016103b190610c6c565b60405180910390fd5b6001600a600083815260200190815260200160002060040160008282546103e19190610cfe565b9250508190555050565b6040518060400160405280600881526020017f6d79207469746c650000000000000000000000000000000000000000000000008152506000800190805190602001906104389291906108ad565b50565b60606000600560000160056002015481805461045690610d8a565b80601f016020809104026020016040519081016040528092919081815260200182805461048290610d8a565b80156104cf5780601f106104a4576101008083540402835291602001916104cf565b820191906000526020600020905b8154815290600101906020018083116104b257829003601f168201915b50505050509150915091509091565b80600a60008360400151815260200190815260200160002060008201518160000190805190602001906105129291906108ad565b50602082015181600101908051906020019061052f9291906108ad565b506040820151816002015560608201518160030160006101000a81548160ff0219169083151502179055506080820151816004015590505050565b6000600a600083815260200190815260200160002060030160009054906101000a900460ff169050919050565b60058060000180546105a890610d8a565b80601f01602080910402602001604051908101604052809291908181526020018280546105d490610d8a565b80156106215780601f106105f657610100808354040283529160200191610621565b820191906000526020600020905b81548152906001019060200180831161060457829003601f168201915b50505050509080600101805461063690610d8a565b80601f016020809104026020016040519081016040528092919081815260200182805461066290610d8a565b80156106af5780601f10610684576101008083540402835291602001916106af565b820191906000526020600020905b81548152906001019060200180831161069257829003601f168201915b5050505050908060020154908060030160009054906101000a900460ff16908060040154905085565b60008060000180546106e990610d8a565b80601f016020809104026020016040519081016040528092919081815260200182805461071590610d8a565b80156107625780601f1061073757610100808354040283529160200191610762565b820191906000526020600020905b81548152906001019060200180831161074557829003601f168201915b50505050509080600101805461077790610d8a565b80601f01602080910402602001604051908101604052809291908181526020018280546107a390610d8a565b80156107f05780601f106107c5576101008083540402835291602001916107f0565b820191906000526020600020905b8154815290600101906020018083116107d357829003601f168201915b5050505050908060020154908060030160009054906101000a900460ff16908060040154905085565b606060008001805461082a90610d8a565b80601f016020809104026020016040519081016040528092919081815260200182805461085690610d8a565b80156108a35780601f10610878576101008083540402835291602001916108a3565b820191906000526020600020905b81548152906001019060200180831161088657829003601f168201915b5050505050905090565b8280546108b990610d8a565b90600052602060002090601f0160209004810192826108db5760008555610922565b82601f106108f457805160ff1916838001178555610922565b82800160010185558215610922579182015b82811115610921578251825591602001919060010190610906565b5b50905061092f9190610933565b5090565b5b8082111561094c576000816000905550600101610934565b5090565b600061096361095e84610cb1565b610c8c565b90508281526020810184848401111561097f5761097e610e89565b5b61098a848285610d48565b509392505050565b6000813590506109a181610ed2565b92915050565b600082601f8301126109bc576109bb610e7a565b5b81356109cc848260208601610950565b91505092915050565b600060a082840312156109eb576109ea610e7f565b5b6109f560a0610c8c565b9050600082013567ffffffffffffffff811115610a1557610a14610e84565b5b610a21848285016109a7565b600083015250602082013567ffffffffffffffff811115610a4557610a44610e84565b5b610a51848285016109a7565b6020830152506040610a6584828501610a99565b6040830152506060610a7984828501610992565b6060830152506080610a8d84828501610a99565b60808301525092915050565b600081359050610aa881610ee9565b92915050565b600060208284031215610ac457610ac3610e93565b5b600082013567ffffffffffffffff811115610ae257610ae1610e8e565b5b610aee848285016109d5565b91505092915050565b600060208284031215610b0d57610b0c610e93565b5b6000610b1b84828501610a99565b91505092915050565b610b2d81610d32565b82525050565b6000610b3e82610ce2565b610b488185610ced565b9350610b58818560208601610d57565b610b6181610e98565b840191505092915050565b6000610b79601f83610ced565b9150610b8482610ea9565b602082019050919050565b610b9881610d3e565b82525050565b6000602082019050610bb36000830184610b24565b92915050565b60006020820190508181036000830152610bd38184610b33565b905092915050565b600060a0820190508181036000830152610bf58188610b33565b90508181036020830152610c098187610b33565b9050610c186040830186610b8f565b610c256060830185610b24565b610c326080830184610b8f565b9695505050505050565b60006040820190508181036000830152610c568185610b33565b9050610c656020830184610b8f565b9392505050565b60006020820190508181036000830152610c8581610b6c565b9050919050565b6000610c96610ca7565b9050610ca28282610dbc565b919050565b6000604051905090565b600067ffffffffffffffff821115610ccc57610ccb610e4b565b5b610cd582610e98565b9050602081019050919050565b600081519050919050565b600082825260208201905092915050565b6000610d0982610d3e565b9150610d1483610d3e565b925082821015610d2757610d26610ded565b5b828203905092915050565b60008115159050919050565b6000819050919050565b82818337600083830152505050565b60005b83811015610d75578082015181840152602081019050610d5a565b83811115610d84576000848401525b50505050565b60006002820490506001821680610da257607f821691505b60208210811415610db657610db5610e1c565b5b50919050565b610dc582610e98565b810181811067ffffffffffffffff82111715610de457610de3610e4b565b5b80604052505050565b7f4e487b7100000000000000000000000000000000000000000000000000000000600052601160045260246000fd5b7f4e487b7100000000000000000000000000000000000000000000000000000000600052602260045260246000fd5b7f4e487b7100000000000000000000000000000000000000000000000000000000600052604160045260246000fd5b600080fd5b600080fd5b600080fd5b600080fd5b600080fd5b600080fd5b6000601f19601f8301169050919050565b7f5468657265206973206e6f206d6f726520626f6f6b7320696e2073746f636b00600082015250565b610edb81610d32565b8114610ee657600080fd5b50565b610ef281610d3e565b8114610efd57600080fd5b5056fea26469706673582212205160e4d1fc962fda2fea965ad98ee2b4f749248550d73c98b8faef822e283a5864736f6c63430008070033",
					"opcodes": "PUSH1 0x80 PUSH1 0x40 MSTORE PUSH1 0x40 MLOAD DUP1 PUSH1 0xA0 ADD PUSH1 0x40 MSTORE DUP1 PUSH1 0x40 MLOAD DUP1 PUSH1 0x40 ADD PUSH1 0x40 MSTORE DUP1 PUSH1 0xC DUP2 MSTORE PUSH1 0x20 ADD PUSH32 0x4E7565766F20746974756C6F0000000000000000000000000000000000000000 DUP2 MSTORE POP DUP2 MSTORE PUSH1 0x20 ADD PUSH1 0x40 MLOAD DUP1 PUSH1 0x40 ADD PUSH1 0x40 MSTORE DUP1 PUSH1 0x7 DUP2 MSTORE PUSH1 0x20 ADD PUSH32 0x526F647269676F00000000000000000000000000000000000000000000000000 DUP2 MSTORE POP DUP2 MSTORE PUSH1 0x20 ADD PUSH1 0x1 DUP2 MSTORE PUSH1 0x20 ADD PUSH1 0x1 ISZERO ISZERO DUP2 MSTORE PUSH1 0x20 ADD PUSH1 0x5 DUP2 MSTORE POP PUSH1 0x5 PUSH1 0x0 DUP3 ADD MLOAD DUP2 PUSH1 0x0 ADD SWAP1 DUP1 MLOAD SWAP1 PUSH1 0x20 ADD SWAP1 PUSH3 0xBA SWAP3 SWAP2 SWAP1 PUSH3 0x124 JUMP JUMPDEST POP PUSH1 0x20 DUP3 ADD MLOAD DUP2 PUSH1 0x1 ADD SWAP1 DUP1 MLOAD SWAP1 PUSH1 0x20 ADD SWAP1 PUSH3 0xD9 SWAP3 SWAP2 SWAP1 PUSH3 0x124 JUMP JUMPDEST POP PUSH1 0x40 DUP3 ADD MLOAD DUP2 PUSH1 0x2 ADD SSTORE PUSH1 0x60 DUP3 ADD MLOAD DUP2 PUSH1 0x3 ADD PUSH1 0x0 PUSH2 0x100 EXP DUP2 SLOAD DUP2 PUSH1 0xFF MUL NOT AND SWAP1 DUP4 ISZERO ISZERO MUL OR SWAP1 SSTORE POP PUSH1 0x80 DUP3 ADD MLOAD DUP2 PUSH1 0x4 ADD SSTORE POP POP CALLVALUE DUP1 ISZERO PUSH3 0x11D JUMPI PUSH1 0x0 DUP1 REVERT JUMPDEST POP PUSH3 0x239 JUMP JUMPDEST DUP3 DUP1 SLOAD PUSH3 0x132 SWAP1 PUSH3 0x1D4 JUMP JUMPDEST SWAP1 PUSH1 0x0 MSTORE PUSH1 0x20 PUSH1 0x0 KECCAK256 SWAP1 PUSH1 0x1F ADD PUSH1 0x20 SWAP1 DIV DUP2 ADD SWAP3 DUP3 PUSH3 0x156 JUMPI PUSH1 0x0 DUP6 SSTORE PUSH3 0x1A2 JUMP JUMPDEST DUP3 PUSH1 0x1F LT PUSH3 0x171 JUMPI DUP1 MLOAD PUSH1 0xFF NOT AND DUP4 DUP1 ADD OR DUP6 SSTORE PUSH3 0x1A2 JUMP JUMPDEST DUP3 DUP1 ADD PUSH1 0x1 ADD DUP6 SSTORE DUP3 ISZERO PUSH3 0x1A2 JUMPI SWAP2 DUP3 ADD JUMPDEST DUP3 DUP2 GT ISZERO PUSH3 0x1A1 JUMPI DUP3 MLOAD DUP3 SSTORE SWAP2 PUSH1 0x20 ADD SWAP2 SWAP1 PUSH1 0x1 ADD SWAP1 PUSH3 0x184 JUMP JUMPDEST JUMPDEST POP SWAP1 POP PUSH3 0x1B1 SWAP2 SWAP1 PUSH3 0x1B5 JUMP JUMPDEST POP SWAP1 JUMP JUMPDEST JUMPDEST DUP1 DUP3 GT ISZERO PUSH3 0x1D0 JUMPI PUSH1 0x0 DUP2 PUSH1 0x0 SWAP1 SSTORE POP PUSH1 0x1 ADD PUSH3 0x1B6 JUMP JUMPDEST POP SWAP1 JUMP JUMPDEST PUSH1 0x0 PUSH1 0x2 DUP3 DIV SWAP1 POP PUSH1 0x1 DUP3 AND DUP1 PUSH3 0x1ED JUMPI PUSH1 0x7F DUP3 AND SWAP2 POP JUMPDEST PUSH1 0x20 DUP3 LT DUP2 EQ ISZERO PUSH3 0x204 JUMPI PUSH3 0x203 PUSH3 0x20A JUMP JUMPDEST JUMPDEST POP SWAP2 SWAP1 POP JUMP JUMPDEST PUSH32 0x4E487B7100000000000000000000000000000000000000000000000000000000 PUSH1 0x0 MSTORE PUSH1 0x22 PUSH1 0x4 MSTORE PUSH1 0x24 PUSH1 0x0 REVERT JUMPDEST PUSH2 0xF36 DUP1 PUSH3 0x249 PUSH1 0x0 CODECOPY PUSH1 0x0 RETURN INVALID PUSH1 0x80 PUSH1 0x40 MSTORE CALLVALUE DUP1 ISZERO PUSH2 0x10 JUMPI PUSH1 0x0 DUP1 REVERT JUMPDEST POP PUSH1 0x4 CALLDATASIZE LT PUSH2 0x93 JUMPI PUSH1 0x0 CALLDATALOAD PUSH1 0xE0 SHR DUP1 PUSH4 0xCAD4A2DF GT PUSH2 0x66 JUMPI DUP1 PUSH4 0xCAD4A2DF EQ PUSH2 0x111 JUMPI DUP1 PUSH4 0xE0FF5B8B EQ PUSH2 0x12D JUMPI DUP1 PUSH4 0xE815FE1D EQ PUSH2 0x15D JUMPI DUP1 PUSH4 0xFB6A8FCC EQ PUSH2 0x17F JUMPI DUP1 PUSH4 0xFF3C1A8F EQ PUSH2 0x1A1 JUMPI PUSH2 0x93 JUMP JUMPDEST DUP1 PUSH4 0x2B07630B EQ PUSH2 0x98 JUMPI DUP1 PUSH4 0x7E490A9E EQ PUSH2 0xCC JUMPI DUP1 PUSH4 0xB15195ED EQ PUSH2 0xE8 JUMPI DUP1 PUSH4 0xC849A2A6 EQ PUSH2 0xF2 JUMPI JUMPDEST PUSH1 0x0 DUP1 REVERT JUMPDEST PUSH2 0xB2 PUSH1 0x4 DUP1 CALLDATASIZE SUB DUP2 ADD SWAP1 PUSH2 0xAD SWAP2 SWAP1 PUSH2 0xAF7 JUMP JUMPDEST PUSH2 0x1BF JUMP JUMPDEST PUSH1 0x40 MLOAD PUSH2 0xC3 SWAP6 SWAP5 SWAP4 SWAP3 SWAP2 SWAP1 PUSH2 0xBDB JUMP JUMPDEST PUSH1 0x40 MLOAD DUP1 SWAP2 SUB SWAP1 RETURN JUMPDEST PUSH2 0xE6 PUSH1 0x4 DUP1 CALLDATASIZE SUB DUP2 ADD SWAP1 PUSH2 0xE1 SWAP2 SWAP1 PUSH2 0xAF7 JUMP JUMPDEST PUSH2 0x312 JUMP JUMPDEST STOP JUMPDEST PUSH2 0xF0 PUSH2 0x3EB JUMP JUMPDEST STOP JUMPDEST PUSH2 0xFA PUSH2 0x43B JUMP JUMPDEST PUSH1 0x40 MLOAD PUSH2 0x108 SWAP3 SWAP2 SWAP1 PUSH2 0xC3C JUMP JUMPDEST PUSH1 0x40 MLOAD DUP1 SWAP2 SUB SWAP1 RETURN JUMPDEST PUSH2 0x12B PUSH1 0x4 DUP1 CALLDATASIZE SUB DUP2 ADD SWAP1 PUSH2 0x126 SWAP2 SWAP1 PUSH2 0xAAE JUMP JUMPDEST PUSH2 0x4DE JUMP JUMPDEST STOP JUMPDEST PUSH2 0x147 PUSH1 0x4 DUP1 CALLDATASIZE SUB DUP2 ADD SWAP1 PUSH2 0x142 SWAP2 SWAP1 PUSH2 0xAF7 JUMP JUMPDEST PUSH2 0x56A JUMP JUMPDEST PUSH1 0x40 MLOAD PUSH2 0x154 SWAP2 SWAP1 PUSH2 0xB9E JUMP JUMPDEST PUSH1 0x40 MLOAD DUP1 SWAP2 SUB SWAP1 RETURN JUMPDEST PUSH2 0x165 PUSH2 0x597 JUMP JUMPDEST PUSH1 0x40 MLOAD PUSH2 0x176 SWAP6 SWAP5 SWAP4 SWAP3 SWAP2 SWAP1 PUSH2 0xBDB JUMP JUMPDEST PUSH1 0x40 MLOAD DUP1 SWAP2 SUB SWAP1 RETURN JUMPDEST PUSH2 0x187 PUSH2 0x6D8 JUMP JUMPDEST PUSH1 0x40 MLOAD PUSH2 0x198 SWAP6 SWAP5 SWAP4 SWAP3 SWAP2 SWAP1 PUSH2 0xBDB JUMP JUMPDEST PUSH1 0x40 MLOAD DUP1 SWAP2 SUB SWAP1 RETURN JUMPDEST PUSH2 0x1A9 PUSH2 0x819 JUMP JUMPDEST PUSH1 0x40 MLOAD PUSH2 0x1B6 SWAP2 SWAP1 PUSH2 0xBB9 JUMP JUMPDEST PUSH1 0x40 MLOAD DUP1 SWAP2 SUB SWAP1 RETURN JUMPDEST PUSH1 0xA PUSH1 0x20 MSTORE DUP1 PUSH1 0x0 MSTORE PUSH1 0x40 PUSH1 0x0 KECCAK256 PUSH1 0x0 SWAP2 POP SWAP1 POP DUP1 PUSH1 0x0 ADD DUP1 SLOAD PUSH2 0x1E2 SWAP1 PUSH2 0xD8A JUMP JUMPDEST DUP1 PUSH1 0x1F ADD PUSH1 0x20 DUP1 SWAP2 DIV MUL PUSH1 0x20 ADD PUSH1 0x40 MLOAD SWAP1 DUP2 ADD PUSH1 0x40 MSTORE DUP1 SWAP3 SWAP2 SWAP1 DUP2 DUP2 MSTORE PUSH1 0x20 ADD DUP3 DUP1 SLOAD PUSH2 0x20E SWAP1 PUSH2 0xD8A JUMP JUMPDEST DUP1 ISZERO PUSH2 0x25B JUMPI DUP1 PUSH1 0x1F LT PUSH2 0x230 JUMPI PUSH2 0x100 DUP1 DUP4 SLOAD DIV MUL DUP4 MSTORE SWAP2 PUSH1 0x20 ADD SWAP2 PUSH2 0x25B JUMP JUMPDEST DUP3 ADD SWAP2 SWAP1 PUSH1 0x0 MSTORE PUSH1 0x20 PUSH1 0x0 KECCAK256 SWAP1 JUMPDEST DUP2 SLOAD DUP2 MSTORE SWAP1 PUSH1 0x1 ADD SWAP1 PUSH1 0x20 ADD DUP1 DUP4 GT PUSH2 0x23E JUMPI DUP3 SWAP1 SUB PUSH1 0x1F AND DUP3 ADD SWAP2 JUMPDEST POP POP POP POP POP SWAP1 DUP1 PUSH1 0x1 ADD DUP1 SLOAD PUSH2 0x270 SWAP1 PUSH2 0xD8A JUMP JUMPDEST DUP1 PUSH1 0x1F ADD PUSH1 0x20 DUP1 SWAP2 DIV MUL PUSH1 0x20 ADD PUSH1 0x40 MLOAD SWAP1 DUP2 ADD PUSH1 0x40 MSTORE DUP1 SWAP3 SWAP2 SWAP1 DUP2 DUP2 MSTORE PUSH1 0x20 ADD DUP3 DUP1 SLOAD PUSH2 0x29C SWAP1 PUSH2 0xD8A JUMP JUMPDEST DUP1 ISZERO PUSH2 0x2E9 JUMPI DUP1 PUSH1 0x1F LT PUSH2 0x2BE JUMPI PUSH2 0x100 DUP1 DUP4 SLOAD DIV MUL DUP4 MSTORE SWAP2 PUSH1 0x20 ADD SWAP2 PUSH2 0x2E9 JUMP JUMPDEST DUP3 ADD SWAP2 SWAP1 PUSH1 0x0 MSTORE PUSH1 0x20 PUSH1 0x0 KECCAK256 SWAP1 JUMPDEST DUP2 SLOAD DUP2 MSTORE SWAP1 PUSH1 0x1 ADD SWAP1 PUSH1 0x20 ADD DUP1 DUP4 GT PUSH2 0x2CC JUMPI DUP3 SWAP1 SUB PUSH1 0x1F AND DUP3 ADD SWAP2 JUMPDEST POP POP POP POP POP SWAP1 DUP1 PUSH1 0x2 ADD SLOAD SWAP1 DUP1 PUSH1 0x3 ADD PUSH1 0x0 SWAP1 SLOAD SWAP1 PUSH2 0x100 EXP SWAP1 DIV PUSH1 0xFF AND SWAP1 DUP1 PUSH1 0x4 ADD SLOAD SWAP1 POP DUP6 JUMP JUMPDEST PUSH1 0x1 PUSH1 0xA PUSH1 0x0 DUP4 DUP2 MSTORE PUSH1 0x20 ADD SWAP1 DUP2 MSTORE PUSH1 0x20 ADD PUSH1 0x0 KECCAK256 PUSH1 0x4 ADD SLOAD EQ ISZERO PUSH2 0x361 JUMPI PUSH1 0x0 PUSH1 0xA PUSH1 0x0 DUP4 DUP2 MSTORE PUSH1 0x20 ADD SWAP1 DUP2 MSTORE PUSH1 0x20 ADD PUSH1 0x0 KECCAK256 PUSH1 0x3 ADD PUSH1 0x0 PUSH2 0x100 EXP DUP2 SLOAD DUP2 PUSH1 0xFF MUL NOT AND SWAP1 DUP4 ISZERO ISZERO MUL OR SWAP1 SSTORE POP JUMPDEST PUSH1 0x0 PUSH1 0xA PUSH1 0x0 DUP4 DUP2 MSTORE PUSH1 0x20 ADD SWAP1 DUP2 MSTORE PUSH1 0x20 ADD PUSH1 0x0 KECCAK256 PUSH1 0x4 ADD SLOAD GT PUSH2 0x3BA JUMPI PUSH1 0x40 MLOAD PUSH32 0x8C379A000000000000000000000000000000000000000000000000000000000 DUP2 MSTORE PUSH1 0x4 ADD PUSH2 0x3B1 SWAP1 PUSH2 0xC6C JUMP JUMPDEST PUSH1 0x40 MLOAD DUP1 SWAP2 SUB SWAP1 REVERT JUMPDEST PUSH1 0x1 PUSH1 0xA PUSH1 0x0 DUP4 DUP2 MSTORE PUSH1 0x20 ADD SWAP1 DUP2 MSTORE PUSH1 0x20 ADD PUSH1 0x0 KECCAK256 PUSH1 0x4 ADD PUSH1 0x0 DUP3 DUP3 SLOAD PUSH2 0x3E1 SWAP2 SWAP1 PUSH2 0xCFE JUMP JUMPDEST SWAP3 POP POP DUP2 SWAP1 SSTORE POP POP JUMP JUMPDEST PUSH1 0x40 MLOAD DUP1 PUSH1 0x40 ADD PUSH1 0x40 MSTORE DUP1 PUSH1 0x8 DUP2 MSTORE PUSH1 0x20 ADD PUSH32 0x6D79207469746C65000000000000000000000000000000000000000000000000 DUP2 MSTORE POP PUSH1 0x0 DUP1 ADD SWAP1 DUP1 MLOAD SWAP1 PUSH1 0x20 ADD SWAP1 PUSH2 0x438 SWAP3 SWAP2 SWAP1 PUSH2 0x8AD JUMP JUMPDEST POP JUMP JUMPDEST PUSH1 0x60 PUSH1 0x0 PUSH1 0x5 PUSH1 0x0 ADD PUSH1 0x5 PUSH1 0x2 ADD SLOAD DUP2 DUP1 SLOAD PUSH2 0x456 SWAP1 PUSH2 0xD8A JUMP JUMPDEST DUP1 PUSH1 0x1F ADD PUSH1 0x20 DUP1 SWAP2 DIV MUL PUSH1 0x20 ADD PUSH1 0x40 MLOAD SWAP1 DUP2 ADD PUSH1 0x40 MSTORE DUP1 SWAP3 SWAP2 SWAP1 DUP2 DUP2 MSTORE PUSH1 0x20 ADD DUP3 DUP1 SLOAD PUSH2 0x482 SWAP1 PUSH2 0xD8A JUMP JUMPDEST DUP1 ISZERO PUSH2 0x4CF JUMPI DUP1 PUSH1 0x1F LT PUSH2 0x4A4 JUMPI PUSH2 0x100 DUP1 DUP4 SLOAD DIV MUL DUP4 MSTORE SWAP2 PUSH1 0x20 ADD SWAP2 PUSH2 0x4CF JUMP JUMPDEST DUP3 ADD SWAP2 SWAP1 PUSH1 0x0 MSTORE PUSH1 0x20 PUSH1 0x0 KECCAK256 SWAP1 JUMPDEST DUP2 SLOAD DUP2 MSTORE SWAP1 PUSH1 0x1 ADD SWAP1 PUSH1 0x20 ADD DUP1 DUP4 GT PUSH2 0x4B2 JUMPI DUP3 SWAP1 SUB PUSH1 0x1F AND DUP3 ADD SWAP2 JUMPDEST POP POP POP POP POP SWAP2 POP SWAP2 POP SWAP2 POP SWAP1 SWAP2 JUMP JUMPDEST DUP1 PUSH1 0xA PUSH1 0x0 DUP4 PUSH1 0x40 ADD MLOAD DUP2 MSTORE PUSH1 0x20 ADD SWAP1 DUP2 MSTORE PUSH1 0x20 ADD PUSH1 0x0 KECCAK256 PUSH1 0x0 DUP3 ADD MLOAD DUP2 PUSH1 0x0 ADD SWAP1 DUP1 MLOAD SWAP1 PUSH1 0x20 ADD SWAP1 PUSH2 0x512 SWAP3 SWAP2 SWAP1 PUSH2 0x8AD JUMP JUMPDEST POP PUSH1 0x20 DUP3 ADD MLOAD DUP2 PUSH1 0x1 ADD SWAP1 DUP1 MLOAD SWAP1 PUSH1 0x20 ADD SWAP1 PUSH2 0x52F SWAP3 SWAP2 SWAP1 PUSH2 0x8AD JUMP JUMPDEST POP PUSH1 0x40 DUP3 ADD MLOAD DUP2 PUSH1 0x2 ADD SSTORE PUSH1 0x60 DUP3 ADD MLOAD DUP2 PUSH1 0x3 ADD PUSH1 0x0 PUSH2 0x100 EXP DUP2 SLOAD DUP2 PUSH1 0xFF MUL NOT AND SWAP1 DUP4 ISZERO ISZERO MUL OR SWAP1 SSTORE POP PUSH1 0x80 DUP3 ADD MLOAD DUP2 PUSH1 0x4 ADD SSTORE SWAP1 POP POP POP JUMP JUMPDEST PUSH1 0x0 PUSH1 0xA PUSH1 0x0 DUP4 DUP2 MSTORE PUSH1 0x20 ADD SWAP1 DUP2 MSTORE PUSH1 0x20 ADD PUSH1 0x0 KECCAK256 PUSH1 0x3 ADD PUSH1 0x0 SWAP1 SLOAD SWAP1 PUSH2 0x100 EXP SWAP1 DIV PUSH1 0xFF AND SWAP1 POP SWAP2 SWAP1 POP JUMP JUMPDEST PUSH1 0x5 DUP1 PUSH1 0x0 ADD DUP1 SLOAD PUSH2 0x5A8 SWAP1 PUSH2 0xD8A JUMP JUMPDEST DUP1 PUSH1 0x1F ADD PUSH1 0x20 DUP1 SWAP2 DIV MUL PUSH1 0x20 ADD PUSH1 0x40 MLOAD SWAP1 DUP2 ADD PUSH1 0x40 MSTORE DUP1 SWAP3 SWAP2 SWAP1 DUP2 DUP2 MSTORE PUSH1 0x20 ADD DUP3 DUP1 SLOAD PUSH2 0x5D4 SWAP1 PUSH2 0xD8A JUMP JUMPDEST DUP1 ISZERO PUSH2 0x621 JUMPI DUP1 PUSH1 0x1F LT PUSH2 0x5F6 JUMPI PUSH2 0x100 DUP1 DUP4 SLOAD DIV MUL DUP4 MSTORE SWAP2 PUSH1 0x20 ADD SWAP2 PUSH2 0x621 JUMP JUMPDEST DUP3 ADD SWAP2 SWAP1 PUSH1 0x0 MSTORE PUSH1 0x20 PUSH1 0x0 KECCAK256 SWAP1 JUMPDEST DUP2 SLOAD DUP2 MSTORE SWAP1 PUSH1 0x1 ADD SWAP1 PUSH1 0x20 ADD DUP1 DUP4 GT PUSH2 0x604 JUMPI DUP3 SWAP1 SUB PUSH1 0x1F AND DUP3 ADD SWAP2 JUMPDEST POP POP POP POP POP SWAP1 DUP1 PUSH1 0x1 ADD DUP1 SLOAD PUSH2 0x636 SWAP1 PUSH2 0xD8A JUMP JUMPDEST DUP1 PUSH1 0x1F ADD PUSH1 0x20 DUP1 SWAP2 DIV MUL PUSH1 0x20 ADD PUSH1 0x40 MLOAD SWAP1 DUP2 ADD PUSH1 0x40 MSTORE DUP1 SWAP3 SWAP2 SWAP1 DUP2 DUP2 MSTORE PUSH1 0x20 ADD DUP3 DUP1 SLOAD PUSH2 0x662 SWAP1 PUSH2 0xD8A JUMP JUMPDEST DUP1 ISZERO PUSH2 0x6AF JUMPI DUP1 PUSH1 0x1F LT PUSH2 0x684 JUMPI PUSH2 0x100 DUP1 DUP4 SLOAD DIV MUL DUP4 MSTORE SWAP2 PUSH1 0x20 ADD SWAP2 PUSH2 0x6AF JUMP JUMPDEST DUP3 ADD SWAP2 SWAP1 PUSH1 0x0 MSTORE PUSH1 0x20 PUSH1 0x0 KECCAK256 SWAP1 JUMPDEST DUP2 SLOAD DUP2 MSTORE SWAP1 PUSH1 0x1 ADD SWAP1 PUSH1 0x20 ADD DUP1 DUP4 GT PUSH2 0x692 JUMPI DUP3 SWAP1 SUB PUSH1 0x1F AND DUP3 ADD SWAP2 JUMPDEST POP POP POP POP POP SWAP1 DUP1 PUSH1 0x2 ADD SLOAD SWAP1 DUP1 PUSH1 0x3 ADD PUSH1 0x0 SWAP1 SLOAD SWAP1 PUSH2 0x100 EXP SWAP1 DIV PUSH1 0xFF AND SWAP1 DUP1 PUSH1 0x4 ADD SLOAD SWAP1 POP DUP6 JUMP JUMPDEST PUSH1 0x0 DUP1 PUSH1 0x0 ADD DUP1 SLOAD PUSH2 0x6E9 SWAP1 PUSH2 0xD8A JUMP JUMPDEST DUP1 PUSH1 0x1F ADD PUSH1 0x20 DUP1 SWAP2 DIV MUL PUSH1 0x20 ADD PUSH1 0x40 MLOAD SWAP1 DUP2 ADD PUSH1 0x40 MSTORE DUP1 SWAP3 SWAP2 SWAP1 DUP2 DUP2 MSTORE PUSH1 0x20 ADD DUP3 DUP1 SLOAD PUSH2 0x715 SWAP1 PUSH2 0xD8A JUMP JUMPDEST DUP1 ISZERO PUSH2 0x762 JUMPI DUP1 PUSH1 0x1F LT PUSH2 0x737 JUMPI PUSH2 0x100 DUP1 DUP4 SLOAD DIV MUL DUP4 MSTORE SWAP2 PUSH1 0x20 ADD SWAP2 PUSH2 0x762 JUMP JUMPDEST DUP3 ADD SWAP2 SWAP1 PUSH1 0x0 MSTORE PUSH1 0x20 PUSH1 0x0 KECCAK256 SWAP1 JUMPDEST DUP2 SLOAD DUP2 MSTORE SWAP1 PUSH1 0x1 ADD SWAP1 PUSH1 0x20 ADD DUP1 DUP4 GT PUSH2 0x745 JUMPI DUP3 SWAP1 SUB PUSH1 0x1F AND DUP3 ADD SWAP2 JUMPDEST POP POP POP POP POP SWAP1 DUP1 PUSH1 0x1 ADD DUP1 SLOAD PUSH2 0x777 SWAP1 PUSH2 0xD8A JUMP JUMPDEST DUP1 PUSH1 0x1F ADD PUSH1 0x20 DUP1 SWAP2 DIV MUL PUSH1 0x20 ADD PUSH1 0x40 MLOAD SWAP1 DUP2 ADD PUSH1 0x40 MSTORE DUP1 SWAP3 SWAP2 SWAP1 DUP2 DUP2 MSTORE PUSH1 0x20 ADD DUP3 DUP1 SLOAD PUSH2 0x7A3 SWAP1 PUSH2 0xD8A JUMP JUMPDEST DUP1 ISZERO PUSH2 0x7F0 JUMPI DUP1 PUSH1 0x1F LT PUSH2 0x7C5 JUMPI PUSH2 0x100 DUP1 DUP4 SLOAD DIV MUL DUP4 MSTORE SWAP2 PUSH1 0x20 ADD SWAP2 PUSH2 0x7F0 JUMP JUMPDEST DUP3 ADD SWAP2 SWAP1 PUSH1 0x0 MSTORE PUSH1 0x20 PUSH1 0x0 KECCAK256 SWAP1 JUMPDEST DUP2 SLOAD DUP2 MSTORE SWAP1 PUSH1 0x1 ADD SWAP1 PUSH1 0x20 ADD DUP1 DUP4 GT PUSH2 0x7D3 JUMPI DUP3 SWAP1 SUB PUSH1 0x1F AND DUP3 ADD SWAP2 JUMPDEST POP POP POP POP POP SWAP1 DUP1 PUSH1 0x2 ADD SLOAD SWAP1 DUP1 PUSH1 0x3 ADD PUSH1 0x0 SWAP1 SLOAD SWAP1 PUSH2 0x100 EXP SWAP1 DIV PUSH1 0xFF AND SWAP1 DUP1 PUSH1 0x4 ADD SLOAD SWAP1 POP DUP6 JUMP JUMPDEST PUSH1 0x60 PUSH1 0x0 DUP1 ADD DUP1 SLOAD PUSH2 0x82A SWAP1 PUSH2 0xD8A JUMP JUMPDEST DUP1 PUSH1 0x1F ADD PUSH1 0x20 DUP1 SWAP2 DIV MUL PUSH1 0x20 ADD PUSH1 0x40 MLOAD SWAP1 DUP2 ADD PUSH1 0x40 MSTORE DUP1 SWAP3 SWAP2 SWAP1 DUP2 DUP2 MSTORE PUSH1 0x20 ADD DUP3 DUP1 SLOAD PUSH2 0x856 SWAP1 PUSH2 0xD8A JUMP JUMPDEST DUP1 ISZERO PUSH2 0x8A3 JUMPI DUP1 PUSH1 0x1F LT PUSH2 0x878 JUMPI PUSH2 0x100 DUP1 DUP4 SLOAD DIV MUL DUP4 MSTORE SWAP2 PUSH1 0x20 ADD SWAP2 PUSH2 0x8A3 JUMP JUMPDEST DUP3 ADD SWAP2 SWAP1 PUSH1 0x0 MSTORE PUSH1 0x20 PUSH1 0x0 KECCAK256 SWAP1 JUMPDEST DUP2 SLOAD DUP2 MSTORE SWAP1 PUSH1 0x1 ADD SWAP1 PUSH1 0x20 ADD DUP1 DUP4 GT PUSH2 0x886 JUMPI DUP3 SWAP1 SUB PUSH1 0x1F AND DUP3 ADD SWAP2 JUMPDEST POP POP POP POP POP SWAP1 POP SWAP1 JUMP JUMPDEST DUP3 DUP1 SLOAD PUSH2 0x8B9 SWAP1 PUSH2 0xD8A JUMP JUMPDEST SWAP1 PUSH1 0x0 MSTORE PUSH1 0x20 PUSH1 0x0 KECCAK256 SWAP1 PUSH1 0x1F ADD PUSH1 0x20 SWAP1 DIV DUP2 ADD SWAP3 DUP3 PUSH2 0x8DB JUMPI PUSH1 0x0 DUP6 SSTORE PUSH2 0x922 JUMP JUMPDEST DUP3 PUSH1 0x1F LT PUSH2 0x8F4 JUMPI DUP1 MLOAD PUSH1 0xFF NOT AND DUP4 DUP1 ADD OR DUP6 SSTORE PUSH2 0x922 JUMP JUMPDEST DUP3 DUP1 ADD PUSH1 0x1 ADD DUP6 SSTORE DUP3 ISZERO PUSH2 0x922 JUMPI SWAP2 DUP3 ADD JUMPDEST DUP3 DUP2 GT ISZERO PUSH2 0x921 JUMPI DUP3 MLOAD DUP3 SSTORE SWAP2 PUSH1 0x20 ADD SWAP2 SWAP1 PUSH1 0x1 ADD SWAP1 PUSH2 0x906 JUMP JUMPDEST JUMPDEST POP SWAP1 POP PUSH2 0x92F SWAP2 SWAP1 PUSH2 0x933 JUMP JUMPDEST POP SWAP1 JUMP JUMPDEST JUMPDEST DUP1 DUP3 GT ISZERO PUSH2 0x94C JUMPI PUSH1 0x0 DUP2 PUSH1 0x0 SWAP1 SSTORE POP PUSH1 0x1 ADD PUSH2 0x934 JUMP JUMPDEST POP SWAP1 JUMP JUMPDEST PUSH1 0x0 PUSH2 0x963 PUSH2 0x95E DUP5 PUSH2 0xCB1 JUMP JUMPDEST PUSH2 0xC8C JUMP JUMPDEST SWAP1 POP DUP3 DUP2 MSTORE PUSH1 0x20 DUP2 ADD DUP5 DUP5 DUP5 ADD GT ISZERO PUSH2 0x97F JUMPI PUSH2 0x97E PUSH2 0xE89 JUMP JUMPDEST JUMPDEST PUSH2 0x98A DUP5 DUP3 DUP6 PUSH2 0xD48 JUMP JUMPDEST POP SWAP4 SWAP3 POP POP POP JUMP JUMPDEST PUSH1 0x0 DUP2 CALLDATALOAD SWAP1 POP PUSH2 0x9A1 DUP2 PUSH2 0xED2 JUMP JUMPDEST SWAP3 SWAP2 POP POP JUMP JUMPDEST PUSH1 0x0 DUP3 PUSH1 0x1F DUP4 ADD SLT PUSH2 0x9BC JUMPI PUSH2 0x9BB PUSH2 0xE7A JUMP JUMPDEST JUMPDEST DUP2 CALLDATALOAD PUSH2 0x9CC DUP5 DUP3 PUSH1 0x20 DUP7 ADD PUSH2 0x950 JUMP JUMPDEST SWAP2 POP POP SWAP3 SWAP2 POP POP JUMP JUMPDEST PUSH1 0x0 PUSH1 0xA0 DUP3 DUP5 SUB SLT ISZERO PUSH2 0x9EB JUMPI PUSH2 0x9EA PUSH2 0xE7F JUMP JUMPDEST JUMPDEST PUSH2 0x9F5 PUSH1 0xA0 PUSH2 0xC8C JUMP JUMPDEST SWAP1 POP PUSH1 0x0 DUP3 ADD CALLDATALOAD PUSH8 0xFFFFFFFFFFFFFFFF DUP2 GT ISZERO PUSH2 0xA15 JUMPI PUSH2 0xA14 PUSH2 0xE84 JUMP JUMPDEST JUMPDEST PUSH2 0xA21 DUP5 DUP3 DUP6 ADD PUSH2 0x9A7 JUMP JUMPDEST PUSH1 0x0 DUP4 ADD MSTORE POP PUSH1 0x20 DUP3 ADD CALLDATALOAD PUSH8 0xFFFFFFFFFFFFFFFF DUP2 GT ISZERO PUSH2 0xA45 JUMPI PUSH2 0xA44 PUSH2 0xE84 JUMP JUMPDEST JUMPDEST PUSH2 0xA51 DUP5 DUP3 DUP6 ADD PUSH2 0x9A7 JUMP JUMPDEST PUSH1 0x20 DUP4 ADD MSTORE POP PUSH1 0x40 PUSH2 0xA65 DUP5 DUP3 DUP6 ADD PUSH2 0xA99 JUMP JUMPDEST PUSH1 0x40 DUP4 ADD MSTORE POP PUSH1 0x60 PUSH2 0xA79 DUP5 DUP3 DUP6 ADD PUSH2 0x992 JUMP JUMPDEST PUSH1 0x60 DUP4 ADD MSTORE POP PUSH1 0x80 PUSH2 0xA8D DUP5 DUP3 DUP6 ADD PUSH2 0xA99 JUMP JUMPDEST PUSH1 0x80 DUP4 ADD MSTORE POP SWAP3 SWAP2 POP POP JUMP JUMPDEST PUSH1 0x0 DUP2 CALLDATALOAD SWAP1 POP PUSH2 0xAA8 DUP2 PUSH2 0xEE9 JUMP JUMPDEST SWAP3 SWAP2 POP POP JUMP JUMPDEST PUSH1 0x0 PUSH1 0x20 DUP3 DUP5 SUB SLT ISZERO PUSH2 0xAC4 JUMPI PUSH2 0xAC3 PUSH2 0xE93 JUMP JUMPDEST JUMPDEST PUSH1 0x0 DUP3 ADD CALLDATALOAD PUSH8 0xFFFFFFFFFFFFFFFF DUP2 GT ISZERO PUSH2 0xAE2 JUMPI PUSH2 0xAE1 PUSH2 0xE8E JUMP JUMPDEST JUMPDEST PUSH2 0xAEE DUP5 DUP3 DUP6 ADD PUSH2 0x9D5 JUMP JUMPDEST SWAP2 POP POP SWAP3 SWAP2 POP POP JUMP JUMPDEST PUSH1 0x0 PUSH1 0x20 DUP3 DUP5 SUB SLT ISZERO PUSH2 0xB0D JUMPI PUSH2 0xB0C PUSH2 0xE93 JUMP JUMPDEST JUMPDEST PUSH1 0x0 PUSH2 0xB1B DUP5 DUP3 DUP6 ADD PUSH2 0xA99 JUMP JUMPDEST SWAP2 POP POP SWAP3 SWAP2 POP POP JUMP JUMPDEST PUSH2 0xB2D DUP2 PUSH2 0xD32 JUMP JUMPDEST DUP3 MSTORE POP POP JUMP JUMPDEST PUSH1 0x0 PUSH2 0xB3E DUP3 PUSH2 0xCE2 JUMP JUMPDEST PUSH2 0xB48 DUP2 DUP6 PUSH2 0xCED JUMP JUMPDEST SWAP4 POP PUSH2 0xB58 DUP2 DUP6 PUSH1 0x20 DUP7 ADD PUSH2 0xD57 JUMP JUMPDEST PUSH2 0xB61 DUP2 PUSH2 0xE98 JUMP JUMPDEST DUP5 ADD SWAP2 POP POP SWAP3 SWAP2 POP POP JUMP JUMPDEST PUSH1 0x0 PUSH2 0xB79 PUSH1 0x1F DUP4 PUSH2 0xCED JUMP JUMPDEST SWAP2 POP PUSH2 0xB84 DUP3 PUSH2 0xEA9 JUMP JUMPDEST PUSH1 0x20 DUP3 ADD SWAP1 POP SWAP2 SWAP1 POP JUMP JUMPDEST PUSH2 0xB98 DUP2 PUSH2 0xD3E JUMP JUMPDEST DUP3 MSTORE POP POP JUMP JUMPDEST PUSH1 0x0 PUSH1 0x20 DUP3 ADD SWAP1 POP PUSH2 0xBB3 PUSH1 0x0 DUP4 ADD DUP5 PUSH2 0xB24 JUMP JUMPDEST SWAP3 SWAP2 POP POP JUMP JUMPDEST PUSH1 0x0 PUSH1 0x20 DUP3 ADD SWAP1 POP DUP2 DUP2 SUB PUSH1 0x0 DUP4 ADD MSTORE PUSH2 0xBD3 DUP2 DUP5 PUSH2 0xB33 JUMP JUMPDEST SWAP1 POP SWAP3 SWAP2 POP POP JUMP JUMPDEST PUSH1 0x0 PUSH1 0xA0 DUP3 ADD SWAP1 POP DUP2 DUP2 SUB PUSH1 0x0 DUP4 ADD MSTORE PUSH2 0xBF5 DUP2 DUP9 PUSH2 0xB33 JUMP JUMPDEST SWAP1 POP DUP2 DUP2 SUB PUSH1 0x20 DUP4 ADD MSTORE PUSH2 0xC09 DUP2 DUP8 PUSH2 0xB33 JUMP JUMPDEST SWAP1 POP PUSH2 0xC18 PUSH1 0x40 DUP4 ADD DUP7 PUSH2 0xB8F JUMP JUMPDEST PUSH2 0xC25 PUSH1 0x60 DUP4 ADD DUP6 PUSH2 0xB24 JUMP JUMPDEST PUSH2 0xC32 PUSH1 0x80 DUP4 ADD DUP5 PUSH2 0xB8F JUMP JUMPDEST SWAP7 SWAP6 POP POP POP POP POP POP JUMP JUMPDEST PUSH1 0x0 PUSH1 0x40 DUP3 ADD SWAP1 POP DUP2 DUP2 SUB PUSH1 0x0 DUP4 ADD MSTORE PUSH2 0xC56 DUP2 DUP6 PUSH2 0xB33 JUMP JUMPDEST SWAP1 POP PUSH2 0xC65 PUSH1 0x20 DUP4 ADD DUP5 PUSH2 0xB8F JUMP JUMPDEST SWAP4 SWAP3 POP POP POP JUMP JUMPDEST PUSH1 0x0 PUSH1 0x20 DUP3 ADD SWAP1 POP DUP2 DUP2 SUB PUSH1 0x0 DUP4 ADD MSTORE PUSH2 0xC85 DUP2 PUSH2 0xB6C JUMP JUMPDEST SWAP1 POP SWAP2 SWAP1 POP JUMP JUMPDEST PUSH1 0x0 PUSH2 0xC96 PUSH2 0xCA7 JUMP JUMPDEST SWAP1 POP PUSH2 0xCA2 DUP3 DUP3 PUSH2 0xDBC JUMP JUMPDEST SWAP2 SWAP1 POP JUMP JUMPDEST PUSH1 0x0 PUSH1 0x40 MLOAD SWAP1 POP SWAP1 JUMP JUMPDEST PUSH1 0x0 PUSH8 0xFFFFFFFFFFFFFFFF DUP3 GT ISZERO PUSH2 0xCCC JUMPI PUSH2 0xCCB PUSH2 0xE4B JUMP JUMPDEST JUMPDEST PUSH2 0xCD5 DUP3 PUSH2 0xE98 JUMP JUMPDEST SWAP1 POP PUSH1 0x20 DUP2 ADD SWAP1 POP SWAP2 SWAP1 POP JUMP JUMPDEST PUSH1 0x0 DUP2 MLOAD SWAP1 POP SWAP2 SWAP1 POP JUMP JUMPDEST PUSH1 0x0 DUP3 DUP3 MSTORE PUSH1 0x20 DUP3 ADD SWAP1 POP SWAP3 SWAP2 POP POP JUMP JUMPDEST PUSH1 0x0 PUSH2 0xD09 DUP3 PUSH2 0xD3E JUMP JUMPDEST SWAP2 POP PUSH2 0xD14 DUP4 PUSH2 0xD3E JUMP JUMPDEST SWAP3 POP DUP3 DUP3 LT ISZERO PUSH2 0xD27 JUMPI PUSH2 0xD26 PUSH2 0xDED JUMP JUMPDEST JUMPDEST DUP3 DUP3 SUB SWAP1 POP SWAP3 SWAP2 POP POP JUMP JUMPDEST PUSH1 0x0 DUP2 ISZERO ISZERO SWAP1 POP SWAP2 SWAP1 POP JUMP JUMPDEST PUSH1 0x0 DUP2 SWAP1 POP SWAP2 SWAP1 POP JUMP JUMPDEST DUP3 DUP2 DUP4 CALLDATACOPY PUSH1 0x0 DUP4 DUP4 ADD MSTORE POP POP POP JUMP JUMPDEST PUSH1 0x0 JUMPDEST DUP4 DUP2 LT ISZERO PUSH2 0xD75 JUMPI DUP1 DUP3 ADD MLOAD DUP2 DUP5 ADD MSTORE PUSH1 0x20 DUP2 ADD SWAP1 POP PUSH2 0xD5A JUMP JUMPDEST DUP4 DUP2 GT ISZERO PUSH2 0xD84 JUMPI PUSH1 0x0 DUP5 DUP5 ADD MSTORE JUMPDEST POP POP POP POP JUMP JUMPDEST PUSH1 0x0 PUSH1 0x2 DUP3 DIV SWAP1 POP PUSH1 0x1 DUP3 AND DUP1 PUSH2 0xDA2 JUMPI PUSH1 0x7F DUP3 AND SWAP2 POP JUMPDEST PUSH1 0x20 DUP3 LT DUP2 EQ ISZERO PUSH2 0xDB6 JUMPI PUSH2 0xDB5 PUSH2 0xE1C JUMP JUMPDEST JUMPDEST POP SWAP2 SWAP1 POP JUMP JUMPDEST PUSH2 0xDC5 DUP3 PUSH2 0xE98 JUMP JUMPDEST DUP2 ADD DUP2 DUP2 LT PUSH8 0xFFFFFFFFFFFFFFFF DUP3 GT OR ISZERO PUSH2 0xDE4 JUMPI PUSH2 0xDE3 PUSH2 0xE4B JUMP JUMPDEST JUMPDEST DUP1 PUSH1 0x40 MSTORE POP POP POP JUMP JUMPDEST PUSH32 0x4E487B7100000000000000000000000000000000000000000000000000000000 PUSH1 0x0 MSTORE PUSH1 0x11 PUSH1 0x4 MSTORE PUSH1 0x24 PUSH1 0x0 REVERT JUMPDEST PUSH32 0x4E487B7100000000000000000000000000000000000000000000000000000000 PUSH1 0x0 MSTORE PUSH1 0x22 PUSH1 0x4 MSTORE PUSH1 0x24 PUSH1 0x0 REVERT JUMPDEST PUSH32 0x4E487B7100000000000000000000000000000000000000000000000000000000 PUSH1 0x0 MSTORE PUSH1 0x41 PUSH1 0x4 MSTORE PUSH1 0x24 PUSH1 0x0 REVERT JUMPDEST PUSH1 0x0 DUP1 REVERT JUMPDEST PUSH1 0x0 DUP1 REVERT JUMPDEST PUSH1 0x0 DUP1 REVERT JUMPDEST PUSH1 0x0 DUP1 REVERT JUMPDEST PUSH1 0x0 DUP1 REVERT JUMPDEST PUSH1 0x0 DUP1 REVERT JUMPDEST PUSH1 0x0 PUSH1 0x1F NOT PUSH1 0x1F DUP4 ADD AND SWAP1 POP SWAP2 SWAP1 POP JUMP JUMPDEST PUSH32 0x5468657265206973206E6F206D6F726520626F6F6B7320696E2073746F636B00 PUSH1 0x0 DUP3 ADD MSTORE POP JUMP JUMPDEST PUSH2 0xEDB DUP2 PUSH2 0xD32 JUMP JUMPDEST DUP2 EQ PUSH2 0xEE6 JUMPI PUSH1 0x0 DUP1 REVERT JUMPDEST POP JUMP JUMPDEST PUSH2 0xEF2 DUP2 PUSH2 0xD3E JUMP JUMPDEST DUP2 EQ PUSH2 0xEFD JUMPI PUSH1 0x0 DUP1 REVERT JUMPDEST POP JUMP INVALID LOG2 PUSH5 0x6970667358 0x22 SLT KECCAK256 MLOAD PUSH1 0xE4 0xD1 0xFC SWAP7 0x2F 0xDA 0x2F 0xEA SWAP7 GAS 0xD9 DUP15 0xE2 0xB4 0xF7 0x49 0x24 DUP6 POP 0xD7 EXTCODECOPY SWAP9 0xB8 STATICCALL 0xEF DUP3 0x2E 0x28 GASPRICE PC PUSH5 0x736F6C6343 STOP ADDMOD SMOD STOP CALLER "
				},
				"gasEstimates": {
					"creation": {
						"codeDepositCost": "778800",
						"executionCost": "infinite",
						"totalCost": "infinite"
					},
					"external": {
						"addBook((string,string,uint256,bool,uint256))": "infinite",
						"book1()": "infinite",
						"book2()": "infinite",
						"borrowBook(uint256)": "infinite",
						"getBook(uint256)": "2850",
						"getTitle()": "infinite",
						"getTitleAndIdBook()": "infinite",
						"libraryBook(uint256)": "infinite",
						"setTitle()": "infinite"
					}
				},
				"methodIdentifiers": {
					"addBook((string,string,uint256,bool,uint256))": "cad4a2df",
					"book1()": "fb6a8fcc",
					"book2()": "e815fe1d",
					"borrowBook(uint256)": "7e490a9e",
					"getBook(uint256)": "e0ff5b8b",
					"getTitle()": "ff3c1a8f",
					"getTitleAndIdBook()": "c849a2a6",
					"libraryBook(uint256)": "2b07630b",
					"setTitle()": "b15195ed"
				}
			},
			"storageLayout": {
				"storage": [
					{
						"astId": 15,
						"contract": "tarea4.sol:StructTest",
						"label": "book1",
						"offset": 0,
						"slot": "0",
						"type": "t_struct(Book)12_storage"
					},
					{
						"astId": 25,
						"contract": "tarea4.sol:StructTest",
						"label": "book2",
						"offset": 0,
						"slot": "5",
						"type": "t_struct(Book)12_storage"
					},
					{
						"astId": 30,
						"contract": "tarea4.sol:StructTest",
						"label": "libraryBook",
						"offset": 0,
						"slot": "10",
						"type": "t_mapping(t_uint256,t_struct(Book)12_storage)"
					}
				],
				"types": {
					"t_bool": {
						"encoding": "inplace",
						"label": "bool",
						"numberOfBytes": "1"
					},
					"t_mapping(t_uint256,t_struct(Book)12_storage)": {
						"encoding": "mapping",
						"key": "t_uint256",
						"label": "mapping(uint256 => struct StructTest.Book)",
						"numberOfBytes": "32",
						"value": "t_struct(Book)12_storage"
					},
					"t_string_storage": {
						"encoding": "bytes",
						"label": "string",
						"numberOfBytes": "32"
					},
					"t_struct(Book)12_storage": {
						"encoding": "inplace",
						"label": "struct StructTest.Book",
						"members": [
							{
								"astId": 3,
								"contract": "tarea4.sol:StructTest",
								"label": "title",
								"offset": 0,
								"slot": "0",
								"type": "t_string_storage"
							},
							{
								"astId": 5,
								"contract": "tarea4.sol:StructTest",
								"label": "author",
								"offset": 0,
								"slot": "1",
								"type": "t_string_storage"
							},
							{
								"astId": 7,
								"contract": "tarea4.sol:StructTest",
								"label": "id",
								"offset": 0,
								"slot": "2",
								"type": "t_uint256"
							},
							{
								"astId": 9,
								"contract": "tarea4.sol:StructTest",
								"label": "available",
								"offset": 0,
								"slot": "3",
								"type": "t_bool"
							},
							{
								"astId": 11,
								"contract": "tarea4.sol:StructTest",
								"label": "quantity",
								"offset": 0,
								"slot": "4",
								"type": "t_uint256"
							}
						],
						"numberOfBytes": "160"
					},
					"t_uint256": {
						"encoding": "inplace",
						"label": "uint256",
						"numberOfBytes": "32"
					}
				}
			},
			"userdoc": {
				"kind": "user",
				"methods": {},
				"version": 1
			}
		}
	}
}