{
	"imbox.sol": {
		"Inbox": {
			"abi": [
				{
					"inputs": [
						{
							"internalType": "string",
							"name": "initialMessage",
							"type": "string"
						}
					],
					"stateMutability": "nonpayable",
					"type": "constructor"
				},
				{
					"inputs": [],
					"name": "getMessage",
					"outputs": [
						{
							"internalType": "string",
							"name": "",
							"type": "string"
						}
					],
					"stateMutability": "view",
					"type": "function"
				},
				{
					"inputs": [],
					"name": "message",
					"outputs": [
						{
							"internalType": "string",
							"name": "",
							"type": "string"
						}
					],
					"stateMutability": "view",
					"type": "function"
				},
				{
					"inputs": [
						{
							"internalType": "string",
							"name": "newMessage",
							"type": "string"
						}
					],
					"name": "setMessage",
					"outputs": [],
					"stateMutability": "nonpayable",
					"type": "function"
				}
			],
			"devdoc": {
				"kind": "dev",
				"methods": {},
				"version": 1
			},
			"evm": {
				"assembly": "    /* \"imbox.sol\":27:645  contract Inbox {\r... */\n  mstore(0x40, 0x80)\n    /* \"imbox.sol\":116:237  constructor(string memory initialMessage) {\r... */\n  callvalue\n  dup1\n  iszero\n  tag_1\n  jumpi\n  0x00\n  dup1\n  revert\ntag_1:\n  pop\n  mload(0x40)\n  sub(codesize, bytecodeSize)\n  dup1\n  bytecodeSize\n  dup4\n  codecopy\n  dup2\n  dup2\n  add\n  0x40\n  mstore\n  dup2\n  add\n  swap1\n  tag_2\n  swap2\n  swap1\n  tag_3\n  jump\t// in\ntag_2:\n    /* \"imbox.sol\":184:194  msg.sender */\n  caller\n    /* \"imbox.sol\":169:181  ownerAddress */\n  0x01\n  0x00\n    /* \"imbox.sol\":169:194  ownerAddress = msg.sender */\n  0x0100\n  exp\n  dup2\n  sload\n  dup2\n  0xffffffffffffffffffffffffffffffffffffffff\n  mul\n  not\n  and\n  swap1\n  dup4\n  0xffffffffffffffffffffffffffffffffffffffff\n  and\n  mul\n  or\n  swap1\n  sstore\n  pop\n    /* \"imbox.sol\":215:229  initialMessage */\n  dup1\n    /* \"imbox.sol\":205:212  message */\n  0x00\n    /* \"imbox.sol\":205:229  message = initialMessage */\n  swap1\n  dup1\n  mload\n  swap1\n  0x20\n  add\n  swap1\n  tag_6\n  swap3\n  swap2\n  swap1\n  tag_7\n  jump\t// in\ntag_6:\n  pop\n    /* \"imbox.sol\":116:237  constructor(string memory initialMessage) {\r... */\n  pop\n    /* \"imbox.sol\":27:645  contract Inbox {\r... */\n  jump(tag_8)\ntag_7:\n  dup3\n  dup1\n  sload\n  tag_9\n  swap1\n  tag_10\n  jump\t// in\ntag_9:\n  swap1\n  0x00\n  mstore\n  keccak256(0x00, 0x20)\n  swap1\n  0x1f\n  add\n  0x20\n  swap1\n  div\n  dup2\n  add\n  swap3\n  dup3\n  tag_12\n  jumpi\n  0x00\n  dup6\n  sstore\n  jump(tag_11)\ntag_12:\n  dup3\n  0x1f\n  lt\n  tag_13\n  jumpi\n  dup1\n  mload\n  not(0xff)\n  and\n  dup4\n  dup1\n  add\n  or\n  dup6\n  sstore\n  jump(tag_11)\ntag_13:\n  dup3\n  dup1\n  add\n  0x01\n  add\n  dup6\n  sstore\n  dup3\n  iszero\n  tag_11\n  jumpi\n  swap2\n  dup3\n  add\ntag_14:\n  dup3\n  dup2\n  gt\n  iszero\n  tag_15\n  jumpi\n  dup3\n  mload\n  dup3\n  sstore\n  swap2\n  0x20\n  add\n  swap2\n  swap1\n  0x01\n  add\n  swap1\n  jump(tag_14)\ntag_15:\ntag_11:\n  pop\n  swap1\n  pop\n  tag_16\n  swap2\n  swap1\n  tag_17\n  jump\t// in\ntag_16:\n  pop\n  swap1\n  jump\t// out\ntag_17:\ntag_18:\n  dup1\n  dup3\n  gt\n  iszero\n  tag_19\n  jumpi\n  0x00\n  dup2\n  0x00\n  swap1\n  sstore\n  pop\n  0x01\n  add\n  jump(tag_18)\ntag_19:\n  pop\n  swap1\n  jump\t// out\n    /* \"#utility.yul\":7:360   */\ntag_21:\n  0x00\n    /* \"#utility.yul\":121:186   */\n  tag_23\n    /* \"#utility.yul\":136:185   */\n  tag_24\n    /* \"#utility.yul\":178:184   */\n  dup5\n    /* \"#utility.yul\":136:185   */\n  tag_25\n  jump\t// in\ntag_24:\n    /* \"#utility.yul\":121:186   */\n  tag_26\n  jump\t// in\ntag_23:\n    /* \"#utility.yul\":112:186   */\n  swap1\n  pop\n    /* \"#utility.yul\":209:215   */\n  dup3\n    /* \"#utility.yul\":202:207   */\n  dup2\n    /* \"#utility.yul\":195:216   */\n  mstore\n    /* \"#utility.yul\":247:251   */\n  0x20\n    /* \"#utility.yul\":240:245   */\n  dup2\n    /* \"#utility.yul\":236:252   */\n  add\n    /* \"#utility.yul\":285:288   */\n  dup5\n    /* \"#utility.yul\":276:282   */\n  dup5\n    /* \"#utility.yul\":271:274   */\n  dup5\n    /* \"#utility.yul\":267:283   */\n  add\n    /* \"#utility.yul\":264:289   */\n  gt\n    /* \"#utility.yul\":261:263   */\n  iszero\n  tag_27\n  jumpi\n    /* \"#utility.yul\":302:303   */\n  0x00\n    /* \"#utility.yul\":299:300   */\n  dup1\n    /* \"#utility.yul\":292:304   */\n  revert\n    /* \"#utility.yul\":261:263   */\ntag_27:\n    /* \"#utility.yul\":315:354   */\n  tag_28\n    /* \"#utility.yul\":347:353   */\n  dup5\n    /* \"#utility.yul\":342:345   */\n  dup3\n    /* \"#utility.yul\":337:340   */\n  dup6\n    /* \"#utility.yul\":315:354   */\n  tag_29\n  jump\t// in\ntag_28:\n    /* \"#utility.yul\":102:360   */\n  pop\n  swap4\n  swap3\n  pop\n  pop\n  pop\n  jump\t// out\n    /* \"#utility.yul\":380:668   */\ntag_30:\n  0x00\n    /* \"#utility.yul\":496:499   */\n  dup3\n    /* \"#utility.yul\":489:493   */\n  0x1f\n    /* \"#utility.yul\":481:487   */\n  dup4\n    /* \"#utility.yul\":477:494   */\n  add\n    /* \"#utility.yul\":473:500   */\n  slt\n    /* \"#utility.yul\":463:465   */\n  tag_32\n  jumpi\n    /* \"#utility.yul\":514:515   */\n  0x00\n    /* \"#utility.yul\":511:512   */\n  dup1\n    /* \"#utility.yul\":504:516   */\n  revert\n    /* \"#utility.yul\":463:465   */\ntag_32:\n    /* \"#utility.yul\":547:553   */\n  dup2\n    /* \"#utility.yul\":541:554   */\n  mload\n    /* \"#utility.yul\":572:662   */\n  tag_33\n    /* \"#utility.yul\":658:661   */\n  dup5\n    /* \"#utility.yul\":650:656   */\n  dup3\n    /* \"#utility.yul\":643:647   */\n  0x20\n    /* \"#utility.yul\":635:641   */\n  dup7\n    /* \"#utility.yul\":631:648   */\n  add\n    /* \"#utility.yul\":572:662   */\n  tag_21\n  jump\t// in\ntag_33:\n    /* \"#utility.yul\":563:662   */\n  swap2\n  pop\n    /* \"#utility.yul\":453:668   */\n  pop\n  swap3\n  swap2\n  pop\n  pop\n  jump\t// out\n    /* \"#utility.yul\":674:1064   */\ntag_3:\n  0x00\n    /* \"#utility.yul\":803:805   */\n  0x20\n    /* \"#utility.yul\":791:800   */\n  dup3\n    /* \"#utility.yul\":782:789   */\n  dup5\n    /* \"#utility.yul\":778:801   */\n  sub\n    /* \"#utility.yul\":774:806   */\n  slt\n    /* \"#utility.yul\":771:773   */\n  iszero\n  tag_35\n  jumpi\n    /* \"#utility.yul\":819:820   */\n  0x00\n    /* \"#utility.yul\":816:817   */\n  dup1\n    /* \"#utility.yul\":809:821   */\n  revert\n    /* \"#utility.yul\":771:773   */\ntag_35:\n    /* \"#utility.yul\":883:884   */\n  0x00\n    /* \"#utility.yul\":872:881   */\n  dup3\n    /* \"#utility.yul\":868:885   */\n  add\n    /* \"#utility.yul\":862:886   */\n  mload\n    /* \"#utility.yul\":913:931   */\n  0xffffffffffffffff\n    /* \"#utility.yul\":905:911   */\n  dup2\n    /* \"#utility.yul\":902:932   */\n  gt\n    /* \"#utility.yul\":899:901   */\n  iszero\n  tag_36\n  jumpi\n    /* \"#utility.yul\":945:946   */\n  0x00\n    /* \"#utility.yul\":942:943   */\n  dup1\n    /* \"#utility.yul\":935:947   */\n  revert\n    /* \"#utility.yul\":899:901   */\ntag_36:\n    /* \"#utility.yul\":973:1047   */\n  tag_37\n    /* \"#utility.yul\":1039:1046   */\n  dup5\n    /* \"#utility.yul\":1030:1036   */\n  dup3\n    /* \"#utility.yul\":1019:1028   */\n  dup6\n    /* \"#utility.yul\":1015:1037   */\n  add\n    /* \"#utility.yul\":973:1047   */\n  tag_30\n  jump\t// in\ntag_37:\n    /* \"#utility.yul\":963:1047   */\n  swap2\n  pop\n    /* \"#utility.yul\":833:1057   */\n  pop\n    /* \"#utility.yul\":761:1064   */\n  swap3\n  swap2\n  pop\n  pop\n  jump\t// out\n    /* \"#utility.yul\":1070:1353   */\ntag_26:\n  0x00\n    /* \"#utility.yul\":1136:1138   */\n  0x40\n    /* \"#utility.yul\":1130:1139   */\n  mload\n    /* \"#utility.yul\":1120:1139   */\n  swap1\n  pop\n    /* \"#utility.yul\":1178:1182   */\n  dup2\n    /* \"#utility.yul\":1170:1176   */\n  dup2\n    /* \"#utility.yul\":1166:1183   */\n  add\n    /* \"#utility.yul\":1285:1291   */\n  dup2\n    /* \"#utility.yul\":1273:1283   */\n  dup2\n    /* \"#utility.yul\":1270:1292   */\n  lt\n    /* \"#utility.yul\":1249:1267   */\n  0xffffffffffffffff\n    /* \"#utility.yul\":1237:1247   */\n  dup3\n    /* \"#utility.yul\":1234:1268   */\n  gt\n    /* \"#utility.yul\":1231:1293   */\n  or\n    /* \"#utility.yul\":1228:1230   */\n  iszero\n  tag_39\n  jumpi\n    /* \"#utility.yul\":1296:1314   */\n  tag_40\n  tag_41\n  jump\t// in\ntag_40:\n    /* \"#utility.yul\":1228:1230   */\ntag_39:\n    /* \"#utility.yul\":1336:1346   */\n  dup1\n    /* \"#utility.yul\":1332:1334   */\n  0x40\n    /* \"#utility.yul\":1325:1347   */\n  mstore\n    /* \"#utility.yul\":1110:1353   */\n  pop\n  swap2\n  swap1\n  pop\n  jump\t// out\n    /* \"#utility.yul\":1359:1691   */\ntag_25:\n  0x00\n    /* \"#utility.yul\":1511:1529   */\n  0xffffffffffffffff\n    /* \"#utility.yul\":1503:1509   */\n  dup3\n    /* \"#utility.yul\":1500:1530   */\n  gt\n    /* \"#utility.yul\":1497:1499   */\n  iszero\n  tag_43\n  jumpi\n    /* \"#utility.yul\":1533:1551   */\n  tag_44\n  tag_41\n  jump\t// in\ntag_44:\n    /* \"#utility.yul\":1497:1499   */\ntag_43:\n    /* \"#utility.yul\":1618:1622   */\n  0x1f\n    /* \"#utility.yul\":1614:1623   */\n  not\n    /* \"#utility.yul\":1607:1611   */\n  0x1f\n    /* \"#utility.yul\":1599:1605   */\n  dup4\n    /* \"#utility.yul\":1595:1612   */\n  add\n    /* \"#utility.yul\":1591:1624   */\n  and\n    /* \"#utility.yul\":1583:1624   */\n  swap1\n  pop\n    /* \"#utility.yul\":1679:1683   */\n  0x20\n    /* \"#utility.yul\":1673:1677   */\n  dup2\n    /* \"#utility.yul\":1669:1684   */\n  add\n    /* \"#utility.yul\":1661:1684   */\n  swap1\n  pop\n    /* \"#utility.yul\":1426:1691   */\n  swap2\n  swap1\n  pop\n  jump\t// out\n    /* \"#utility.yul\":1697:2004   */\ntag_29:\n    /* \"#utility.yul\":1765:1766   */\n  0x00\n    /* \"#utility.yul\":1775:1888   */\ntag_46:\n    /* \"#utility.yul\":1789:1795   */\n  dup4\n    /* \"#utility.yul\":1786:1787   */\n  dup2\n    /* \"#utility.yul\":1783:1796   */\n  lt\n    /* \"#utility.yul\":1775:1888   */\n  iszero\n  tag_48\n  jumpi\n    /* \"#utility.yul\":1874:1875   */\n  dup1\n    /* \"#utility.yul\":1869:1872   */\n  dup3\n    /* \"#utility.yul\":1865:1876   */\n  add\n    /* \"#utility.yul\":1859:1877   */\n  mload\n    /* \"#utility.yul\":1855:1856   */\n  dup2\n    /* \"#utility.yul\":1850:1853   */\n  dup5\n    /* \"#utility.yul\":1846:1857   */\n  add\n    /* \"#utility.yul\":1839:1878   */\n  mstore\n    /* \"#utility.yul\":1811:1813   */\n  0x20\n    /* \"#utility.yul\":1808:1809   */\n  dup2\n    /* \"#utility.yul\":1804:1814   */\n  add\n    /* \"#utility.yul\":1799:1814   */\n  swap1\n  pop\n    /* \"#utility.yul\":1775:1888   */\n  jump(tag_46)\ntag_48:\n    /* \"#utility.yul\":1906:1912   */\n  dup4\n    /* \"#utility.yul\":1903:1904   */\n  dup2\n    /* \"#utility.yul\":1900:1913   */\n  gt\n    /* \"#utility.yul\":1897:1899   */\n  iszero\n  tag_49\n  jumpi\n    /* \"#utility.yul\":1986:1987   */\n  0x00\n    /* \"#utility.yul\":1977:1983   */\n  dup5\n    /* \"#utility.yul\":1972:1975   */\n  dup5\n    /* \"#utility.yul\":1968:1984   */\n  add\n    /* \"#utility.yul\":1961:1988   */\n  mstore\n    /* \"#utility.yul\":1897:1899   */\ntag_49:\n    /* \"#utility.yul\":1746:2004   */\n  pop\n  pop\n  pop\n  pop\n  jump\t// out\n    /* \"#utility.yul\":2010:2330   */\ntag_10:\n  0x00\n    /* \"#utility.yul\":2091:2092   */\n  0x02\n    /* \"#utility.yul\":2085:2089   */\n  dup3\n    /* \"#utility.yul\":2081:2093   */\n  div\n    /* \"#utility.yul\":2071:2093   */\n  swap1\n  pop\n    /* \"#utility.yul\":2138:2139   */\n  0x01\n    /* \"#utility.yul\":2132:2136   */\n  dup3\n    /* \"#utility.yul\":2128:2140   */\n  and\n    /* \"#utility.yul\":2159:2177   */\n  dup1\n    /* \"#utility.yul\":2149:2151   */\n  tag_51\n  jumpi\n    /* \"#utility.yul\":2215:2219   */\n  0x7f\n    /* \"#utility.yul\":2207:2213   */\n  dup3\n    /* \"#utility.yul\":2203:2220   */\n  and\n    /* \"#utility.yul\":2193:2220   */\n  swap2\n  pop\n    /* \"#utility.yul\":2149:2151   */\ntag_51:\n    /* \"#utility.yul\":2277:2279   */\n  0x20\n    /* \"#utility.yul\":2269:2275   */\n  dup3\n    /* \"#utility.yul\":2266:2280   */\n  lt\n    /* \"#utility.yul\":2246:2264   */\n  dup2\n    /* \"#utility.yul\":2243:2281   */\n  eq\n    /* \"#utility.yul\":2240:2242   */\n  iszero\n  tag_52\n  jumpi\n    /* \"#utility.yul\":2296:2314   */\n  tag_53\n  tag_54\n  jump\t// in\ntag_53:\n    /* \"#utility.yul\":2240:2242   */\ntag_52:\n    /* \"#utility.yul\":2061:2330   */\n  pop\n  swap2\n  swap1\n  pop\n  jump\t// out\n    /* \"#utility.yul\":2336:2516   */\ntag_54:\n    /* \"#utility.yul\":2384:2461   */\n  0x4e487b7100000000000000000000000000000000000000000000000000000000\n    /* \"#utility.yul\":2381:2382   */\n  0x00\n    /* \"#utility.yul\":2374:2462   */\n  mstore\n    /* \"#utility.yul\":2481:2485   */\n  0x22\n    /* \"#utility.yul\":2478:2479   */\n  0x04\n    /* \"#utility.yul\":2471:2486   */\n  mstore\n    /* \"#utility.yul\":2505:2509   */\n  0x24\n    /* \"#utility.yul\":2502:2503   */\n  0x00\n    /* \"#utility.yul\":2495:2510   */\n  revert\n    /* \"#utility.yul\":2522:2702   */\ntag_41:\n    /* \"#utility.yul\":2570:2647   */\n  0x4e487b7100000000000000000000000000000000000000000000000000000000\n    /* \"#utility.yul\":2567:2568   */\n  0x00\n    /* \"#utility.yul\":2560:2648   */\n  mstore\n    /* \"#utility.yul\":2667:2671   */\n  0x41\n    /* \"#utility.yul\":2664:2665   */\n  0x04\n    /* \"#utility.yul\":2657:2672   */\n  mstore\n    /* \"#utility.yul\":2691:2695   */\n  0x24\n    /* \"#utility.yul\":2688:2689   */\n  0x00\n    /* \"#utility.yul\":2681:2696   */\n  revert\n    /* \"imbox.sol\":27:645  contract Inbox {\r... */\ntag_8:\n  dataSize(sub_0)\n  dup1\n  dataOffset(sub_0)\n  0x00\n  codecopy\n  0x00\n  return\nstop\n\nsub_0: assembly {\n        /* \"imbox.sol\":27:645  contract Inbox {\r... */\n      mstore(0x40, 0x80)\n      callvalue\n      dup1\n      iszero\n      tag_1\n      jumpi\n      0x00\n      dup1\n      revert\n    tag_1:\n      pop\n      jumpi(tag_2, lt(calldatasize, 0x04))\n      shr(0xe0, calldataload(0x00))\n      dup1\n      0x368b8772\n      eq\n      tag_3\n      jumpi\n      dup1\n      0xce6d41de\n      eq\n      tag_4\n      jumpi\n      dup1\n      0xe21f37ce\n      eq\n      tag_5\n      jumpi\n    tag_2:\n      0x00\n      dup1\n      revert\n        /* \"imbox.sol\":343:640  function setMessage(string memory newMessage) public {\r... */\n    tag_3:\n      tag_6\n      0x04\n      dup1\n      calldatasize\n      sub\n      dup2\n      add\n      swap1\n      tag_7\n      swap2\n      swap1\n      tag_8\n      jump\t// in\n    tag_7:\n      tag_9\n      jump\t// in\n    tag_6:\n      stop\n        /* \"imbox.sol\":245:335  function getMessage() public view returns(string memory) {\r... */\n    tag_4:\n      tag_10\n      tag_11\n      jump\t// in\n    tag_10:\n      mload(0x40)\n      tag_12\n      swap2\n      swap1\n      tag_13\n      jump\t// in\n    tag_12:\n      mload(0x40)\n      dup1\n      swap2\n      sub\n      swap1\n      return\n        /* \"imbox.sol\":51:72  string public message */\n    tag_5:\n      tag_14\n      tag_15\n      jump\t// in\n    tag_14:\n      mload(0x40)\n      tag_16\n      swap2\n      swap1\n      tag_13\n      jump\t// in\n    tag_16:\n      mload(0x40)\n      dup1\n      swap2\n      sub\n      swap1\n      return\n        /* \"imbox.sol\":343:640  function setMessage(string memory newMessage) public {\r... */\n    tag_9:\n        /* \"imbox.sol\":540:552  ownerAddress */\n      0x01\n      0x00\n      swap1\n      sload\n      swap1\n      0x0100\n      exp\n      swap1\n      div\n      0xffffffffffffffffffffffffffffffffffffffff\n      and\n        /* \"imbox.sol\":526:552  msg.sender == ownerAddress */\n      0xffffffffffffffffffffffffffffffffffffffff\n      and\n        /* \"imbox.sol\":526:536  msg.sender */\n      caller\n        /* \"imbox.sol\":526:552  msg.sender == ownerAddress */\n      0xffffffffffffffffffffffffffffffffffffffff\n      and\n      eq\n        /* \"imbox.sol\":517:600  require( msg.sender == ownerAddress , \"Solo el Owner puede modificar el mensaje.\" ) */\n      tag_18\n      jumpi\n      mload(0x40)\n      0x08c379a000000000000000000000000000000000000000000000000000000000\n      dup2\n      mstore\n      0x04\n      add\n      tag_19\n      swap1\n      tag_20\n      jump\t// in\n    tag_19:\n      mload(0x40)\n      dup1\n      swap2\n      sub\n      swap1\n      revert\n    tag_18:\n        /* \"imbox.sol\":622:632  newMessage */\n      dup1\n        /* \"imbox.sol\":612:619  message */\n      0x00\n        /* \"imbox.sol\":612:632  message = newMessage */\n      swap1\n      dup1\n      mload\n      swap1\n      0x20\n      add\n      swap1\n      tag_21\n      swap3\n      swap2\n      swap1\n      tag_22\n      jump\t// in\n    tag_21:\n      pop\n        /* \"imbox.sol\":343:640  function setMessage(string memory newMessage) public {\r... */\n      pop\n      jump\t// out\n        /* \"imbox.sol\":245:335  function getMessage() public view returns(string memory) {\r... */\n    tag_11:\n        /* \"imbox.sol\":287:300  string memory */\n      0x60\n        /* \"imbox.sol\":320:327  message */\n      0x00\n        /* \"imbox.sol\":313:327  return message */\n      dup1\n      sload\n      tag_24\n      swap1\n      tag_25\n      jump\t// in\n    tag_24:\n      dup1\n      0x1f\n      add\n      0x20\n      dup1\n      swap2\n      div\n      mul\n      0x20\n      add\n      mload(0x40)\n      swap1\n      dup2\n      add\n      0x40\n      mstore\n      dup1\n      swap3\n      swap2\n      swap1\n      dup2\n      dup2\n      mstore\n      0x20\n      add\n      dup3\n      dup1\n      sload\n      tag_26\n      swap1\n      tag_25\n      jump\t// in\n    tag_26:\n      dup1\n      iszero\n      tag_27\n      jumpi\n      dup1\n      0x1f\n      lt\n      tag_28\n      jumpi\n      0x0100\n      dup1\n      dup4\n      sload\n      div\n      mul\n      dup4\n      mstore\n      swap2\n      0x20\n      add\n      swap2\n      jump(tag_27)\n    tag_28:\n      dup3\n      add\n      swap2\n      swap1\n      0x00\n      mstore\n      keccak256(0x00, 0x20)\n      swap1\n    tag_29:\n      dup2\n      sload\n      dup2\n      mstore\n      swap1\n      0x01\n      add\n      swap1\n      0x20\n      add\n      dup1\n      dup4\n      gt\n      tag_29\n      jumpi\n      dup3\n      swap1\n      sub\n      0x1f\n      and\n      dup3\n      add\n      swap2\n    tag_27:\n      pop\n      pop\n      pop\n      pop\n      pop\n      swap1\n      pop\n        /* \"imbox.sol\":245:335  function getMessage() public view returns(string memory) {\r... */\n      swap1\n      jump\t// out\n        /* \"imbox.sol\":51:72  string public message */\n    tag_15:\n      0x00\n      dup1\n      sload\n      tag_30\n      swap1\n      tag_25\n      jump\t// in\n    tag_30:\n      dup1\n      0x1f\n      add\n      0x20\n      dup1\n      swap2\n      div\n      mul\n      0x20\n      add\n      mload(0x40)\n      swap1\n      dup2\n      add\n      0x40\n      mstore\n      dup1\n      swap3\n      swap2\n      swap1\n      dup2\n      dup2\n      mstore\n      0x20\n      add\n      dup3\n      dup1\n      sload\n      tag_31\n      swap1\n      tag_25\n      jump\t// in\n    tag_31:\n      dup1\n      iszero\n      tag_32\n      jumpi\n      dup1\n      0x1f\n      lt\n      tag_33\n      jumpi\n      0x0100\n      dup1\n      dup4\n      sload\n      div\n      mul\n      dup4\n      mstore\n      swap2\n      0x20\n      add\n      swap2\n      jump(tag_32)\n    tag_33:\n      dup3\n      add\n      swap2\n      swap1\n      0x00\n      mstore\n      keccak256(0x00, 0x20)\n      swap1\n    tag_34:\n      dup2\n      sload\n      dup2\n      mstore\n      swap1\n      0x01\n      add\n      swap1\n      0x20\n      add\n      dup1\n      dup4\n      gt\n      tag_34\n      jumpi\n      dup3\n      swap1\n      sub\n      0x1f\n      and\n      dup3\n      add\n      swap2\n    tag_32:\n      pop\n      pop\n      pop\n      pop\n      pop\n      dup2\n      jump\t// out\n    tag_22:\n      dup3\n      dup1\n      sload\n      tag_35\n      swap1\n      tag_25\n      jump\t// in\n    tag_35:\n      swap1\n      0x00\n      mstore\n      keccak256(0x00, 0x20)\n      swap1\n      0x1f\n      add\n      0x20\n      swap1\n      div\n      dup2\n      add\n      swap3\n      dup3\n      tag_37\n      jumpi\n      0x00\n      dup6\n      sstore\n      jump(tag_36)\n    tag_37:\n      dup3\n      0x1f\n      lt\n      tag_38\n      jumpi\n      dup1\n      mload\n      not(0xff)\n      and\n      dup4\n      dup1\n      add\n      or\n      dup6\n      sstore\n      jump(tag_36)\n    tag_38:\n      dup3\n      dup1\n      add\n      0x01\n      add\n      dup6\n      sstore\n      dup3\n      iszero\n      tag_36\n      jumpi\n      swap2\n      dup3\n      add\n    tag_39:\n      dup3\n      dup2\n      gt\n      iszero\n      tag_40\n      jumpi\n      dup3\n      mload\n      dup3\n      sstore\n      swap2\n      0x20\n      add\n      swap2\n      swap1\n      0x01\n      add\n      swap1\n      jump(tag_39)\n    tag_40:\n    tag_36:\n      pop\n      swap1\n      pop\n      tag_41\n      swap2\n      swap1\n      tag_42\n      jump\t// in\n    tag_41:\n      pop\n      swap1\n      jump\t// out\n    tag_42:\n    tag_43:\n      dup1\n      dup3\n      gt\n      iszero\n      tag_44\n      jumpi\n      0x00\n      dup2\n      0x00\n      swap1\n      sstore\n      pop\n      0x01\n      add\n      jump(tag_43)\n    tag_44:\n      pop\n      swap1\n      jump\t// out\n        /* \"#utility.yul\":7:351   */\n    tag_46:\n      0x00\n        /* \"#utility.yul\":110:175   */\n      tag_48\n        /* \"#utility.yul\":125:174   */\n      tag_49\n        /* \"#utility.yul\":167:173   */\n      dup5\n        /* \"#utility.yul\":125:174   */\n      tag_50\n      jump\t// in\n    tag_49:\n        /* \"#utility.yul\":110:175   */\n      tag_51\n      jump\t// in\n    tag_48:\n        /* \"#utility.yul\":101:175   */\n      swap1\n      pop\n        /* \"#utility.yul\":198:204   */\n      dup3\n        /* \"#utility.yul\":191:196   */\n      dup2\n        /* \"#utility.yul\":184:205   */\n      mstore\n        /* \"#utility.yul\":236:240   */\n      0x20\n        /* \"#utility.yul\":229:234   */\n      dup2\n        /* \"#utility.yul\":225:241   */\n      add\n        /* \"#utility.yul\":274:277   */\n      dup5\n        /* \"#utility.yul\":265:271   */\n      dup5\n        /* \"#utility.yul\":260:263   */\n      dup5\n        /* \"#utility.yul\":256:272   */\n      add\n        /* \"#utility.yul\":253:278   */\n      gt\n        /* \"#utility.yul\":250:252   */\n      iszero\n      tag_52\n      jumpi\n        /* \"#utility.yul\":291:292   */\n      0x00\n        /* \"#utility.yul\":288:289   */\n      dup1\n        /* \"#utility.yul\":281:293   */\n      revert\n        /* \"#utility.yul\":250:252   */\n    tag_52:\n        /* \"#utility.yul\":304:345   */\n      tag_53\n        /* \"#utility.yul\":338:344   */\n      dup5\n        /* \"#utility.yul\":333:336   */\n      dup3\n        /* \"#utility.yul\":328:331   */\n      dup6\n        /* \"#utility.yul\":304:345   */\n      tag_54\n      jump\t// in\n    tag_53:\n        /* \"#utility.yul\":91:351   */\n      pop\n      swap4\n      swap3\n      pop\n      pop\n      pop\n      jump\t// out\n        /* \"#utility.yul\":371:644   */\n    tag_55:\n      0x00\n        /* \"#utility.yul\":476:479   */\n      dup3\n        /* \"#utility.yul\":469:473   */\n      0x1f\n        /* \"#utility.yul\":461:467   */\n      dup4\n        /* \"#utility.yul\":457:474   */\n      add\n        /* \"#utility.yul\":453:480   */\n      slt\n        /* \"#utility.yul\":443:445   */\n      tag_57\n      jumpi\n        /* \"#utility.yul\":494:495   */\n      0x00\n        /* \"#utility.yul\":491:492   */\n      dup1\n        /* \"#utility.yul\":484:496   */\n      revert\n        /* \"#utility.yul\":443:445   */\n    tag_57:\n        /* \"#utility.yul\":534:540   */\n      dup2\n        /* \"#utility.yul\":521:541   */\n      calldataload\n        /* \"#utility.yul\":559:638   */\n      tag_58\n        /* \"#utility.yul\":634:637   */\n      dup5\n        /* \"#utility.yul\":626:632   */\n      dup3\n        /* \"#utility.yul\":619:623   */\n      0x20\n        /* \"#utility.yul\":611:617   */\n      dup7\n        /* \"#utility.yul\":607:624   */\n      add\n        /* \"#utility.yul\":559:638   */\n      tag_46\n      jump\t// in\n    tag_58:\n        /* \"#utility.yul\":550:638   */\n      swap2\n      pop\n        /* \"#utility.yul\":433:644   */\n      pop\n      swap3\n      swap2\n      pop\n      pop\n      jump\t// out\n        /* \"#utility.yul\":650:1025   */\n    tag_8:\n      0x00\n        /* \"#utility.yul\":768:770   */\n      0x20\n        /* \"#utility.yul\":756:765   */\n      dup3\n        /* \"#utility.yul\":747:754   */\n      dup5\n        /* \"#utility.yul\":743:766   */\n      sub\n        /* \"#utility.yul\":739:771   */\n      slt\n        /* \"#utility.yul\":736:738   */\n      iszero\n      tag_60\n      jumpi\n        /* \"#utility.yul\":784:785   */\n      0x00\n        /* \"#utility.yul\":781:782   */\n      dup1\n        /* \"#utility.yul\":774:786   */\n      revert\n        /* \"#utility.yul\":736:738   */\n    tag_60:\n        /* \"#utility.yul\":855:856   */\n      0x00\n        /* \"#utility.yul\":844:853   */\n      dup3\n        /* \"#utility.yul\":840:857   */\n      add\n        /* \"#utility.yul\":827:858   */\n      calldataload\n        /* \"#utility.yul\":885:903   */\n      0xffffffffffffffff\n        /* \"#utility.yul\":877:883   */\n      dup2\n        /* \"#utility.yul\":874:904   */\n      gt\n        /* \"#utility.yul\":871:873   */\n      iszero\n      tag_61\n      jumpi\n        /* \"#utility.yul\":917:918   */\n      0x00\n        /* \"#utility.yul\":914:915   */\n      dup1\n        /* \"#utility.yul\":907:919   */\n      revert\n        /* \"#utility.yul\":871:873   */\n    tag_61:\n        /* \"#utility.yul\":945:1008   */\n      tag_62\n        /* \"#utility.yul\":1000:1007   */\n      dup5\n        /* \"#utility.yul\":991:997   */\n      dup3\n        /* \"#utility.yul\":980:989   */\n      dup6\n        /* \"#utility.yul\":976:998   */\n      add\n        /* \"#utility.yul\":945:1008   */\n      tag_55\n      jump\t// in\n    tag_62:\n        /* \"#utility.yul\":935:1008   */\n      swap2\n      pop\n        /* \"#utility.yul\":798:1018   */\n      pop\n        /* \"#utility.yul\":726:1025   */\n      swap3\n      swap2\n      pop\n      pop\n      jump\t// out\n        /* \"#utility.yul\":1031:1395   */\n    tag_63:\n      0x00\n        /* \"#utility.yul\":1147:1186   */\n      tag_65\n        /* \"#utility.yul\":1180:1185   */\n      dup3\n        /* \"#utility.yul\":1147:1186   */\n      tag_66\n      jump\t// in\n    tag_65:\n        /* \"#utility.yul\":1202:1273   */\n      tag_67\n        /* \"#utility.yul\":1266:1272   */\n      dup2\n        /* \"#utility.yul\":1261:1264   */\n      dup6\n        /* \"#utility.yul\":1202:1273   */\n      tag_68\n      jump\t// in\n    tag_67:\n        /* \"#utility.yul\":1195:1273   */\n      swap4\n      pop\n        /* \"#utility.yul\":1282:1334   */\n      tag_69\n        /* \"#utility.yul\":1327:1333   */\n      dup2\n        /* \"#utility.yul\":1322:1325   */\n      dup6\n        /* \"#utility.yul\":1315:1319   */\n      0x20\n        /* \"#utility.yul\":1308:1313   */\n      dup7\n        /* \"#utility.yul\":1304:1320   */\n      add\n        /* \"#utility.yul\":1282:1334   */\n      tag_70\n      jump\t// in\n    tag_69:\n        /* \"#utility.yul\":1359:1388   */\n      tag_71\n        /* \"#utility.yul\":1381:1387   */\n      dup2\n        /* \"#utility.yul\":1359:1388   */\n      tag_72\n      jump\t// in\n    tag_71:\n        /* \"#utility.yul\":1354:1357   */\n      dup5\n        /* \"#utility.yul\":1350:1389   */\n      add\n        /* \"#utility.yul\":1343:1389   */\n      swap2\n      pop\n        /* \"#utility.yul\":1123:1395   */\n      pop\n      swap3\n      swap2\n      pop\n      pop\n      jump\t// out\n        /* \"#utility.yul\":1401:1774   */\n    tag_73:\n      0x00\n        /* \"#utility.yul\":1564:1631   */\n      tag_75\n        /* \"#utility.yul\":1628:1630   */\n      0x29\n        /* \"#utility.yul\":1623:1626   */\n      dup4\n        /* \"#utility.yul\":1564:1631   */\n      tag_68\n      jump\t// in\n    tag_75:\n        /* \"#utility.yul\":1557:1631   */\n      swap2\n      pop\n        /* \"#utility.yul\":1661:1695   */\n      0x536f6c6f20656c204f776e6572207075656465206d6f6469666963617220656c\n        /* \"#utility.yul\":1657:1658   */\n      0x00\n        /* \"#utility.yul\":1652:1655   */\n      dup4\n        /* \"#utility.yul\":1648:1659   */\n      add\n        /* \"#utility.yul\":1641:1696   */\n      mstore\n        /* \"#utility.yul\":1727:1738   */\n      0x206d656e73616a652e0000000000000000000000000000000000000000000000\n        /* \"#utility.yul\":1722:1724   */\n      0x20\n        /* \"#utility.yul\":1717:1720   */\n      dup4\n        /* \"#utility.yul\":1713:1725   */\n      add\n        /* \"#utility.yul\":1706:1739   */\n      mstore\n        /* \"#utility.yul\":1765:1767   */\n      0x40\n        /* \"#utility.yul\":1760:1763   */\n      dup3\n        /* \"#utility.yul\":1756:1768   */\n      add\n        /* \"#utility.yul\":1749:1768   */\n      swap1\n      pop\n        /* \"#utility.yul\":1547:1774   */\n      swap2\n      swap1\n      pop\n      jump\t// out\n        /* \"#utility.yul\":1780:2093   */\n    tag_13:\n      0x00\n        /* \"#utility.yul\":1931:1933   */\n      0x20\n        /* \"#utility.yul\":1920:1929   */\n      dup3\n        /* \"#utility.yul\":1916:1934   */\n      add\n        /* \"#utility.yul\":1908:1934   */\n      swap1\n      pop\n        /* \"#utility.yul\":1980:1989   */\n      dup2\n        /* \"#utility.yul\":1974:1978   */\n      dup2\n        /* \"#utility.yul\":1970:1990   */\n      sub\n        /* \"#utility.yul\":1966:1967   */\n      0x00\n        /* \"#utility.yul\":1955:1964   */\n      dup4\n        /* \"#utility.yul\":1951:1968   */\n      add\n        /* \"#utility.yul\":1944:1991   */\n      mstore\n        /* \"#utility.yul\":2008:2086   */\n      tag_77\n        /* \"#utility.yul\":2081:2085   */\n      dup2\n        /* \"#utility.yul\":2072:2078   */\n      dup5\n        /* \"#utility.yul\":2008:2086   */\n      tag_63\n      jump\t// in\n    tag_77:\n        /* \"#utility.yul\":2000:2086   */\n      swap1\n      pop\n        /* \"#utility.yul\":1898:2093   */\n      swap3\n      swap2\n      pop\n      pop\n      jump\t// out\n        /* \"#utility.yul\":2099:2518   */\n    tag_20:\n      0x00\n        /* \"#utility.yul\":2303:2305   */\n      0x20\n        /* \"#utility.yul\":2292:2301   */\n      dup3\n        /* \"#utility.yul\":2288:2306   */\n      add\n        /* \"#utility.yul\":2280:2306   */\n      swap1\n      pop\n        /* \"#utility.yul\":2352:2361   */\n      dup2\n        /* \"#utility.yul\":2346:2350   */\n      dup2\n        /* \"#utility.yul\":2342:2362   */\n      sub\n        /* \"#utility.yul\":2338:2339   */\n      0x00\n        /* \"#utility.yul\":2327:2336   */\n      dup4\n        /* \"#utility.yul\":2323:2340   */\n      add\n        /* \"#utility.yul\":2316:2363   */\n      mstore\n        /* \"#utility.yul\":2380:2511   */\n      tag_79\n        /* \"#utility.yul\":2506:2510   */\n      dup2\n        /* \"#utility.yul\":2380:2511   */\n      tag_73\n      jump\t// in\n    tag_79:\n        /* \"#utility.yul\":2372:2511   */\n      swap1\n      pop\n        /* \"#utility.yul\":2270:2518   */\n      swap2\n      swap1\n      pop\n      jump\t// out\n        /* \"#utility.yul\":2524:2807   */\n    tag_51:\n      0x00\n        /* \"#utility.yul\":2590:2592   */\n      0x40\n        /* \"#utility.yul\":2584:2593   */\n      mload\n        /* \"#utility.yul\":2574:2593   */\n      swap1\n      pop\n        /* \"#utility.yul\":2632:2636   */\n      dup2\n        /* \"#utility.yul\":2624:2630   */\n      dup2\n        /* \"#utility.yul\":2620:2637   */\n      add\n        /* \"#utility.yul\":2739:2745   */\n      dup2\n        /* \"#utility.yul\":2727:2737   */\n      dup2\n        /* \"#utility.yul\":2724:2746   */\n      lt\n        /* \"#utility.yul\":2703:2721   */\n      0xffffffffffffffff\n        /* \"#utility.yul\":2691:2701   */\n      dup3\n        /* \"#utility.yul\":2688:2722   */\n      gt\n        /* \"#utility.yul\":2685:2747   */\n      or\n        /* \"#utility.yul\":2682:2684   */\n      iszero\n      tag_81\n      jumpi\n        /* \"#utility.yul\":2750:2768   */\n      tag_82\n      tag_83\n      jump\t// in\n    tag_82:\n        /* \"#utility.yul\":2682:2684   */\n    tag_81:\n        /* \"#utility.yul\":2790:2800   */\n      dup1\n        /* \"#utility.yul\":2786:2788   */\n      0x40\n        /* \"#utility.yul\":2779:2801   */\n      mstore\n        /* \"#utility.yul\":2564:2807   */\n      pop\n      swap2\n      swap1\n      pop\n      jump\t// out\n        /* \"#utility.yul\":2813:3145   */\n    tag_50:\n      0x00\n        /* \"#utility.yul\":2965:2983   */\n      0xffffffffffffffff\n        /* \"#utility.yul\":2957:2963   */\n      dup3\n        /* \"#utility.yul\":2954:2984   */\n      gt\n        /* \"#utility.yul\":2951:2953   */\n      iszero\n      tag_85\n      jumpi\n        /* \"#utility.yul\":2987:3005   */\n      tag_86\n      tag_83\n      jump\t// in\n    tag_86:\n        /* \"#utility.yul\":2951:2953   */\n    tag_85:\n        /* \"#utility.yul\":3072:3076   */\n      0x1f\n        /* \"#utility.yul\":3068:3077   */\n      not\n        /* \"#utility.yul\":3061:3065   */\n      0x1f\n        /* \"#utility.yul\":3053:3059   */\n      dup4\n        /* \"#utility.yul\":3049:3066   */\n      add\n        /* \"#utility.yul\":3045:3078   */\n      and\n        /* \"#utility.yul\":3037:3078   */\n      swap1\n      pop\n        /* \"#utility.yul\":3133:3137   */\n      0x20\n        /* \"#utility.yul\":3127:3131   */\n      dup2\n        /* \"#utility.yul\":3123:3138   */\n      add\n        /* \"#utility.yul\":3115:3138   */\n      swap1\n      pop\n        /* \"#utility.yul\":2880:3145   */\n      swap2\n      swap1\n      pop\n      jump\t// out\n        /* \"#utility.yul\":3151:3250   */\n    tag_66:\n      0x00\n        /* \"#utility.yul\":3237:3242   */\n      dup2\n        /* \"#utility.yul\":3231:3243   */\n      mload\n        /* \"#utility.yul\":3221:3243   */\n      swap1\n      pop\n        /* \"#utility.yul\":3210:3250   */\n      swap2\n      swap1\n      pop\n      jump\t// out\n        /* \"#utility.yul\":3256:3425   */\n    tag_68:\n      0x00\n        /* \"#utility.yul\":3374:3380   */\n      dup3\n        /* \"#utility.yul\":3369:3372   */\n      dup3\n        /* \"#utility.yul\":3362:3381   */\n      mstore\n        /* \"#utility.yul\":3414:3418   */\n      0x20\n        /* \"#utility.yul\":3409:3412   */\n      dup3\n        /* \"#utility.yul\":3405:3419   */\n      add\n        /* \"#utility.yul\":3390:3419   */\n      swap1\n      pop\n        /* \"#utility.yul\":3352:3425   */\n      swap3\n      swap2\n      pop\n      pop\n      jump\t// out\n        /* \"#utility.yul\":3431:3585   */\n    tag_54:\n        /* \"#utility.yul\":3515:3521   */\n      dup3\n        /* \"#utility.yul\":3510:3513   */\n      dup2\n        /* \"#utility.yul\":3505:3508   */\n      dup4\n        /* \"#utility.yul\":3492:3522   */\n      calldatacopy\n        /* \"#utility.yul\":3577:3578   */\n      0x00\n        /* \"#utility.yul\":3568:3574   */\n      dup4\n        /* \"#utility.yul\":3563:3566   */\n      dup4\n        /* \"#utility.yul\":3559:3575   */\n      add\n        /* \"#utility.yul\":3552:3579   */\n      mstore\n        /* \"#utility.yul\":3482:3585   */\n      pop\n      pop\n      pop\n      jump\t// out\n        /* \"#utility.yul\":3591:3898   */\n    tag_70:\n        /* \"#utility.yul\":3659:3660   */\n      0x00\n        /* \"#utility.yul\":3669:3782   */\n    tag_91:\n        /* \"#utility.yul\":3683:3689   */\n      dup4\n        /* \"#utility.yul\":3680:3681   */\n      dup2\n        /* \"#utility.yul\":3677:3690   */\n      lt\n        /* \"#utility.yul\":3669:3782   */\n      iszero\n      tag_93\n      jumpi\n        /* \"#utility.yul\":3768:3769   */\n      dup1\n        /* \"#utility.yul\":3763:3766   */\n      dup3\n        /* \"#utility.yul\":3759:3770   */\n      add\n        /* \"#utility.yul\":3753:3771   */\n      mload\n        /* \"#utility.yul\":3749:3750   */\n      dup2\n        /* \"#utility.yul\":3744:3747   */\n      dup5\n        /* \"#utility.yul\":3740:3751   */\n      add\n        /* \"#utility.yul\":3733:3772   */\n      mstore\n        /* \"#utility.yul\":3705:3707   */\n      0x20\n        /* \"#utility.yul\":3702:3703   */\n      dup2\n        /* \"#utility.yul\":3698:3708   */\n      add\n        /* \"#utility.yul\":3693:3708   */\n      swap1\n      pop\n        /* \"#utility.yul\":3669:3782   */\n      jump(tag_91)\n    tag_93:\n        /* \"#utility.yul\":3800:3806   */\n      dup4\n        /* \"#utility.yul\":3797:3798   */\n      dup2\n        /* \"#utility.yul\":3794:3807   */\n      gt\n        /* \"#utility.yul\":3791:3793   */\n      iszero\n      tag_94\n      jumpi\n        /* \"#utility.yul\":3880:3881   */\n      0x00\n        /* \"#utility.yul\":3871:3877   */\n      dup5\n        /* \"#utility.yul\":3866:3869   */\n      dup5\n        /* \"#utility.yul\":3862:3878   */\n      add\n        /* \"#utility.yul\":3855:3882   */\n      mstore\n        /* \"#utility.yul\":3791:3793   */\n    tag_94:\n        /* \"#utility.yul\":3640:3898   */\n      pop\n      pop\n      pop\n      pop\n      jump\t// out\n        /* \"#utility.yul\":3904:4224   */\n    tag_25:\n      0x00\n        /* \"#utility.yul\":3985:3986   */\n      0x02\n        /* \"#utility.yul\":3979:3983   */\n      dup3\n        /* \"#utility.yul\":3975:3987   */\n      div\n        /* \"#utility.yul\":3965:3987   */\n      swap1\n      pop\n        /* \"#utility.yul\":4032:4033   */\n      0x01\n        /* \"#utility.yul\":4026:4030   */\n      dup3\n        /* \"#utility.yul\":4022:4034   */\n      and\n        /* \"#utility.yul\":4053:4071   */\n      dup1\n        /* \"#utility.yul\":4043:4045   */\n      tag_96\n      jumpi\n        /* \"#utility.yul\":4109:4113   */\n      0x7f\n        /* \"#utility.yul\":4101:4107   */\n      dup3\n        /* \"#utility.yul\":4097:4114   */\n      and\n        /* \"#utility.yul\":4087:4114   */\n      swap2\n      pop\n        /* \"#utility.yul\":4043:4045   */\n    tag_96:\n        /* \"#utility.yul\":4171:4173   */\n      0x20\n        /* \"#utility.yul\":4163:4169   */\n      dup3\n        /* \"#utility.yul\":4160:4174   */\n      lt\n        /* \"#utility.yul\":4140:4158   */\n      dup2\n        /* \"#utility.yul\":4137:4175   */\n      eq\n        /* \"#utility.yul\":4134:4136   */\n      iszero\n      tag_97\n      jumpi\n        /* \"#utility.yul\":4190:4208   */\n      tag_98\n      tag_99\n      jump\t// in\n    tag_98:\n        /* \"#utility.yul\":4134:4136   */\n    tag_97:\n        /* \"#utility.yul\":3955:4224   */\n      pop\n      swap2\n      swap1\n      pop\n      jump\t// out\n        /* \"#utility.yul\":4230:4410   */\n    tag_99:\n        /* \"#utility.yul\":4278:4355   */\n      0x4e487b7100000000000000000000000000000000000000000000000000000000\n        /* \"#utility.yul\":4275:4276   */\n      0x00\n        /* \"#utility.yul\":4268:4356   */\n      mstore\n        /* \"#utility.yul\":4375:4379   */\n      0x22\n        /* \"#utility.yul\":4372:4373   */\n      0x04\n        /* \"#utility.yul\":4365:4380   */\n      mstore\n        /* \"#utility.yul\":4399:4403   */\n      0x24\n        /* \"#utility.yul\":4396:4397   */\n      0x00\n        /* \"#utility.yul\":4389:4404   */\n      revert\n        /* \"#utility.yul\":4416:4596   */\n    tag_83:\n        /* \"#utility.yul\":4464:4541   */\n      0x4e487b7100000000000000000000000000000000000000000000000000000000\n        /* \"#utility.yul\":4461:4462   */\n      0x00\n        /* \"#utility.yul\":4454:4542   */\n      mstore\n        /* \"#utility.yul\":4561:4565   */\n      0x41\n        /* \"#utility.yul\":4558:4559   */\n      0x04\n        /* \"#utility.yul\":4551:4566   */\n      mstore\n        /* \"#utility.yul\":4585:4589   */\n      0x24\n        /* \"#utility.yul\":4582:4583   */\n      0x00\n        /* \"#utility.yul\":4575:4590   */\n      revert\n        /* \"#utility.yul\":4602:4704   */\n    tag_72:\n      0x00\n        /* \"#utility.yul\":4694:4696   */\n      0x1f\n        /* \"#utility.yul\":4690:4697   */\n      not\n        /* \"#utility.yul\":4685:4687   */\n      0x1f\n        /* \"#utility.yul\":4678:4683   */\n      dup4\n        /* \"#utility.yul\":4674:4688   */\n      add\n        /* \"#utility.yul\":4670:4698   */\n      and\n        /* \"#utility.yul\":4660:4698   */\n      swap1\n      pop\n        /* \"#utility.yul\":4650:4704   */\n      swap2\n      swap1\n      pop\n      jump\t// out\n\n    auxdata: 0xa2646970667358221220c2718af98bbd01bb59184f57e93cc20c968bcbaacde7926b8b0208b7e02ed12264736f6c63430008000033\n}\n",
				"bytecode": {
					"linkReferences": {},
					"object": "60806040523480156200001157600080fd5b506040516200096b3803806200096b8339818101604052810190620000379190620001ba565b33600160006101000a81548173ffffffffffffffffffffffffffffffffffffffff021916908373ffffffffffffffffffffffffffffffffffffffff16021790555080600090805190602001906200009092919062000098565b505062000330565b828054620000a6906200029c565b90600052602060002090601f016020900481019282620000ca576000855562000116565b82601f10620000e557805160ff191683800117855562000116565b8280016001018555821562000116579182015b8281111562000115578251825591602001919060010190620000f8565b5b50905062000125919062000129565b5090565b5b80821115620001445760008160009055506001016200012a565b5090565b60006200015f620001598462000233565b620001ff565b9050828152602081018484840111156200017857600080fd5b6200018584828562000266565b509392505050565b600082601f8301126200019f57600080fd5b8151620001b184826020860162000148565b91505092915050565b600060208284031215620001cd57600080fd5b600082015167ffffffffffffffff811115620001e857600080fd5b620001f6848285016200018d565b91505092915050565b6000604051905081810181811067ffffffffffffffff8211171562000229576200022862000301565b5b8060405250919050565b600067ffffffffffffffff82111562000251576200025062000301565b5b601f19601f8301169050602081019050919050565b60005b838110156200028657808201518184015260208101905062000269565b8381111562000296576000848401525b50505050565b60006002820490506001821680620002b557607f821691505b60208210811415620002cc57620002cb620002d2565b5b50919050565b7f4e487b7100000000000000000000000000000000000000000000000000000000600052602260045260246000fd5b7f4e487b7100000000000000000000000000000000000000000000000000000000600052604160045260246000fd5b61062b80620003406000396000f3fe608060405234801561001057600080fd5b50600436106100415760003560e01c8063368b877214610046578063ce6d41de14610062578063e21f37ce14610080575b600080fd5b610060600480360381019061005b9190610373565b61009e565b005b61006a610148565b6040516100779190610453565b60405180910390f35b6100886101da565b6040516100959190610453565b60405180910390f35b600160009054906101000a900473ffffffffffffffffffffffffffffffffffffffff1673ffffffffffffffffffffffffffffffffffffffff163373ffffffffffffffffffffffffffffffffffffffff161461012e576040517f08c379a000000000000000000000000000000000000000000000000000000000815260040161012590610475565b60405180910390fd5b8060009080519060200190610144929190610268565b5050565b60606000805461015790610554565b80601f016020809104026020016040519081016040528092919081815260200182805461018390610554565b80156101d05780601f106101a5576101008083540402835291602001916101d0565b820191906000526020600020905b8154815290600101906020018083116101b357829003601f168201915b5050505050905090565b600080546101e790610554565b80601f016020809104026020016040519081016040528092919081815260200182805461021390610554565b80156102605780601f1061023557610100808354040283529160200191610260565b820191906000526020600020905b81548152906001019060200180831161024357829003601f168201915b505050505081565b82805461027490610554565b90600052602060002090601f01602090048101928261029657600085556102dd565b82601f106102af57805160ff19168380011785556102dd565b828001600101855582156102dd579182015b828111156102dc5782518255916020019190600101906102c1565b5b5090506102ea91906102ee565b5090565b5b808211156103075760008160009055506001016102ef565b5090565b600061031e610319846104c6565b610495565b90508281526020810184848401111561033657600080fd5b610341848285610512565b509392505050565b600082601f83011261035a57600080fd5b813561036a84826020860161030b565b91505092915050565b60006020828403121561038557600080fd5b600082013567ffffffffffffffff81111561039f57600080fd5b6103ab84828501610349565b91505092915050565b60006103bf826104f6565b6103c98185610501565b93506103d9818560208601610521565b6103e2816105e4565b840191505092915050565b60006103fa602983610501565b91507f536f6c6f20656c204f776e6572207075656465206d6f6469666963617220656c60008301527f206d656e73616a652e00000000000000000000000000000000000000000000006020830152604082019050919050565b6000602082019050818103600083015261046d81846103b4565b905092915050565b6000602082019050818103600083015261048e816103ed565b9050919050565b6000604051905081810181811067ffffffffffffffff821117156104bc576104bb6105b5565b5b8060405250919050565b600067ffffffffffffffff8211156104e1576104e06105b5565b5b601f19601f8301169050602081019050919050565b600081519050919050565b600082825260208201905092915050565b82818337600083830152505050565b60005b8381101561053f578082015181840152602081019050610524565b8381111561054e576000848401525b50505050565b6000600282049050600182168061056c57607f821691505b602082108114156105805761057f610586565b5b50919050565b7f4e487b7100000000000000000000000000000000000000000000000000000000600052602260045260246000fd5b7f4e487b7100000000000000000000000000000000000000000000000000000000600052604160045260246000fd5b6000601f19601f830116905091905056fea2646970667358221220c2718af98bbd01bb59184f57e93cc20c968bcbaacde7926b8b0208b7e02ed12264736f6c63430008000033",
					"opcodes": "PUSH1 0x80 PUSH1 0x40 MSTORE CALLVALUE DUP1 ISZERO PUSH3 0x11 JUMPI PUSH1 0x0 DUP1 REVERT JUMPDEST POP PUSH1 0x40 MLOAD PUSH3 0x96B CODESIZE SUB DUP1 PUSH3 0x96B DUP4 CODECOPY DUP2 DUP2 ADD PUSH1 0x40 MSTORE DUP2 ADD SWAP1 PUSH3 0x37 SWAP2 SWAP1 PUSH3 0x1BA JUMP JUMPDEST CALLER PUSH1 0x1 PUSH1 0x0 PUSH2 0x100 EXP DUP2 SLOAD DUP2 PUSH20 0xFFFFFFFFFFFFFFFFFFFFFFFFFFFFFFFFFFFFFFFF MUL NOT AND SWAP1 DUP4 PUSH20 0xFFFFFFFFFFFFFFFFFFFFFFFFFFFFFFFFFFFFFFFF AND MUL OR SWAP1 SSTORE POP DUP1 PUSH1 0x0 SWAP1 DUP1 MLOAD SWAP1 PUSH1 0x20 ADD SWAP1 PUSH3 0x90 SWAP3 SWAP2 SWAP1 PUSH3 0x98 JUMP JUMPDEST POP POP PUSH3 0x330 JUMP JUMPDEST DUP3 DUP1 SLOAD PUSH3 0xA6 SWAP1 PUSH3 0x29C JUMP JUMPDEST SWAP1 PUSH1 0x0 MSTORE PUSH1 0x20 PUSH1 0x0 KECCAK256 SWAP1 PUSH1 0x1F ADD PUSH1 0x20 SWAP1 DIV DUP2 ADD SWAP3 DUP3 PUSH3 0xCA JUMPI PUSH1 0x0 DUP6 SSTORE PUSH3 0x116 JUMP JUMPDEST DUP3 PUSH1 0x1F LT PUSH3 0xE5 JUMPI DUP1 MLOAD PUSH1 0xFF NOT AND DUP4 DUP1 ADD OR DUP6 SSTORE PUSH3 0x116 JUMP JUMPDEST DUP3 DUP1 ADD PUSH1 0x1 ADD DUP6 SSTORE DUP3 ISZERO PUSH3 0x116 JUMPI SWAP2 DUP3 ADD JUMPDEST DUP3 DUP2 GT ISZERO PUSH3 0x115 JUMPI DUP3 MLOAD DUP3 SSTORE SWAP2 PUSH1 0x20 ADD SWAP2 SWAP1 PUSH1 0x1 ADD SWAP1 PUSH3 0xF8 JUMP JUMPDEST JUMPDEST POP SWAP1 POP PUSH3 0x125 SWAP2 SWAP1 PUSH3 0x129 JUMP JUMPDEST POP SWAP1 JUMP JUMPDEST JUMPDEST DUP1 DUP3 GT ISZERO PUSH3 0x144 JUMPI PUSH1 0x0 DUP2 PUSH1 0x0 SWAP1 SSTORE POP PUSH1 0x1 ADD PUSH3 0x12A JUMP JUMPDEST POP SWAP1 JUMP JUMPDEST PUSH1 0x0 PUSH3 0x15F PUSH3 0x159 DUP5 PUSH3 0x233 JUMP JUMPDEST PUSH3 0x1FF JUMP JUMPDEST SWAP1 POP DUP3 DUP2 MSTORE PUSH1 0x20 DUP2 ADD DUP5 DUP5 DUP5 ADD GT ISZERO PUSH3 0x178 JUMPI PUSH1 0x0 DUP1 REVERT JUMPDEST PUSH3 0x185 DUP5 DUP3 DUP6 PUSH3 0x266 JUMP JUMPDEST POP SWAP4 SWAP3 POP POP POP JUMP JUMPDEST PUSH1 0x0 DUP3 PUSH1 0x1F DUP4 ADD SLT PUSH3 0x19F JUMPI PUSH1 0x0 DUP1 REVERT JUMPDEST DUP2 MLOAD PUSH3 0x1B1 DUP5 DUP3 PUSH1 0x20 DUP7 ADD PUSH3 0x148 JUMP JUMPDEST SWAP2 POP POP SWAP3 SWAP2 POP POP JUMP JUMPDEST PUSH1 0x0 PUSH1 0x20 DUP3 DUP5 SUB SLT ISZERO PUSH3 0x1CD JUMPI PUSH1 0x0 DUP1 REVERT JUMPDEST PUSH1 0x0 DUP3 ADD MLOAD PUSH8 0xFFFFFFFFFFFFFFFF DUP2 GT ISZERO PUSH3 0x1E8 JUMPI PUSH1 0x0 DUP1 REVERT JUMPDEST PUSH3 0x1F6 DUP5 DUP3 DUP6 ADD PUSH3 0x18D JUMP JUMPDEST SWAP2 POP POP SWAP3 SWAP2 POP POP JUMP JUMPDEST PUSH1 0x0 PUSH1 0x40 MLOAD SWAP1 POP DUP2 DUP2 ADD DUP2 DUP2 LT PUSH8 0xFFFFFFFFFFFFFFFF DUP3 GT OR ISZERO PUSH3 0x229 JUMPI PUSH3 0x228 PUSH3 0x301 JUMP JUMPDEST JUMPDEST DUP1 PUSH1 0x40 MSTORE POP SWAP2 SWAP1 POP JUMP JUMPDEST PUSH1 0x0 PUSH8 0xFFFFFFFFFFFFFFFF DUP3 GT ISZERO PUSH3 0x251 JUMPI PUSH3 0x250 PUSH3 0x301 JUMP JUMPDEST JUMPDEST PUSH1 0x1F NOT PUSH1 0x1F DUP4 ADD AND SWAP1 POP PUSH1 0x20 DUP2 ADD SWAP1 POP SWAP2 SWAP1 POP JUMP JUMPDEST PUSH1 0x0 JUMPDEST DUP4 DUP2 LT ISZERO PUSH3 0x286 JUMPI DUP1 DUP3 ADD MLOAD DUP2 DUP5 ADD MSTORE PUSH1 0x20 DUP2 ADD SWAP1 POP PUSH3 0x269 JUMP JUMPDEST DUP4 DUP2 GT ISZERO PUSH3 0x296 JUMPI PUSH1 0x0 DUP5 DUP5 ADD MSTORE JUMPDEST POP POP POP POP JUMP JUMPDEST PUSH1 0x0 PUSH1 0x2 DUP3 DIV SWAP1 POP PUSH1 0x1 DUP3 AND DUP1 PUSH3 0x2B5 JUMPI PUSH1 0x7F DUP3 AND SWAP2 POP JUMPDEST PUSH1 0x20 DUP3 LT DUP2 EQ ISZERO PUSH3 0x2CC JUMPI PUSH3 0x2CB PUSH3 0x2D2 JUMP JUMPDEST JUMPDEST POP SWAP2 SWAP1 POP JUMP JUMPDEST PUSH32 0x4E487B7100000000000000000000000000000000000000000000000000000000 PUSH1 0x0 MSTORE PUSH1 0x22 PUSH1 0x4 MSTORE PUSH1 0x24 PUSH1 0x0 REVERT JUMPDEST PUSH32 0x4E487B7100000000000000000000000000000000000000000000000000000000 PUSH1 0x0 MSTORE PUSH1 0x41 PUSH1 0x4 MSTORE PUSH1 0x24 PUSH1 0x0 REVERT JUMPDEST PUSH2 0x62B DUP1 PUSH3 0x340 PUSH1 0x0 CODECOPY PUSH1 0x0 RETURN INVALID PUSH1 0x80 PUSH1 0x40 MSTORE CALLVALUE DUP1 ISZERO PUSH2 0x10 JUMPI PUSH1 0x0 DUP1 REVERT JUMPDEST POP PUSH1 0x4 CALLDATASIZE LT PUSH2 0x41 JUMPI PUSH1 0x0 CALLDATALOAD PUSH1 0xE0 SHR DUP1 PUSH4 0x368B8772 EQ PUSH2 0x46 JUMPI DUP1 PUSH4 0xCE6D41DE EQ PUSH2 0x62 JUMPI DUP1 PUSH4 0xE21F37CE EQ PUSH2 0x80 JUMPI JUMPDEST PUSH1 0x0 DUP1 REVERT JUMPDEST PUSH2 0x60 PUSH1 0x4 DUP1 CALLDATASIZE SUB DUP2 ADD SWAP1 PUSH2 0x5B SWAP2 SWAP1 PUSH2 0x373 JUMP JUMPDEST PUSH2 0x9E JUMP JUMPDEST STOP JUMPDEST PUSH2 0x6A PUSH2 0x148 JUMP JUMPDEST PUSH1 0x40 MLOAD PUSH2 0x77 SWAP2 SWAP1 PUSH2 0x453 JUMP JUMPDEST PUSH1 0x40 MLOAD DUP1 SWAP2 SUB SWAP1 RETURN JUMPDEST PUSH2 0x88 PUSH2 0x1DA JUMP JUMPDEST PUSH1 0x40 MLOAD PUSH2 0x95 SWAP2 SWAP1 PUSH2 0x453 JUMP JUMPDEST PUSH1 0x40 MLOAD DUP1 SWAP2 SUB SWAP1 RETURN JUMPDEST PUSH1 0x1 PUSH1 0x0 SWAP1 SLOAD SWAP1 PUSH2 0x100 EXP SWAP1 DIV PUSH20 0xFFFFFFFFFFFFFFFFFFFFFFFFFFFFFFFFFFFFFFFF AND PUSH20 0xFFFFFFFFFFFFFFFFFFFFFFFFFFFFFFFFFFFFFFFF AND CALLER PUSH20 0xFFFFFFFFFFFFFFFFFFFFFFFFFFFFFFFFFFFFFFFF AND EQ PUSH2 0x12E JUMPI PUSH1 0x40 MLOAD PUSH32 0x8C379A000000000000000000000000000000000000000000000000000000000 DUP2 MSTORE PUSH1 0x4 ADD PUSH2 0x125 SWAP1 PUSH2 0x475 JUMP JUMPDEST PUSH1 0x40 MLOAD DUP1 SWAP2 SUB SWAP1 REVERT JUMPDEST DUP1 PUSH1 0x0 SWAP1 DUP1 MLOAD SWAP1 PUSH1 0x20 ADD SWAP1 PUSH2 0x144 SWAP3 SWAP2 SWAP1 PUSH2 0x268 JUMP JUMPDEST POP POP JUMP JUMPDEST PUSH1 0x60 PUSH1 0x0 DUP1 SLOAD PUSH2 0x157 SWAP1 PUSH2 0x554 JUMP JUMPDEST DUP1 PUSH1 0x1F ADD PUSH1 0x20 DUP1 SWAP2 DIV MUL PUSH1 0x20 ADD PUSH1 0x40 MLOAD SWAP1 DUP2 ADD PUSH1 0x40 MSTORE DUP1 SWAP3 SWAP2 SWAP1 DUP2 DUP2 MSTORE PUSH1 0x20 ADD DUP3 DUP1 SLOAD PUSH2 0x183 SWAP1 PUSH2 0x554 JUMP JUMPDEST DUP1 ISZERO PUSH2 0x1D0 JUMPI DUP1 PUSH1 0x1F LT PUSH2 0x1A5 JUMPI PUSH2 0x100 DUP1 DUP4 SLOAD DIV MUL DUP4 MSTORE SWAP2 PUSH1 0x20 ADD SWAP2 PUSH2 0x1D0 JUMP JUMPDEST DUP3 ADD SWAP2 SWAP1 PUSH1 0x0 MSTORE PUSH1 0x20 PUSH1 0x0 KECCAK256 SWAP1 JUMPDEST DUP2 SLOAD DUP2 MSTORE SWAP1 PUSH1 0x1 ADD SWAP1 PUSH1 0x20 ADD DUP1 DUP4 GT PUSH2 0x1B3 JUMPI DUP3 SWAP1 SUB PUSH1 0x1F AND DUP3 ADD SWAP2 JUMPDEST POP POP POP POP POP SWAP1 POP SWAP1 JUMP JUMPDEST PUSH1 0x0 DUP1 SLOAD PUSH2 0x1E7 SWAP1 PUSH2 0x554 JUMP JUMPDEST DUP1 PUSH1 0x1F ADD PUSH1 0x20 DUP1 SWAP2 DIV MUL PUSH1 0x20 ADD PUSH1 0x40 MLOAD SWAP1 DUP2 ADD PUSH1 0x40 MSTORE DUP1 SWAP3 SWAP2 SWAP1 DUP2 DUP2 MSTORE PUSH1 0x20 ADD DUP3 DUP1 SLOAD PUSH2 0x213 SWAP1 PUSH2 0x554 JUMP JUMPDEST DUP1 ISZERO PUSH2 0x260 JUMPI DUP1 PUSH1 0x1F LT PUSH2 0x235 JUMPI PUSH2 0x100 DUP1 DUP4 SLOAD DIV MUL DUP4 MSTORE SWAP2 PUSH1 0x20 ADD SWAP2 PUSH2 0x260 JUMP JUMPDEST DUP3 ADD SWAP2 SWAP1 PUSH1 0x0 MSTORE PUSH1 0x20 PUSH1 0x0 KECCAK256 SWAP1 JUMPDEST DUP2 SLOAD DUP2 MSTORE SWAP1 PUSH1 0x1 ADD SWAP1 PUSH1 0x20 ADD DUP1 DUP4 GT PUSH2 0x243 JUMPI DUP3 SWAP1 SUB PUSH1 0x1F AND DUP3 ADD SWAP2 JUMPDEST POP POP POP POP POP DUP2 JUMP JUMPDEST DUP3 DUP1 SLOAD PUSH2 0x274 SWAP1 PUSH2 0x554 JUMP JUMPDEST SWAP1 PUSH1 0x0 MSTORE PUSH1 0x20 PUSH1 0x0 KECCAK256 SWAP1 PUSH1 0x1F ADD PUSH1 0x20 SWAP1 DIV DUP2 ADD SWAP3 DUP3 PUSH2 0x296 JUMPI PUSH1 0x0 DUP6 SSTORE PUSH2 0x2DD JUMP JUMPDEST DUP3 PUSH1 0x1F LT PUSH2 0x2AF JUMPI DUP1 MLOAD PUSH1 0xFF NOT AND DUP4 DUP1 ADD OR DUP6 SSTORE PUSH2 0x2DD JUMP JUMPDEST DUP3 DUP1 ADD PUSH1 0x1 ADD DUP6 SSTORE DUP3 ISZERO PUSH2 0x2DD JUMPI SWAP2 DUP3 ADD JUMPDEST DUP3 DUP2 GT ISZERO PUSH2 0x2DC JUMPI DUP3 MLOAD DUP3 SSTORE SWAP2 PUSH1 0x20 ADD SWAP2 SWAP1 PUSH1 0x1 ADD SWAP1 PUSH2 0x2C1 JUMP JUMPDEST JUMPDEST POP SWAP1 POP PUSH2 0x2EA SWAP2 SWAP1 PUSH2 0x2EE JUMP JUMPDEST POP SWAP1 JUMP JUMPDEST JUMPDEST DUP1 DUP3 GT ISZERO PUSH2 0x307 JUMPI PUSH1 0x0 DUP2 PUSH1 0x0 SWAP1 SSTORE POP PUSH1 0x1 ADD PUSH2 0x2EF JUMP JUMPDEST POP SWAP1 JUMP JUMPDEST PUSH1 0x0 PUSH2 0x31E PUSH2 0x319 DUP5 PUSH2 0x4C6 JUMP JUMPDEST PUSH2 0x495 JUMP JUMPDEST SWAP1 POP DUP3 DUP2 MSTORE PUSH1 0x20 DUP2 ADD DUP5 DUP5 DUP5 ADD GT ISZERO PUSH2 0x336 JUMPI PUSH1 0x0 DUP1 REVERT JUMPDEST PUSH2 0x341 DUP5 DUP3 DUP6 PUSH2 0x512 JUMP JUMPDEST POP SWAP4 SWAP3 POP POP POP JUMP JUMPDEST PUSH1 0x0 DUP3 PUSH1 0x1F DUP4 ADD SLT PUSH2 0x35A JUMPI PUSH1 0x0 DUP1 REVERT JUMPDEST DUP2 CALLDATALOAD PUSH2 0x36A DUP5 DUP3 PUSH1 0x20 DUP7 ADD PUSH2 0x30B JUMP JUMPDEST SWAP2 POP POP SWAP3 SWAP2 POP POP JUMP JUMPDEST PUSH1 0x0 PUSH1 0x20 DUP3 DUP5 SUB SLT ISZERO PUSH2 0x385 JUMPI PUSH1 0x0 DUP1 REVERT JUMPDEST PUSH1 0x0 DUP3 ADD CALLDATALOAD PUSH8 0xFFFFFFFFFFFFFFFF DUP2 GT ISZERO PUSH2 0x39F JUMPI PUSH1 0x0 DUP1 REVERT JUMPDEST PUSH2 0x3AB DUP5 DUP3 DUP6 ADD PUSH2 0x349 JUMP JUMPDEST SWAP2 POP POP SWAP3 SWAP2 POP POP JUMP JUMPDEST PUSH1 0x0 PUSH2 0x3BF DUP3 PUSH2 0x4F6 JUMP JUMPDEST PUSH2 0x3C9 DUP2 DUP6 PUSH2 0x501 JUMP JUMPDEST SWAP4 POP PUSH2 0x3D9 DUP2 DUP6 PUSH1 0x20 DUP7 ADD PUSH2 0x521 JUMP JUMPDEST PUSH2 0x3E2 DUP2 PUSH2 0x5E4 JUMP JUMPDEST DUP5 ADD SWAP2 POP POP SWAP3 SWAP2 POP POP JUMP JUMPDEST PUSH1 0x0 PUSH2 0x3FA PUSH1 0x29 DUP4 PUSH2 0x501 JUMP JUMPDEST SWAP2 POP PUSH32 0x536F6C6F20656C204F776E6572207075656465206D6F6469666963617220656C PUSH1 0x0 DUP4 ADD MSTORE PUSH32 0x206D656E73616A652E0000000000000000000000000000000000000000000000 PUSH1 0x20 DUP4 ADD MSTORE PUSH1 0x40 DUP3 ADD SWAP1 POP SWAP2 SWAP1 POP JUMP JUMPDEST PUSH1 0x0 PUSH1 0x20 DUP3 ADD SWAP1 POP DUP2 DUP2 SUB PUSH1 0x0 DUP4 ADD MSTORE PUSH2 0x46D DUP2 DUP5 PUSH2 0x3B4 JUMP JUMPDEST SWAP1 POP SWAP3 SWAP2 POP POP JUMP JUMPDEST PUSH1 0x0 PUSH1 0x20 DUP3 ADD SWAP1 POP DUP2 DUP2 SUB PUSH1 0x0 DUP4 ADD MSTORE PUSH2 0x48E DUP2 PUSH2 0x3ED JUMP JUMPDEST SWAP1 POP SWAP2 SWAP1 POP JUMP JUMPDEST PUSH1 0x0 PUSH1 0x40 MLOAD SWAP1 POP DUP2 DUP2 ADD DUP2 DUP2 LT PUSH8 0xFFFFFFFFFFFFFFFF DUP3 GT OR ISZERO PUSH2 0x4BC JUMPI PUSH2 0x4BB PUSH2 0x5B5 JUMP JUMPDEST JUMPDEST DUP1 PUSH1 0x40 MSTORE POP SWAP2 SWAP1 POP JUMP JUMPDEST PUSH1 0x0 PUSH8 0xFFFFFFFFFFFFFFFF DUP3 GT ISZERO PUSH2 0x4E1 JUMPI PUSH2 0x4E0 PUSH2 0x5B5 JUMP JUMPDEST JUMPDEST PUSH1 0x1F NOT PUSH1 0x1F DUP4 ADD AND SWAP1 POP PUSH1 0x20 DUP2 ADD SWAP1 POP SWAP2 SWAP1 POP JUMP JUMPDEST PUSH1 0x0 DUP2 MLOAD SWAP1 POP SWAP2 SWAP1 POP JUMP JUMPDEST PUSH1 0x0 DUP3 DUP3 MSTORE PUSH1 0x20 DUP3 ADD SWAP1 POP SWAP3 SWAP2 POP POP JUMP JUMPDEST DUP3 DUP2 DUP4 CALLDATACOPY PUSH1 0x0 DUP4 DUP4 ADD MSTORE POP POP POP JUMP JUMPDEST PUSH1 0x0 JUMPDEST DUP4 DUP2 LT ISZERO PUSH2 0x53F JUMPI DUP1 DUP3 ADD MLOAD DUP2 DUP5 ADD MSTORE PUSH1 0x20 DUP2 ADD SWAP1 POP PUSH2 0x524 JUMP JUMPDEST DUP4 DUP2 GT ISZERO PUSH2 0x54E JUMPI PUSH1 0x0 DUP5 DUP5 ADD MSTORE JUMPDEST POP POP POP POP JUMP JUMPDEST PUSH1 0x0 PUSH1 0x2 DUP3 DIV SWAP1 POP PUSH1 0x1 DUP3 AND DUP1 PUSH2 0x56C JUMPI PUSH1 0x7F DUP3 AND SWAP2 POP JUMPDEST PUSH1 0x20 DUP3 LT DUP2 EQ ISZERO PUSH2 0x580 JUMPI PUSH2 0x57F PUSH2 0x586 JUMP JUMPDEST JUMPDEST POP SWAP2 SWAP1 POP JUMP JUMPDEST PUSH32 0x4E487B7100000000000000000000000000000000000000000000000000000000 PUSH1 0x0 MSTORE PUSH1 0x22 PUSH1 0x4 MSTORE PUSH1 0x24 PUSH1 0x0 REVERT JUMPDEST PUSH32 0x4E487B7100000000000000000000000000000000000000000000000000000000 PUSH1 0x0 MSTORE PUSH1 0x41 PUSH1 0x4 MSTORE PUSH1 0x24 PUSH1 0x0 REVERT JUMPDEST PUSH1 0x0 PUSH1 0x1F NOT PUSH1 0x1F DUP4 ADD AND SWAP1 POP SWAP2 SWAP1 POP JUMP INVALID LOG2 PUSH5 0x6970667358 0x22 SLT KECCAK256 0xC2 PUSH18 0x8AF98BBD01BB59184F57E93CC20C968BCBAA 0xCD 0xE7 SWAP3 PUSH12 0x8B0208B7E02ED12264736F6C PUSH4 0x43000800 STOP CALLER "
				},
				"gasEstimates": {
					"creation": {
						"codeDepositCost": "315800",
						"executionCost": "infinite",
						"totalCost": "infinite"
					},
					"external": {
						"getMessage()": "infinite",
						"message()": "infinite",
						"setMessage(string)": "infinite"
					}
				},
				"methodIdentifiers": {
					"getMessage()": "ce6d41de",
					"message()": "e21f37ce",
					"setMessage(string)": "368b8772"
				}
			},
			"storageLayout": {
				"storage": [
					{
						"astId": 3,
						"contract": "imbox.sol:Inbox",
						"label": "message",
						"offset": 0,
						"slot": "0",
						"type": "t_string_storage"
					},
					{
						"astId": 5,
						"contract": "imbox.sol:Inbox",
						"label": "ownerAddress",
						"offset": 0,
						"slot": "1",
						"type": "t_address"
					}
				],
				"types": {
					"t_address": {
						"encoding": "inplace",
						"label": "address",
						"numberOfBytes": "20"
					},
					"t_string_storage": {
						"encoding": "bytes",
						"label": "string",
						"numberOfBytes": "32"
					}
				}
			},
			"userdoc": {
				"kind": "user",
				"methods": {},
				"version": 1
			}
		}
	}
}