{
	"tarea1.sol": {
		"ModifierExample": {
			"abi": [
				{
					"inputs": [],
					"name": "getBalance",
					"outputs": [
						{
							"internalType": "uint256",
							"name": "",
							"type": "uint256"
						}
					],
					"stateMutability": "view",
					"type": "function"
				},
				{
					"inputs": [
						{
							"internalType": "address",
							"name": "",
							"type": "address"
						}
					],
					"name": "myAddress",
					"outputs": [
						{
							"internalType": "uint256",
							"name": "",
							"type": "uint256"
						}
					],
					"stateMutability": "view",
					"type": "function"
				},
				{
					"inputs": [],
					"name": "myBoolean",
					"outputs": [
						{
							"internalType": "bool",
							"name": "",
							"type": "bool"
						}
					],
					"stateMutability": "view",
					"type": "function"
				},
				{
					"inputs": [
						{
							"internalType": "uint256",
							"name": "",
							"type": "uint256"
						}
					],
					"name": "myMapping",
					"outputs": [
						{
							"internalType": "bool",
							"name": "",
							"type": "bool"
						}
					],
					"stateMutability": "view",
					"type": "function"
				},
				{
					"inputs": [],
					"name": "myNumber",
					"outputs": [
						{
							"internalType": "uint256",
							"name": "",
							"type": "uint256"
						}
					],
					"stateMutability": "view",
					"type": "function"
				},
				{
					"inputs": [],
					"name": "myString",
					"outputs": [
						{
							"internalType": "string",
							"name": "",
							"type": "string"
						}
					],
					"stateMutability": "view",
					"type": "function"
				},
				{
					"inputs": [],
					"name": "receiveMoney",
					"outputs": [],
					"stateMutability": "payable",
					"type": "function"
				},
				{
					"inputs": [
						{
							"internalType": "address",
							"name": "wallet",
							"type": "address"
						},
						{
							"internalType": "uint256",
							"name": "amount",
							"type": "uint256"
						}
					],
					"name": "setAddress",
					"outputs": [],
					"stateMutability": "nonpayable",
					"type": "function"
				},
				{
					"inputs": [
						{
							"internalType": "uint256",
							"name": "index",
							"type": "uint256"
						},
						{
							"internalType": "bool",
							"name": "value",
							"type": "bool"
						}
					],
					"name": "setValue",
					"outputs": [],
					"stateMutability": "nonpayable",
					"type": "function"
				},
				{
					"inputs": [
						{
							"internalType": "uint256",
							"name": "amount",
							"type": "uint256"
						}
					],
					"name": "withdrawMoney",
					"outputs": [],
					"stateMutability": "nonpayable",
					"type": "function"
				}
			],
			"devdoc": {
				"kind": "dev",
				"methods": {},
				"version": 1
			},
			"evm": {
				"assembly": "    /* \"tarea1.sol\":65:1263  contract ModifierExample {\r... */\n  mstore(0x40, 0x80)\n  callvalue\n  dup1\n  iszero\n  tag_1\n  jumpi\n  0x00\n  dup1\n  revert\ntag_1:\n  pop\n  dataSize(sub_0)\n  dup1\n  dataOffset(sub_0)\n  0x00\n  codecopy\n  0x00\n  return\nstop\n\nsub_0: assembly {\n        /* \"tarea1.sol\":65:1263  contract ModifierExample {\r... */\n      mstore(0x40, 0x80)\n      jumpi(tag_1, lt(calldatasize, 0x04))\n      shr(0xe0, calldataload(0x00))\n      dup1\n      0x70db6902\n      gt\n      tag_12\n      jumpi\n      dup1\n      0x70db6902\n      eq\n      tag_7\n      jumpi\n      dup1\n      0x7c668844\n      eq\n      tag_8\n      jumpi\n      dup1\n      0x82e33e82\n      eq\n      tag_9\n      jumpi\n      dup1\n      0xc1198ea1\n      eq\n      tag_10\n      jumpi\n      dup1\n      0xdc99be11\n      eq\n      tag_11\n      jumpi\n      jump(tag_1)\n    tag_12:\n      dup1\n      0x12065fe0\n      eq\n      tag_2\n      jumpi\n      dup1\n      0x23fd0e40\n      eq\n      tag_3\n      jumpi\n      dup1\n      0x492bfa18\n      eq\n      tag_4\n      jumpi\n      dup1\n      0x54876921\n      eq\n      tag_5\n      jumpi\n      dup1\n      0x6d26ec18\n      eq\n      tag_6\n      jumpi\n    tag_1:\n      0x00\n      dup1\n      revert\n        /* \"tarea1.sol\":1164:1260  function getBalance() public view returns (uint) {\r... */\n    tag_2:\n      callvalue\n      dup1\n      iszero\n      tag_13\n      jumpi\n      0x00\n      dup1\n      revert\n    tag_13:\n      pop\n      tag_14\n      tag_15\n      jump\t// in\n    tag_14:\n      mload(0x40)\n      tag_16\n      swap2\n      swap1\n      tag_17\n      jump\t// in\n    tag_16:\n      mload(0x40)\n      dup1\n      swap2\n      sub\n      swap1\n      return\n        /* \"tarea1.sol\":154:174  uint public myNumber */\n    tag_3:\n      callvalue\n      dup1\n      iszero\n      tag_18\n      jumpi\n      0x00\n      dup1\n      revert\n    tag_18:\n      pop\n      tag_19\n      tag_20\n      jump\t// in\n    tag_19:\n      mload(0x40)\n      tag_21\n      swap2\n      swap1\n      tag_17\n      jump\t// in\n    tag_21:\n      mload(0x40)\n      dup1\n      swap2\n      sub\n      swap1\n      return\n        /* \"tarea1.sol\":125:147  string public myString */\n    tag_4:\n      callvalue\n      dup1\n      iszero\n      tag_22\n      jumpi\n      0x00\n      dup1\n      revert\n    tag_22:\n      pop\n      tag_23\n      tag_24\n      jump\t// in\n    tag_23:\n      mload(0x40)\n      tag_25\n      swap2\n      swap1\n      tag_26\n      jump\t// in\n    tag_25:\n      mload(0x40)\n      dup1\n      swap2\n      sub\n      swap1\n      return\n        /* \"tarea1.sol\":376:950  function withdrawMoney(uint amount) public {\r... */\n    tag_5:\n      callvalue\n      dup1\n      iszero\n      tag_27\n      jumpi\n      0x00\n      dup1\n      revert\n    tag_27:\n      pop\n      tag_28\n      0x04\n      dup1\n      calldatasize\n      sub\n      dup2\n      add\n      swap1\n      tag_29\n      swap2\n      swap1\n      tag_30\n      jump\t// in\n    tag_29:\n      tag_31\n      jump\t// in\n    tag_28:\n      stop\n        /* \"tarea1.sol\":276:368  function receiveMoney() public payable {\r... */\n    tag_6:\n      tag_32\n      tag_33\n      jump\t// in\n    tag_32:\n      stop\n        /* \"tarea1.sol\":1057:1158  function setAddress(address wallet, uint amount) public {\r... */\n    tag_7:\n      callvalue\n      dup1\n      iszero\n      tag_34\n      jumpi\n      0x00\n      dup1\n      revert\n    tag_34:\n      pop\n      tag_35\n      0x04\n      dup1\n      calldatasize\n      sub\n      dup2\n      add\n      swap1\n      tag_36\n      swap2\n      swap1\n      tag_37\n      jump\t// in\n    tag_36:\n      tag_38\n      jump\t// in\n    tag_35:\n      stop\n        /* \"tarea1.sol\":181:219  mapping(uint => bool) public myMapping */\n    tag_8:\n      callvalue\n      dup1\n      iszero\n      tag_39\n      jumpi\n      0x00\n      dup1\n      revert\n    tag_39:\n      pop\n      tag_40\n      0x04\n      dup1\n      calldatasize\n      sub\n      dup2\n      add\n      swap1\n      tag_41\n      swap2\n      swap1\n      tag_30\n      jump\t// in\n    tag_41:\n      tag_42\n      jump\t// in\n    tag_40:\n      mload(0x40)\n      tag_43\n      swap2\n      swap1\n      tag_44\n      jump\t// in\n    tag_43:\n      mload(0x40)\n      dup1\n      swap2\n      sub\n      swap1\n      return\n        /* \"tarea1.sol\":958:1049  function setValue(uint index, bool value) public{\r... */\n    tag_9:\n      callvalue\n      dup1\n      iszero\n      tag_45\n      jumpi\n      0x00\n      dup1\n      revert\n    tag_45:\n      pop\n      tag_46\n      0x04\n      dup1\n      calldatasize\n      sub\n      dup2\n      add\n      swap1\n      tag_47\n      swap2\n      swap1\n      tag_48\n      jump\t// in\n    tag_47:\n      tag_49\n      jump\t// in\n    tag_46:\n      stop\n        /* \"tarea1.sol\":226:267  mapping(address => uint) public myAddress */\n    tag_10:\n      callvalue\n      dup1\n      iszero\n      tag_50\n      jumpi\n      0x00\n      dup1\n      revert\n    tag_50:\n      pop\n      tag_51\n      0x04\n      dup1\n      calldatasize\n      sub\n      dup2\n      add\n      swap1\n      tag_52\n      swap2\n      swap1\n      tag_53\n      jump\t// in\n    tag_52:\n      tag_54\n      jump\t// in\n    tag_51:\n      mload(0x40)\n      tag_55\n      swap2\n      swap1\n      tag_17\n      jump\t// in\n    tag_55:\n      mload(0x40)\n      dup1\n      swap2\n      sub\n      swap1\n      return\n        /* \"tarea1.sol\":97:118  bool public myBoolean */\n    tag_11:\n      callvalue\n      dup1\n      iszero\n      tag_56\n      jumpi\n      0x00\n      dup1\n      revert\n    tag_56:\n      pop\n      tag_57\n      tag_58\n      jump\t// in\n    tag_57:\n      mload(0x40)\n      tag_59\n      swap2\n      swap1\n      tag_44\n      jump\t// in\n    tag_59:\n      mload(0x40)\n      dup1\n      swap2\n      sub\n      swap1\n      return\n        /* \"tarea1.sol\":1164:1260  function getBalance() public view returns (uint) {\r... */\n    tag_15:\n        /* \"tarea1.sol\":1207:1211  uint */\n      0x00\n        /* \"tarea1.sol\":1231:1252  address(this).balance */\n      selfbalance\n        /* \"tarea1.sol\":1224:1252  return address(this).balance */\n      swap1\n      pop\n        /* \"tarea1.sol\":1164:1260  function getBalance() public view returns (uint) {\r... */\n      swap1\n      jump\t// out\n        /* \"tarea1.sol\":154:174  uint public myNumber */\n    tag_20:\n      sload(0x02)\n      dup2\n      jump\t// out\n        /* \"tarea1.sol\":125:147  string public myString */\n    tag_24:\n      0x01\n      dup1\n      sload\n      tag_61\n      swap1\n      tag_62\n      jump\t// in\n    tag_61:\n      dup1\n      0x1f\n      add\n      0x20\n      dup1\n      swap2\n      div\n      mul\n      0x20\n      add\n      mload(0x40)\n      swap1\n      dup2\n      add\n      0x40\n      mstore\n      dup1\n      swap3\n      swap2\n      swap1\n      dup2\n      dup2\n      mstore\n      0x20\n      add\n      dup3\n      dup1\n      sload\n      tag_63\n      swap1\n      tag_62\n      jump\t// in\n    tag_63:\n      dup1\n      iszero\n      tag_64\n      jumpi\n      dup1\n      0x1f\n      lt\n      tag_65\n      jumpi\n      0x0100\n      dup1\n      dup4\n      sload\n      div\n      mul\n      dup4\n      mstore\n      swap2\n      0x20\n      add\n      swap2\n      jump(tag_64)\n    tag_65:\n      dup3\n      add\n      swap2\n      swap1\n      0x00\n      mstore\n      keccak256(0x00, 0x20)\n      swap1\n    tag_66:\n      dup2\n      sload\n      dup2\n      mstore\n      swap1\n      0x01\n      add\n      swap1\n      0x20\n      add\n      dup1\n      dup4\n      gt\n      tag_66\n      jumpi\n      dup3\n      swap1\n      sub\n      0x1f\n      and\n      dup3\n      add\n      swap2\n    tag_64:\n      pop\n      pop\n      pop\n      pop\n      pop\n      dup2\n      jump\t// out\n        /* \"tarea1.sol\":376:950  function withdrawMoney(uint amount) public {\r... */\n    tag_31:\n        /* \"tarea1.sol\":432:450  uint amountToEther */\n      0x00\n        /* \"tarea1.sol\":463:469  10**18 */\n      0x0de0b6b3a7640000\n        /* \"tarea1.sol\":453:459  amount */\n      dup3\n        /* \"tarea1.sol\":453:470  amount * (10**18) */\n      tag_68\n      swap2\n      swap1\n      tag_69\n      jump\t// in\n    tag_68:\n        /* \"tarea1.sol\":432:470  uint amountToEther = amount * (10**18) */\n      swap1\n      pop\n        /* \"tarea1.sol\":506:515  myAddress */\n      0x04\n        /* \"tarea1.sol\":506:527  myAddress[msg.sender] */\n      0x00\n        /* \"tarea1.sol\":516:526  msg.sender */\n      caller\n        /* \"tarea1.sol\":506:527  myAddress[msg.sender] */\n      0xffffffffffffffffffffffffffffffffffffffff\n      and\n      0xffffffffffffffffffffffffffffffffffffffff\n      and\n      dup2\n      mstore\n      0x20\n      add\n      swap1\n      dup2\n      mstore\n      0x20\n      add\n      0x00\n      keccak256\n      sload\n        /* \"tarea1.sol\":489:502  amountToEther */\n      dup2\n        /* \"tarea1.sol\":489:527  amountToEther <= myAddress[msg.sender] */\n      gt\n      iszero\n        /* \"tarea1.sol\":481:560  require(amountToEther <= myAddress[msg.sender], \"Not enough money to withdraw\") */\n      tag_70\n      jumpi\n      mload(0x40)\n      0x08c379a000000000000000000000000000000000000000000000000000000000\n      dup2\n      mstore\n      0x04\n      add\n      tag_71\n      swap1\n      tag_72\n      jump\t// in\n    tag_71:\n      mload(0x40)\n      dup1\n      swap2\n      sub\n      swap1\n      revert\n    tag_70:\n        /* \"tarea1.sol\":596:609  amountToEther */\n      dup1\n        /* \"tarea1.sol\":571:580  myAddress */\n      0x04\n        /* \"tarea1.sol\":571:592  myAddress[msg.sender] */\n      0x00\n        /* \"tarea1.sol\":581:591  msg.sender */\n      caller\n        /* \"tarea1.sol\":571:592  myAddress[msg.sender] */\n      0xffffffffffffffffffffffffffffffffffffffff\n      and\n      0xffffffffffffffffffffffffffffffffffffffff\n      and\n      dup2\n      mstore\n      0x20\n      add\n      swap1\n      dup2\n      mstore\n      0x20\n      add\n      0x00\n      keccak256\n      0x00\n        /* \"tarea1.sol\":571:609  myAddress[msg.sender] -= amountToEther */\n      dup3\n      dup3\n      sload\n      tag_73\n      swap2\n      swap1\n      tag_74\n      jump\t// in\n    tag_73:\n      swap3\n      pop\n      pop\n      dup2\n      swap1\n      sstore\n      pop\n        /* \"tarea1.sol\":620:642  address payable wallet */\n      0x00\n        /* \"tarea1.sol\":653:663  msg.sender */\n      caller\n        /* \"tarea1.sol\":620:664  address payable wallet = payable(msg.sender) */\n      swap1\n      pop\n        /* \"tarea1.sol\":675:681  wallet */\n      dup1\n        /* \"tarea1.sol\":675:690  wallet.transfer */\n      0xffffffffffffffffffffffffffffffffffffffff\n      and\n        /* \"tarea1.sol\":675:705  wallet.transfer(amountToEther) */\n      0x08fc\n        /* \"tarea1.sol\":691:704  amountToEther */\n      dup4\n        /* \"tarea1.sol\":675:705  wallet.transfer(amountToEther) */\n      swap1\n      dup2\n      iszero\n      mul\n      swap1\n      mload(0x40)\n      0x00\n      mload(0x40)\n      dup1\n      dup4\n      sub\n      dup2\n      dup6\n      dup9\n      dup9\n      call\n      swap4\n      pop\n      pop\n      pop\n      pop\n      iszero\n      dup1\n      iszero\n      tag_76\n      jumpi\n      returndatasize\n      0x00\n      dup1\n      returndatacopy\n      revert(0x00, returndatasize)\n    tag_76:\n      pop\n        /* \"tarea1.sol\":419:950  {\r... */\n      pop\n      pop\n        /* \"tarea1.sol\":376:950  function withdrawMoney(uint amount) public {\r... */\n      pop\n      jump\t// out\n        /* \"tarea1.sol\":276:368  function receiveMoney() public payable {\r... */\n    tag_33:\n        /* \"tarea1.sol\":351:360  msg.value */\n      callvalue\n        /* \"tarea1.sol\":326:335  myAddress */\n      0x04\n        /* \"tarea1.sol\":326:347  myAddress[msg.sender] */\n      0x00\n        /* \"tarea1.sol\":336:346  msg.sender */\n      caller\n        /* \"tarea1.sol\":326:347  myAddress[msg.sender] */\n      0xffffffffffffffffffffffffffffffffffffffff\n      and\n      0xffffffffffffffffffffffffffffffffffffffff\n      and\n      dup2\n      mstore\n      0x20\n      add\n      swap1\n      dup2\n      mstore\n      0x20\n      add\n      0x00\n      keccak256\n      0x00\n        /* \"tarea1.sol\":326:360  myAddress[msg.sender] += msg.value */\n      dup3\n      dup3\n      sload\n      tag_78\n      swap2\n      swap1\n      tag_79\n      jump\t// in\n    tag_78:\n      swap3\n      pop\n      pop\n      dup2\n      swap1\n      sstore\n      pop\n        /* \"tarea1.sol\":276:368  function receiveMoney() public payable {\r... */\n      jump\t// out\n        /* \"tarea1.sol\":1057:1158  function setAddress(address wallet, uint amount) public {\r... */\n    tag_38:\n        /* \"tarea1.sol\":1144:1150  amount */\n      dup1\n        /* \"tarea1.sol\":1124:1133  myAddress */\n      0x04\n        /* \"tarea1.sol\":1124:1141  myAddress[wallet] */\n      0x00\n        /* \"tarea1.sol\":1134:1140  wallet */\n      dup5\n        /* \"tarea1.sol\":1124:1141  myAddress[wallet] */\n      0xffffffffffffffffffffffffffffffffffffffff\n      and\n      0xffffffffffffffffffffffffffffffffffffffff\n      and\n      dup2\n      mstore\n      0x20\n      add\n      swap1\n      dup2\n      mstore\n      0x20\n      add\n      0x00\n      keccak256\n        /* \"tarea1.sol\":1124:1150  myAddress[wallet] = amount */\n      dup2\n      swap1\n      sstore\n      pop\n        /* \"tarea1.sol\":1057:1158  function setAddress(address wallet, uint amount) public {\r... */\n      pop\n      pop\n      jump\t// out\n        /* \"tarea1.sol\":181:219  mapping(uint => bool) public myMapping */\n    tag_42:\n      mstore(0x20, 0x03)\n      dup1\n      0x00\n      mstore\n      keccak256(0x00, 0x40)\n      0x00\n      swap2\n      pop\n      sload\n      swap1\n      0x0100\n      exp\n      swap1\n      div\n      0xff\n      and\n      dup2\n      jump\t// out\n        /* \"tarea1.sol\":958:1049  function setValue(uint index, bool value) public{\r... */\n    tag_49:\n        /* \"tarea1.sol\":1036:1041  value */\n      dup1\n        /* \"tarea1.sol\":1017:1026  myMapping */\n      0x03\n        /* \"tarea1.sol\":1017:1033  myMapping[index] */\n      0x00\n        /* \"tarea1.sol\":1027:1032  index */\n      dup5\n        /* \"tarea1.sol\":1017:1033  myMapping[index] */\n      dup2\n      mstore\n      0x20\n      add\n      swap1\n      dup2\n      mstore\n      0x20\n      add\n      0x00\n      keccak256\n      0x00\n        /* \"tarea1.sol\":1017:1041  myMapping[index] = value */\n      0x0100\n      exp\n      dup2\n      sload\n      dup2\n      0xff\n      mul\n      not\n      and\n      swap1\n      dup4\n      iszero\n      iszero\n      mul\n      or\n      swap1\n      sstore\n      pop\n        /* \"tarea1.sol\":958:1049  function setValue(uint index, bool value) public{\r... */\n      pop\n      pop\n      jump\t// out\n        /* \"tarea1.sol\":226:267  mapping(address => uint) public myAddress */\n    tag_54:\n      mstore(0x20, 0x04)\n      dup1\n      0x00\n      mstore\n      keccak256(0x00, 0x40)\n      0x00\n      swap2\n      pop\n      swap1\n      pop\n      sload\n      dup2\n      jump\t// out\n        /* \"tarea1.sol\":97:118  bool public myBoolean */\n    tag_58:\n      0x00\n      dup1\n      sload\n      swap1\n      0x0100\n      exp\n      swap1\n      div\n      0xff\n      and\n      dup2\n      jump\t// out\n        /* \"#utility.yul\":7:146   */\n    tag_83:\n        /* \"#utility.yul\":53:58   */\n      0x00\n        /* \"#utility.yul\":91:97   */\n      dup2\n        /* \"#utility.yul\":78:98   */\n      calldataload\n        /* \"#utility.yul\":69:98   */\n      swap1\n      pop\n        /* \"#utility.yul\":107:140   */\n      tag_85\n        /* \"#utility.yul\":134:139   */\n      dup2\n        /* \"#utility.yul\":107:140   */\n      tag_86\n      jump\t// in\n    tag_85:\n        /* \"#utility.yul\":7:146   */\n      swap3\n      swap2\n      pop\n      pop\n      jump\t// out\n        /* \"#utility.yul\":152:285   */\n    tag_87:\n        /* \"#utility.yul\":195:200   */\n      0x00\n        /* \"#utility.yul\":233:239   */\n      dup2\n        /* \"#utility.yul\":220:240   */\n      calldataload\n        /* \"#utility.yul\":211:240   */\n      swap1\n      pop\n        /* \"#utility.yul\":249:279   */\n      tag_89\n        /* \"#utility.yul\":273:278   */\n      dup2\n        /* \"#utility.yul\":249:279   */\n      tag_90\n      jump\t// in\n    tag_89:\n        /* \"#utility.yul\":152:285   */\n      swap3\n      swap2\n      pop\n      pop\n      jump\t// out\n        /* \"#utility.yul\":291:430   */\n    tag_91:\n        /* \"#utility.yul\":337:342   */\n      0x00\n        /* \"#utility.yul\":375:381   */\n      dup2\n        /* \"#utility.yul\":362:382   */\n      calldataload\n        /* \"#utility.yul\":353:382   */\n      swap1\n      pop\n        /* \"#utility.yul\":391:424   */\n      tag_93\n        /* \"#utility.yul\":418:423   */\n      dup2\n        /* \"#utility.yul\":391:424   */\n      tag_94\n      jump\t// in\n    tag_93:\n        /* \"#utility.yul\":291:430   */\n      swap3\n      swap2\n      pop\n      pop\n      jump\t// out\n        /* \"#utility.yul\":436:765   */\n    tag_53:\n        /* \"#utility.yul\":495:501   */\n      0x00\n        /* \"#utility.yul\":544:546   */\n      0x20\n        /* \"#utility.yul\":532:541   */\n      dup3\n        /* \"#utility.yul\":523:530   */\n      dup5\n        /* \"#utility.yul\":519:542   */\n      sub\n        /* \"#utility.yul\":515:547   */\n      slt\n        /* \"#utility.yul\":512:631   */\n      iszero\n      tag_96\n      jumpi\n        /* \"#utility.yul\":550:629   */\n      tag_97\n      tag_98\n      jump\t// in\n    tag_97:\n        /* \"#utility.yul\":512:631   */\n    tag_96:\n        /* \"#utility.yul\":670:671   */\n      0x00\n        /* \"#utility.yul\":695:748   */\n      tag_99\n        /* \"#utility.yul\":740:747   */\n      dup5\n        /* \"#utility.yul\":731:737   */\n      dup3\n        /* \"#utility.yul\":720:729   */\n      dup6\n        /* \"#utility.yul\":716:738   */\n      add\n        /* \"#utility.yul\":695:748   */\n      tag_83\n      jump\t// in\n    tag_99:\n        /* \"#utility.yul\":685:748   */\n      swap2\n      pop\n        /* \"#utility.yul\":641:758   */\n      pop\n        /* \"#utility.yul\":436:765   */\n      swap3\n      swap2\n      pop\n      pop\n      jump\t// out\n        /* \"#utility.yul\":771:1245   */\n    tag_37:\n        /* \"#utility.yul\":839:845   */\n      0x00\n        /* \"#utility.yul\":847:853   */\n      dup1\n        /* \"#utility.yul\":896:898   */\n      0x40\n        /* \"#utility.yul\":884:893   */\n      dup4\n        /* \"#utility.yul\":875:882   */\n      dup6\n        /* \"#utility.yul\":871:894   */\n      sub\n        /* \"#utility.yul\":867:899   */\n      slt\n        /* \"#utility.yul\":864:983   */\n      iszero\n      tag_101\n      jumpi\n        /* \"#utility.yul\":902:981   */\n      tag_102\n      tag_98\n      jump\t// in\n    tag_102:\n        /* \"#utility.yul\":864:983   */\n    tag_101:\n        /* \"#utility.yul\":1022:1023   */\n      0x00\n        /* \"#utility.yul\":1047:1100   */\n      tag_103\n        /* \"#utility.yul\":1092:1099   */\n      dup6\n        /* \"#utility.yul\":1083:1089   */\n      dup3\n        /* \"#utility.yul\":1072:1081   */\n      dup7\n        /* \"#utility.yul\":1068:1090   */\n      add\n        /* \"#utility.yul\":1047:1100   */\n      tag_83\n      jump\t// in\n    tag_103:\n        /* \"#utility.yul\":1037:1100   */\n      swap3\n      pop\n        /* \"#utility.yul\":993:1110   */\n      pop\n        /* \"#utility.yul\":1149:1151   */\n      0x20\n        /* \"#utility.yul\":1175:1228   */\n      tag_104\n        /* \"#utility.yul\":1220:1227   */\n      dup6\n        /* \"#utility.yul\":1211:1217   */\n      dup3\n        /* \"#utility.yul\":1200:1209   */\n      dup7\n        /* \"#utility.yul\":1196:1218   */\n      add\n        /* \"#utility.yul\":1175:1228   */\n      tag_91\n      jump\t// in\n    tag_104:\n        /* \"#utility.yul\":1165:1228   */\n      swap2\n      pop\n        /* \"#utility.yul\":1120:1238   */\n      pop\n        /* \"#utility.yul\":771:1245   */\n      swap3\n      pop\n      swap3\n      swap1\n      pop\n      jump\t// out\n        /* \"#utility.yul\":1251:1580   */\n    tag_30:\n        /* \"#utility.yul\":1310:1316   */\n      0x00\n        /* \"#utility.yul\":1359:1361   */\n      0x20\n        /* \"#utility.yul\":1347:1356   */\n      dup3\n        /* \"#utility.yul\":1338:1345   */\n      dup5\n        /* \"#utility.yul\":1334:1357   */\n      sub\n        /* \"#utility.yul\":1330:1362   */\n      slt\n        /* \"#utility.yul\":1327:1446   */\n      iszero\n      tag_106\n      jumpi\n        /* \"#utility.yul\":1365:1444   */\n      tag_107\n      tag_98\n      jump\t// in\n    tag_107:\n        /* \"#utility.yul\":1327:1446   */\n    tag_106:\n        /* \"#utility.yul\":1485:1486   */\n      0x00\n        /* \"#utility.yul\":1510:1563   */\n      tag_108\n        /* \"#utility.yul\":1555:1562   */\n      dup5\n        /* \"#utility.yul\":1546:1552   */\n      dup3\n        /* \"#utility.yul\":1535:1544   */\n      dup6\n        /* \"#utility.yul\":1531:1553   */\n      add\n        /* \"#utility.yul\":1510:1563   */\n      tag_91\n      jump\t// in\n    tag_108:\n        /* \"#utility.yul\":1500:1563   */\n      swap2\n      pop\n        /* \"#utility.yul\":1456:1573   */\n      pop\n        /* \"#utility.yul\":1251:1580   */\n      swap3\n      swap2\n      pop\n      pop\n      jump\t// out\n        /* \"#utility.yul\":1586:2054   */\n    tag_48:\n        /* \"#utility.yul\":1651:1657   */\n      0x00\n        /* \"#utility.yul\":1659:1665   */\n      dup1\n        /* \"#utility.yul\":1708:1710   */\n      0x40\n        /* \"#utility.yul\":1696:1705   */\n      dup4\n        /* \"#utility.yul\":1687:1694   */\n      dup6\n        /* \"#utility.yul\":1683:1706   */\n      sub\n        /* \"#utility.yul\":1679:1711   */\n      slt\n        /* \"#utility.yul\":1676:1795   */\n      iszero\n      tag_110\n      jumpi\n        /* \"#utility.yul\":1714:1793   */\n      tag_111\n      tag_98\n      jump\t// in\n    tag_111:\n        /* \"#utility.yul\":1676:1795   */\n    tag_110:\n        /* \"#utility.yul\":1834:1835   */\n      0x00\n        /* \"#utility.yul\":1859:1912   */\n      tag_112\n        /* \"#utility.yul\":1904:1911   */\n      dup6\n        /* \"#utility.yul\":1895:1901   */\n      dup3\n        /* \"#utility.yul\":1884:1893   */\n      dup7\n        /* \"#utility.yul\":1880:1902   */\n      add\n        /* \"#utility.yul\":1859:1912   */\n      tag_91\n      jump\t// in\n    tag_112:\n        /* \"#utility.yul\":1849:1912   */\n      swap3\n      pop\n        /* \"#utility.yul\":1805:1922   */\n      pop\n        /* \"#utility.yul\":1961:1963   */\n      0x20\n        /* \"#utility.yul\":1987:2037   */\n      tag_113\n        /* \"#utility.yul\":2029:2036   */\n      dup6\n        /* \"#utility.yul\":2020:2026   */\n      dup3\n        /* \"#utility.yul\":2009:2018   */\n      dup7\n        /* \"#utility.yul\":2005:2027   */\n      add\n        /* \"#utility.yul\":1987:2037   */\n      tag_87\n      jump\t// in\n    tag_113:\n        /* \"#utility.yul\":1977:2037   */\n      swap2\n      pop\n        /* \"#utility.yul\":1932:2047   */\n      pop\n        /* \"#utility.yul\":1586:2054   */\n      swap3\n      pop\n      swap3\n      swap1\n      pop\n      jump\t// out\n        /* \"#utility.yul\":2060:2169   */\n    tag_114:\n        /* \"#utility.yul\":2141:2162   */\n      tag_116\n        /* \"#utility.yul\":2156:2161   */\n      dup2\n        /* \"#utility.yul\":2141:2162   */\n      tag_117\n      jump\t// in\n    tag_116:\n        /* \"#utility.yul\":2136:2139   */\n      dup3\n        /* \"#utility.yul\":2129:2163   */\n      mstore\n        /* \"#utility.yul\":2060:2169   */\n      pop\n      pop\n      jump\t// out\n        /* \"#utility.yul\":2175:2539   */\n    tag_118:\n        /* \"#utility.yul\":2263:2266   */\n      0x00\n        /* \"#utility.yul\":2291:2330   */\n      tag_120\n        /* \"#utility.yul\":2324:2329   */\n      dup3\n        /* \"#utility.yul\":2291:2330   */\n      tag_121\n      jump\t// in\n    tag_120:\n        /* \"#utility.yul\":2346:2417   */\n      tag_122\n        /* \"#utility.yul\":2410:2416   */\n      dup2\n        /* \"#utility.yul\":2405:2408   */\n      dup6\n        /* \"#utility.yul\":2346:2417   */\n      tag_123\n      jump\t// in\n    tag_122:\n        /* \"#utility.yul\":2339:2417   */\n      swap4\n      pop\n        /* \"#utility.yul\":2426:2478   */\n      tag_124\n        /* \"#utility.yul\":2471:2477   */\n      dup2\n        /* \"#utility.yul\":2466:2469   */\n      dup6\n        /* \"#utility.yul\":2459:2463   */\n      0x20\n        /* \"#utility.yul\":2452:2457   */\n      dup7\n        /* \"#utility.yul\":2448:2464   */\n      add\n        /* \"#utility.yul\":2426:2478   */\n      tag_125\n      jump\t// in\n    tag_124:\n        /* \"#utility.yul\":2503:2532   */\n      tag_126\n        /* \"#utility.yul\":2525:2531   */\n      dup2\n        /* \"#utility.yul\":2503:2532   */\n      tag_127\n      jump\t// in\n    tag_126:\n        /* \"#utility.yul\":2498:2501   */\n      dup5\n        /* \"#utility.yul\":2494:2533   */\n      add\n        /* \"#utility.yul\":2487:2533   */\n      swap2\n      pop\n        /* \"#utility.yul\":2267:2539   */\n      pop\n        /* \"#utility.yul\":2175:2539   */\n      swap3\n      swap2\n      pop\n      pop\n      jump\t// out\n        /* \"#utility.yul\":2545:2911   */\n    tag_128:\n        /* \"#utility.yul\":2687:2690   */\n      0x00\n        /* \"#utility.yul\":2708:2775   */\n      tag_130\n        /* \"#utility.yul\":2772:2774   */\n      0x1c\n        /* \"#utility.yul\":2767:2770   */\n      dup4\n        /* \"#utility.yul\":2708:2775   */\n      tag_123\n      jump\t// in\n    tag_130:\n        /* \"#utility.yul\":2701:2775   */\n      swap2\n      pop\n        /* \"#utility.yul\":2784:2877   */\n      tag_131\n        /* \"#utility.yul\":2873:2876   */\n      dup3\n        /* \"#utility.yul\":2784:2877   */\n      tag_132\n      jump\t// in\n    tag_131:\n        /* \"#utility.yul\":2902:2904   */\n      0x20\n        /* \"#utility.yul\":2897:2900   */\n      dup3\n        /* \"#utility.yul\":2893:2905   */\n      add\n        /* \"#utility.yul\":2886:2905   */\n      swap1\n      pop\n        /* \"#utility.yul\":2545:2911   */\n      swap2\n      swap1\n      pop\n      jump\t// out\n        /* \"#utility.yul\":2917:3035   */\n    tag_133:\n        /* \"#utility.yul\":3004:3028   */\n      tag_135\n        /* \"#utility.yul\":3022:3027   */\n      dup2\n        /* \"#utility.yul\":3004:3028   */\n      tag_136\n      jump\t// in\n    tag_135:\n        /* \"#utility.yul\":2999:3002   */\n      dup3\n        /* \"#utility.yul\":2992:3029   */\n      mstore\n        /* \"#utility.yul\":2917:3035   */\n      pop\n      pop\n      jump\t// out\n        /* \"#utility.yul\":3041:3251   */\n    tag_44:\n        /* \"#utility.yul\":3128:3132   */\n      0x00\n        /* \"#utility.yul\":3166:3168   */\n      0x20\n        /* \"#utility.yul\":3155:3164   */\n      dup3\n        /* \"#utility.yul\":3151:3169   */\n      add\n        /* \"#utility.yul\":3143:3169   */\n      swap1\n      pop\n        /* \"#utility.yul\":3179:3244   */\n      tag_138\n        /* \"#utility.yul\":3241:3242   */\n      0x00\n        /* \"#utility.yul\":3230:3239   */\n      dup4\n        /* \"#utility.yul\":3226:3243   */\n      add\n        /* \"#utility.yul\":3217:3223   */\n      dup5\n        /* \"#utility.yul\":3179:3244   */\n      tag_114\n      jump\t// in\n    tag_138:\n        /* \"#utility.yul\":3041:3251   */\n      swap3\n      swap2\n      pop\n      pop\n      jump\t// out\n        /* \"#utility.yul\":3257:3570   */\n    tag_26:\n        /* \"#utility.yul\":3370:3374   */\n      0x00\n        /* \"#utility.yul\":3408:3410   */\n      0x20\n        /* \"#utility.yul\":3397:3406   */\n      dup3\n        /* \"#utility.yul\":3393:3411   */\n      add\n        /* \"#utility.yul\":3385:3411   */\n      swap1\n      pop\n        /* \"#utility.yul\":3457:3466   */\n      dup2\n        /* \"#utility.yul\":3451:3455   */\n      dup2\n        /* \"#utility.yul\":3447:3467   */\n      sub\n        /* \"#utility.yul\":3443:3444   */\n      0x00\n        /* \"#utility.yul\":3432:3441   */\n      dup4\n        /* \"#utility.yul\":3428:3445   */\n      add\n        /* \"#utility.yul\":3421:3468   */\n      mstore\n        /* \"#utility.yul\":3485:3563   */\n      tag_140\n        /* \"#utility.yul\":3558:3562   */\n      dup2\n        /* \"#utility.yul\":3549:3555   */\n      dup5\n        /* \"#utility.yul\":3485:3563   */\n      tag_118\n      jump\t// in\n    tag_140:\n        /* \"#utility.yul\":3477:3563   */\n      swap1\n      pop\n        /* \"#utility.yul\":3257:3570   */\n      swap3\n      swap2\n      pop\n      pop\n      jump\t// out\n        /* \"#utility.yul\":3576:3995   */\n    tag_72:\n        /* \"#utility.yul\":3742:3746   */\n      0x00\n        /* \"#utility.yul\":3780:3782   */\n      0x20\n        /* \"#utility.yul\":3769:3778   */\n      dup3\n        /* \"#utility.yul\":3765:3783   */\n      add\n        /* \"#utility.yul\":3757:3783   */\n      swap1\n      pop\n        /* \"#utility.yul\":3829:3838   */\n      dup2\n        /* \"#utility.yul\":3823:3827   */\n      dup2\n        /* \"#utility.yul\":3819:3839   */\n      sub\n        /* \"#utility.yul\":3815:3816   */\n      0x00\n        /* \"#utility.yul\":3804:3813   */\n      dup4\n        /* \"#utility.yul\":3800:3817   */\n      add\n        /* \"#utility.yul\":3793:3840   */\n      mstore\n        /* \"#utility.yul\":3857:3988   */\n      tag_142\n        /* \"#utility.yul\":3983:3987   */\n      dup2\n        /* \"#utility.yul\":3857:3988   */\n      tag_128\n      jump\t// in\n    tag_142:\n        /* \"#utility.yul\":3849:3988   */\n      swap1\n      pop\n        /* \"#utility.yul\":3576:3995   */\n      swap2\n      swap1\n      pop\n      jump\t// out\n        /* \"#utility.yul\":4001:4223   */\n    tag_17:\n        /* \"#utility.yul\":4094:4098   */\n      0x00\n        /* \"#utility.yul\":4132:4134   */\n      0x20\n        /* \"#utility.yul\":4121:4130   */\n      dup3\n        /* \"#utility.yul\":4117:4135   */\n      add\n        /* \"#utility.yul\":4109:4135   */\n      swap1\n      pop\n        /* \"#utility.yul\":4145:4216   */\n      tag_144\n        /* \"#utility.yul\":4213:4214   */\n      0x00\n        /* \"#utility.yul\":4202:4211   */\n      dup4\n        /* \"#utility.yul\":4198:4215   */\n      add\n        /* \"#utility.yul\":4189:4195   */\n      dup5\n        /* \"#utility.yul\":4145:4216   */\n      tag_133\n      jump\t// in\n    tag_144:\n        /* \"#utility.yul\":4001:4223   */\n      swap3\n      swap2\n      pop\n      pop\n      jump\t// out\n        /* \"#utility.yul\":4310:4409   */\n    tag_121:\n        /* \"#utility.yul\":4362:4368   */\n      0x00\n        /* \"#utility.yul\":4396:4401   */\n      dup2\n        /* \"#utility.yul\":4390:4402   */\n      mload\n        /* \"#utility.yul\":4380:4402   */\n      swap1\n      pop\n        /* \"#utility.yul\":4310:4409   */\n      swap2\n      swap1\n      pop\n      jump\t// out\n        /* \"#utility.yul\":4415:4584   */\n    tag_123:\n        /* \"#utility.yul\":4499:4510   */\n      0x00\n        /* \"#utility.yul\":4533:4539   */\n      dup3\n        /* \"#utility.yul\":4528:4531   */\n      dup3\n        /* \"#utility.yul\":4521:4540   */\n      mstore\n        /* \"#utility.yul\":4573:4577   */\n      0x20\n        /* \"#utility.yul\":4568:4571   */\n      dup3\n        /* \"#utility.yul\":4564:4578   */\n      add\n        /* \"#utility.yul\":4549:4578   */\n      swap1\n      pop\n        /* \"#utility.yul\":4415:4584   */\n      swap3\n      swap2\n      pop\n      pop\n      jump\t// out\n        /* \"#utility.yul\":4590:4895   */\n    tag_79:\n        /* \"#utility.yul\":4630:4633   */\n      0x00\n        /* \"#utility.yul\":4649:4669   */\n      tag_150\n        /* \"#utility.yul\":4667:4668   */\n      dup3\n        /* \"#utility.yul\":4649:4669   */\n      tag_136\n      jump\t// in\n    tag_150:\n        /* \"#utility.yul\":4644:4669   */\n      swap2\n      pop\n        /* \"#utility.yul\":4683:4703   */\n      tag_151\n        /* \"#utility.yul\":4701:4702   */\n      dup4\n        /* \"#utility.yul\":4683:4703   */\n      tag_136\n      jump\t// in\n    tag_151:\n        /* \"#utility.yul\":4678:4703   */\n      swap3\n      pop\n        /* \"#utility.yul\":4837:4838   */\n      dup3\n        /* \"#utility.yul\":4769:4835   */\n      0xffffffffffffffffffffffffffffffffffffffffffffffffffffffffffffffff\n        /* \"#utility.yul\":4765:4839   */\n      sub\n        /* \"#utility.yul\":4762:4763   */\n      dup3\n        /* \"#utility.yul\":4759:4840   */\n      gt\n        /* \"#utility.yul\":4756:4863   */\n      iszero\n      tag_152\n      jumpi\n        /* \"#utility.yul\":4843:4861   */\n      tag_153\n      tag_154\n      jump\t// in\n    tag_153:\n        /* \"#utility.yul\":4756:4863   */\n    tag_152:\n        /* \"#utility.yul\":4887:4888   */\n      dup3\n        /* \"#utility.yul\":4884:4885   */\n      dup3\n        /* \"#utility.yul\":4880:4889   */\n      add\n        /* \"#utility.yul\":4873:4889   */\n      swap1\n      pop\n        /* \"#utility.yul\":4590:4895   */\n      swap3\n      swap2\n      pop\n      pop\n      jump\t// out\n        /* \"#utility.yul\":4901:5249   */\n    tag_69:\n        /* \"#utility.yul\":4941:4948   */\n      0x00\n        /* \"#utility.yul\":4964:4984   */\n      tag_156\n        /* \"#utility.yul\":4982:4983   */\n      dup3\n        /* \"#utility.yul\":4964:4984   */\n      tag_136\n      jump\t// in\n    tag_156:\n        /* \"#utility.yul\":4959:4984   */\n      swap2\n      pop\n        /* \"#utility.yul\":4998:5018   */\n      tag_157\n        /* \"#utility.yul\":5016:5017   */\n      dup4\n        /* \"#utility.yul\":4998:5018   */\n      tag_136\n      jump\t// in\n    tag_157:\n        /* \"#utility.yul\":4993:5018   */\n      swap3\n      pop\n        /* \"#utility.yul\":5186:5187   */\n      dup2\n        /* \"#utility.yul\":5118:5184   */\n      0xffffffffffffffffffffffffffffffffffffffffffffffffffffffffffffffff\n        /* \"#utility.yul\":5114:5188   */\n      div\n        /* \"#utility.yul\":5111:5112   */\n      dup4\n        /* \"#utility.yul\":5108:5189   */\n      gt\n        /* \"#utility.yul\":5103:5104   */\n      dup3\n        /* \"#utility.yul\":5096:5105   */\n      iszero\n        /* \"#utility.yul\":5089:5106   */\n      iszero\n        /* \"#utility.yul\":5085:5190   */\n      and\n        /* \"#utility.yul\":5082:5213   */\n      iszero\n      tag_158\n      jumpi\n        /* \"#utility.yul\":5193:5211   */\n      tag_159\n      tag_154\n      jump\t// in\n    tag_159:\n        /* \"#utility.yul\":5082:5213   */\n    tag_158:\n        /* \"#utility.yul\":5241:5242   */\n      dup3\n        /* \"#utility.yul\":5238:5239   */\n      dup3\n        /* \"#utility.yul\":5234:5243   */\n      mul\n        /* \"#utility.yul\":5223:5243   */\n      swap1\n      pop\n        /* \"#utility.yul\":4901:5249   */\n      swap3\n      swap2\n      pop\n      pop\n      jump\t// out\n        /* \"#utility.yul\":5255:5446   */\n    tag_74:\n        /* \"#utility.yul\":5295:5299   */\n      0x00\n        /* \"#utility.yul\":5315:5335   */\n      tag_161\n        /* \"#utility.yul\":5333:5334   */\n      dup3\n        /* \"#utility.yul\":5315:5335   */\n      tag_136\n      jump\t// in\n    tag_161:\n        /* \"#utility.yul\":5310:5335   */\n      swap2\n      pop\n        /* \"#utility.yul\":5349:5369   */\n      tag_162\n        /* \"#utility.yul\":5367:5368   */\n      dup4\n        /* \"#utility.yul\":5349:5369   */\n      tag_136\n      jump\t// in\n    tag_162:\n        /* \"#utility.yul\":5344:5369   */\n      swap3\n      pop\n        /* \"#utility.yul\":5388:5389   */\n      dup3\n        /* \"#utility.yul\":5385:5386   */\n      dup3\n        /* \"#utility.yul\":5382:5390   */\n      lt\n        /* \"#utility.yul\":5379:5413   */\n      iszero\n      tag_163\n      jumpi\n        /* \"#utility.yul\":5393:5411   */\n      tag_164\n      tag_154\n      jump\t// in\n    tag_164:\n        /* \"#utility.yul\":5379:5413   */\n    tag_163:\n        /* \"#utility.yul\":5438:5439   */\n      dup3\n        /* \"#utility.yul\":5435:5436   */\n      dup3\n        /* \"#utility.yul\":5431:5440   */\n      sub\n        /* \"#utility.yul\":5423:5440   */\n      swap1\n      pop\n        /* \"#utility.yul\":5255:5446   */\n      swap3\n      swap2\n      pop\n      pop\n      jump\t// out\n        /* \"#utility.yul\":5452:5548   */\n    tag_165:\n        /* \"#utility.yul\":5489:5496   */\n      0x00\n        /* \"#utility.yul\":5518:5542   */\n      tag_167\n        /* \"#utility.yul\":5536:5541   */\n      dup3\n        /* \"#utility.yul\":5518:5542   */\n      tag_168\n      jump\t// in\n    tag_167:\n        /* \"#utility.yul\":5507:5542   */\n      swap1\n      pop\n        /* \"#utility.yul\":5452:5548   */\n      swap2\n      swap1\n      pop\n      jump\t// out\n        /* \"#utility.yul\":5554:5644   */\n    tag_117:\n        /* \"#utility.yul\":5588:5595   */\n      0x00\n        /* \"#utility.yul\":5631:5636   */\n      dup2\n        /* \"#utility.yul\":5624:5637   */\n      iszero\n        /* \"#utility.yul\":5617:5638   */\n      iszero\n        /* \"#utility.yul\":5606:5638   */\n      swap1\n      pop\n        /* \"#utility.yul\":5554:5644   */\n      swap2\n      swap1\n      pop\n      jump\t// out\n        /* \"#utility.yul\":5650:5776   */\n    tag_168:\n        /* \"#utility.yul\":5687:5694   */\n      0x00\n        /* \"#utility.yul\":5727:5769   */\n      0xffffffffffffffffffffffffffffffffffffffff\n        /* \"#utility.yul\":5720:5725   */\n      dup3\n        /* \"#utility.yul\":5716:5770   */\n      and\n        /* \"#utility.yul\":5705:5770   */\n      swap1\n      pop\n        /* \"#utility.yul\":5650:5776   */\n      swap2\n      swap1\n      pop\n      jump\t// out\n        /* \"#utility.yul\":5782:5859   */\n    tag_136:\n        /* \"#utility.yul\":5819:5826   */\n      0x00\n        /* \"#utility.yul\":5848:5853   */\n      dup2\n        /* \"#utility.yul\":5837:5853   */\n      swap1\n      pop\n        /* \"#utility.yul\":5782:5859   */\n      swap2\n      swap1\n      pop\n      jump\t// out\n        /* \"#utility.yul\":5865:6172   */\n    tag_125:\n        /* \"#utility.yul\":5933:5934   */\n      0x00\n        /* \"#utility.yul\":5943:6056   */\n    tag_173:\n        /* \"#utility.yul\":5957:5963   */\n      dup4\n        /* \"#utility.yul\":5954:5955   */\n      dup2\n        /* \"#utility.yul\":5951:5964   */\n      lt\n        /* \"#utility.yul\":5943:6056   */\n      iszero\n      tag_175\n      jumpi\n        /* \"#utility.yul\":6042:6043   */\n      dup1\n        /* \"#utility.yul\":6037:6040   */\n      dup3\n        /* \"#utility.yul\":6033:6044   */\n      add\n        /* \"#utility.yul\":6027:6045   */\n      mload\n        /* \"#utility.yul\":6023:6024   */\n      dup2\n        /* \"#utility.yul\":6018:6021   */\n      dup5\n        /* \"#utility.yul\":6014:6025   */\n      add\n        /* \"#utility.yul\":6007:6046   */\n      mstore\n        /* \"#utility.yul\":5979:5981   */\n      0x20\n        /* \"#utility.yul\":5976:5977   */\n      dup2\n        /* \"#utility.yul\":5972:5982   */\n      add\n        /* \"#utility.yul\":5967:5982   */\n      swap1\n      pop\n        /* \"#utility.yul\":5943:6056   */\n      jump(tag_173)\n    tag_175:\n        /* \"#utility.yul\":6074:6080   */\n      dup4\n        /* \"#utility.yul\":6071:6072   */\n      dup2\n        /* \"#utility.yul\":6068:6081   */\n      gt\n        /* \"#utility.yul\":6065:6166   */\n      iszero\n      tag_176\n      jumpi\n        /* \"#utility.yul\":6154:6155   */\n      0x00\n        /* \"#utility.yul\":6145:6151   */\n      dup5\n        /* \"#utility.yul\":6140:6143   */\n      dup5\n        /* \"#utility.yul\":6136:6152   */\n      add\n        /* \"#utility.yul\":6129:6156   */\n      mstore\n        /* \"#utility.yul\":6065:6166   */\n    tag_176:\n        /* \"#utility.yul\":5914:6172   */\n      pop\n        /* \"#utility.yul\":5865:6172   */\n      pop\n      pop\n      pop\n      jump\t// out\n        /* \"#utility.yul\":6178:6498   */\n    tag_62:\n        /* \"#utility.yul\":6222:6228   */\n      0x00\n        /* \"#utility.yul\":6259:6260   */\n      0x02\n        /* \"#utility.yul\":6253:6257   */\n      dup3\n        /* \"#utility.yul\":6249:6261   */\n      div\n        /* \"#utility.yul\":6239:6261   */\n      swap1\n      pop\n        /* \"#utility.yul\":6306:6307   */\n      0x01\n        /* \"#utility.yul\":6300:6304   */\n      dup3\n        /* \"#utility.yul\":6296:6308   */\n      and\n        /* \"#utility.yul\":6327:6345   */\n      dup1\n        /* \"#utility.yul\":6317:6398   */\n      tag_178\n      jumpi\n        /* \"#utility.yul\":6383:6387   */\n      0x7f\n        /* \"#utility.yul\":6375:6381   */\n      dup3\n        /* \"#utility.yul\":6371:6388   */\n      and\n        /* \"#utility.yul\":6361:6388   */\n      swap2\n      pop\n        /* \"#utility.yul\":6317:6398   */\n    tag_178:\n        /* \"#utility.yul\":6445:6447   */\n      0x20\n        /* \"#utility.yul\":6437:6443   */\n      dup3\n        /* \"#utility.yul\":6434:6448   */\n      lt\n        /* \"#utility.yul\":6414:6432   */\n      dup2\n        /* \"#utility.yul\":6411:6449   */\n      eq\n        /* \"#utility.yul\":6408:6492   */\n      iszero\n      tag_179\n      jumpi\n        /* \"#utility.yul\":6464:6482   */\n      tag_180\n      tag_181\n      jump\t// in\n    tag_180:\n        /* \"#utility.yul\":6408:6492   */\n    tag_179:\n        /* \"#utility.yul\":6229:6498   */\n      pop\n        /* \"#utility.yul\":6178:6498   */\n      swap2\n      swap1\n      pop\n      jump\t// out\n        /* \"#utility.yul\":6504:6684   */\n    tag_154:\n        /* \"#utility.yul\":6552:6629   */\n      0x4e487b7100000000000000000000000000000000000000000000000000000000\n        /* \"#utility.yul\":6549:6550   */\n      0x00\n        /* \"#utility.yul\":6542:6630   */\n      mstore\n        /* \"#utility.yul\":6649:6653   */\n      0x11\n        /* \"#utility.yul\":6646:6647   */\n      0x04\n        /* \"#utility.yul\":6639:6654   */\n      mstore\n        /* \"#utility.yul\":6673:6677   */\n      0x24\n        /* \"#utility.yul\":6670:6671   */\n      0x00\n        /* \"#utility.yul\":6663:6678   */\n      revert\n        /* \"#utility.yul\":6690:6870   */\n    tag_181:\n        /* \"#utility.yul\":6738:6815   */\n      0x4e487b7100000000000000000000000000000000000000000000000000000000\n        /* \"#utility.yul\":6735:6736   */\n      0x00\n        /* \"#utility.yul\":6728:6816   */\n      mstore\n        /* \"#utility.yul\":6835:6839   */\n      0x22\n        /* \"#utility.yul\":6832:6833   */\n      0x04\n        /* \"#utility.yul\":6825:6840   */\n      mstore\n        /* \"#utility.yul\":6859:6863   */\n      0x24\n        /* \"#utility.yul\":6856:6857   */\n      0x00\n        /* \"#utility.yul\":6849:6864   */\n      revert\n        /* \"#utility.yul\":6999:7116   */\n    tag_98:\n        /* \"#utility.yul\":7108:7109   */\n      0x00\n        /* \"#utility.yul\":7105:7106   */\n      dup1\n        /* \"#utility.yul\":7098:7110   */\n      revert\n        /* \"#utility.yul\":7122:7224   */\n    tag_127:\n        /* \"#utility.yul\":7163:7169   */\n      0x00\n        /* \"#utility.yul\":7214:7216   */\n      0x1f\n        /* \"#utility.yul\":7210:7217   */\n      not\n        /* \"#utility.yul\":7205:7207   */\n      0x1f\n        /* \"#utility.yul\":7198:7203   */\n      dup4\n        /* \"#utility.yul\":7194:7208   */\n      add\n        /* \"#utility.yul\":7190:7218   */\n      and\n        /* \"#utility.yul\":7180:7218   */\n      swap1\n      pop\n        /* \"#utility.yul\":7122:7224   */\n      swap2\n      swap1\n      pop\n      jump\t// out\n        /* \"#utility.yul\":7230:7408   */\n    tag_132:\n        /* \"#utility.yul\":7370:7400   */\n      0x4e6f7420656e6f756768206d6f6e657920746f20776974686472617700000000\n        /* \"#utility.yul\":7366:7367   */\n      0x00\n        /* \"#utility.yul\":7358:7364   */\n      dup3\n        /* \"#utility.yul\":7354:7368   */\n      add\n        /* \"#utility.yul\":7347:7401   */\n      mstore\n        /* \"#utility.yul\":7230:7408   */\n      pop\n      jump\t// out\n        /* \"#utility.yul\":7414:7536   */\n    tag_86:\n        /* \"#utility.yul\":7487:7511   */\n      tag_190\n        /* \"#utility.yul\":7505:7510   */\n      dup2\n        /* \"#utility.yul\":7487:7511   */\n      tag_165\n      jump\t// in\n    tag_190:\n        /* \"#utility.yul\":7480:7485   */\n      dup2\n        /* \"#utility.yul\":7477:7512   */\n      eq\n        /* \"#utility.yul\":7467:7530   */\n      tag_191\n      jumpi\n        /* \"#utility.yul\":7526:7527   */\n      0x00\n        /* \"#utility.yul\":7523:7524   */\n      dup1\n        /* \"#utility.yul\":7516:7528   */\n      revert\n        /* \"#utility.yul\":7467:7530   */\n    tag_191:\n        /* \"#utility.yul\":7414:7536   */\n      pop\n      jump\t// out\n        /* \"#utility.yul\":7542:7658   */\n    tag_90:\n        /* \"#utility.yul\":7612:7633   */\n      tag_193\n        /* \"#utility.yul\":7627:7632   */\n      dup2\n        /* \"#utility.yul\":7612:7633   */\n      tag_117\n      jump\t// in\n    tag_193:\n        /* \"#utility.yul\":7605:7610   */\n      dup2\n        /* \"#utility.yul\":7602:7634   */\n      eq\n        /* \"#utility.yul\":7592:7652   */\n      tag_194\n      jumpi\n        /* \"#utility.yul\":7648:7649   */\n      0x00\n        /* \"#utility.yul\":7645:7646   */\n      dup1\n        /* \"#utility.yul\":7638:7650   */\n      revert\n        /* \"#utility.yul\":7592:7652   */\n    tag_194:\n        /* \"#utility.yul\":7542:7658   */\n      pop\n      jump\t// out\n        /* \"#utility.yul\":7664:7786   */\n    tag_94:\n        /* \"#utility.yul\":7737:7761   */\n      tag_196\n        /* \"#utility.yul\":7755:7760   */\n      dup2\n        /* \"#utility.yul\":7737:7761   */\n      tag_136\n      jump\t// in\n    tag_196:\n        /* \"#utility.yul\":7730:7735   */\n      dup2\n        /* \"#utility.yul\":7727:7762   */\n      eq\n        /* \"#utility.yul\":7717:7780   */\n      tag_197\n      jumpi\n        /* \"#utility.yul\":7776:7777   */\n      0x00\n        /* \"#utility.yul\":7773:7774   */\n      dup1\n        /* \"#utility.yul\":7766:7778   */\n      revert\n        /* \"#utility.yul\":7717:7780   */\n    tag_197:\n        /* \"#utility.yul\":7664:7786   */\n      pop\n      jump\t// out\n\n    auxdata: 0xa26469706673582212206858bc8664aa9087cd8148c183b23070085ae2244cf19af7bdde2acad28f8b3b64736f6c63430008070033\n}\n",
				"bytecode": {
					"linkReferences": {},
					"object": "608060405234801561001057600080fd5b50610a06806100206000396000f3fe6080604052600436106100915760003560e01c806370db69021161005957806370db69021461014a5780637c6688441461017357806382e33e82146101b0578063c1198ea1146101d9578063dc99be111461021657610091565b806312065fe01461009657806323fd0e40146100c1578063492bfa18146100ec57806354876921146101175780636d26ec1814610140575b600080fd5b3480156100a257600080fd5b506100ab610241565b6040516100b89190610726565b60405180910390f35b3480156100cd57600080fd5b506100d6610249565b6040516100e39190610726565b60405180910390f35b3480156100f857600080fd5b5061010161024f565b60405161010e91906106e4565b60405180910390f35b34801561012357600080fd5b5061013e600480360381019061013991906105e2565b6102dd565b005b61014861041e565b005b34801561015657600080fd5b50610171600480360381019061016c91906105a2565b610476565b005b34801561017f57600080fd5b5061019a600480360381019061019591906105e2565b6104be565b6040516101a791906106c9565b60405180910390f35b3480156101bc57600080fd5b506101d760048036038101906101d2919061060f565b6104de565b005b3480156101e557600080fd5b5061020060048036038101906101fb9190610575565b61050d565b60405161020d9190610726565b60405180910390f35b34801561022257600080fd5b5061022b610525565b60405161023891906106c9565b60405180910390f35b600047905090565b60025481565b6001805461025c906108bc565b80601f0160208091040260200160405190810160405280929190818152602001828054610288906108bc565b80156102d55780601f106102aa576101008083540402835291602001916102d5565b820191906000526020600020905b8154815290600101906020018083116102b857829003601f168201915b505050505081565b6000670de0b6b3a7640000826102f391906107b3565b9050600460003373ffffffffffffffffffffffffffffffffffffffff1673ffffffffffffffffffffffffffffffffffffffff16815260200190815260200160002054811115610377576040517f08c379a000000000000000000000000000000000000000000000000000000000815260040161036e90610706565b60405180910390fd5b80600460003373ffffffffffffffffffffffffffffffffffffffff1673ffffffffffffffffffffffffffffffffffffffff16815260200190815260200160002060008282546103c6919061080d565b9250508190555060003390508073ffffffffffffffffffffffffffffffffffffffff166108fc839081150290604051600060405180830381858888f19350505050158015610418573d6000803e3d6000fd5b50505050565b34600460003373ffffffffffffffffffffffffffffffffffffffff1673ffffffffffffffffffffffffffffffffffffffff168152602001908152602001600020600082825461046d919061075d565b92505081905550565b80600460008473ffffffffffffffffffffffffffffffffffffffff1673ffffffffffffffffffffffffffffffffffffffff168152602001908152602001600020819055505050565b60036020528060005260406000206000915054906101000a900460ff1681565b806003600084815260200190815260200160002060006101000a81548160ff0219169083151502179055505050565b60046020528060005260406000206000915090505481565b60008054906101000a900460ff1681565b6000813590506105458161098b565b92915050565b60008135905061055a816109a2565b92915050565b60008135905061056f816109b9565b92915050565b60006020828403121561058b5761058a61094c565b5b600061059984828501610536565b91505092915050565b600080604083850312156105b9576105b861094c565b5b60006105c785828601610536565b92505060206105d885828601610560565b9150509250929050565b6000602082840312156105f8576105f761094c565b5b600061060684828501610560565b91505092915050565b600080604083850312156106265761062561094c565b5b600061063485828601610560565b92505060206106458582860161054b565b9150509250929050565b61065881610853565b82525050565b600061066982610741565b610673818561074c565b9350610683818560208601610889565b61068c81610951565b840191505092915050565b60006106a4601c8361074c565b91506106af82610962565b602082019050919050565b6106c38161087f565b82525050565b60006020820190506106de600083018461064f565b92915050565b600060208201905081810360008301526106fe818461065e565b905092915050565b6000602082019050818103600083015261071f81610697565b9050919050565b600060208201905061073b60008301846106ba565b92915050565b600081519050919050565b600082825260208201905092915050565b60006107688261087f565b91506107738361087f565b9250827fffffffffffffffffffffffffffffffffffffffffffffffffffffffffffffffff038211156107a8576107a76108ee565b5b828201905092915050565b60006107be8261087f565b91506107c98361087f565b9250817fffffffffffffffffffffffffffffffffffffffffffffffffffffffffffffffff0483118215151615610802576108016108ee565b5b828202905092915050565b60006108188261087f565b91506108238361087f565b925082821015610836576108356108ee565b5b828203905092915050565b600061084c8261085f565b9050919050565b60008115159050919050565b600073ffffffffffffffffffffffffffffffffffffffff82169050919050565b6000819050919050565b60005b838110156108a757808201518184015260208101905061088c565b838111156108b6576000848401525b50505050565b600060028204905060018216806108d457607f821691505b602082108114156108e8576108e761091d565b5b50919050565b7f4e487b7100000000000000000000000000000000000000000000000000000000600052601160045260246000fd5b7f4e487b7100000000000000000000000000000000000000000000000000000000600052602260045260246000fd5b600080fd5b6000601f19601f8301169050919050565b7f4e6f7420656e6f756768206d6f6e657920746f20776974686472617700000000600082015250565b61099481610841565b811461099f57600080fd5b50565b6109ab81610853565b81146109b657600080fd5b50565b6109c28161087f565b81146109cd57600080fd5b5056fea26469706673582212206858bc8664aa9087cd8148c183b23070085ae2244cf19af7bdde2acad28f8b3b64736f6c63430008070033",
					"opcodes": "PUSH1 0x80 PUSH1 0x40 MSTORE CALLVALUE DUP1 ISZERO PUSH2 0x10 JUMPI PUSH1 0x0 DUP1 REVERT JUMPDEST POP PUSH2 0xA06 DUP1 PUSH2 0x20 PUSH1 0x0 CODECOPY PUSH1 0x0 RETURN INVALID PUSH1 0x80 PUSH1 0x40 MSTORE PUSH1 0x4 CALLDATASIZE LT PUSH2 0x91 JUMPI PUSH1 0x0 CALLDATALOAD PUSH1 0xE0 SHR DUP1 PUSH4 0x70DB6902 GT PUSH2 0x59 JUMPI DUP1 PUSH4 0x70DB6902 EQ PUSH2 0x14A JUMPI DUP1 PUSH4 0x7C668844 EQ PUSH2 0x173 JUMPI DUP1 PUSH4 0x82E33E82 EQ PUSH2 0x1B0 JUMPI DUP1 PUSH4 0xC1198EA1 EQ PUSH2 0x1D9 JUMPI DUP1 PUSH4 0xDC99BE11 EQ PUSH2 0x216 JUMPI PUSH2 0x91 JUMP JUMPDEST DUP1 PUSH4 0x12065FE0 EQ PUSH2 0x96 JUMPI DUP1 PUSH4 0x23FD0E40 EQ PUSH2 0xC1 JUMPI DUP1 PUSH4 0x492BFA18 EQ PUSH2 0xEC JUMPI DUP1 PUSH4 0x54876921 EQ PUSH2 0x117 JUMPI DUP1 PUSH4 0x6D26EC18 EQ PUSH2 0x140 JUMPI JUMPDEST PUSH1 0x0 DUP1 REVERT JUMPDEST CALLVALUE DUP1 ISZERO PUSH2 0xA2 JUMPI PUSH1 0x0 DUP1 REVERT JUMPDEST POP PUSH2 0xAB PUSH2 0x241 JUMP JUMPDEST PUSH1 0x40 MLOAD PUSH2 0xB8 SWAP2 SWAP1 PUSH2 0x726 JUMP JUMPDEST PUSH1 0x40 MLOAD DUP1 SWAP2 SUB SWAP1 RETURN JUMPDEST CALLVALUE DUP1 ISZERO PUSH2 0xCD JUMPI PUSH1 0x0 DUP1 REVERT JUMPDEST POP PUSH2 0xD6 PUSH2 0x249 JUMP JUMPDEST PUSH1 0x40 MLOAD PUSH2 0xE3 SWAP2 SWAP1 PUSH2 0x726 JUMP JUMPDEST PUSH1 0x40 MLOAD DUP1 SWAP2 SUB SWAP1 RETURN JUMPDEST CALLVALUE DUP1 ISZERO PUSH2 0xF8 JUMPI PUSH1 0x0 DUP1 REVERT JUMPDEST POP PUSH2 0x101 PUSH2 0x24F JUMP JUMPDEST PUSH1 0x40 MLOAD PUSH2 0x10E SWAP2 SWAP1 PUSH2 0x6E4 JUMP JUMPDEST PUSH1 0x40 MLOAD DUP1 SWAP2 SUB SWAP1 RETURN JUMPDEST CALLVALUE DUP1 ISZERO PUSH2 0x123 JUMPI PUSH1 0x0 DUP1 REVERT JUMPDEST POP PUSH2 0x13E PUSH1 0x4 DUP1 CALLDATASIZE SUB DUP2 ADD SWAP1 PUSH2 0x139 SWAP2 SWAP1 PUSH2 0x5E2 JUMP JUMPDEST PUSH2 0x2DD JUMP JUMPDEST STOP JUMPDEST PUSH2 0x148 PUSH2 0x41E JUMP JUMPDEST STOP JUMPDEST CALLVALUE DUP1 ISZERO PUSH2 0x156 JUMPI PUSH1 0x0 DUP1 REVERT JUMPDEST POP PUSH2 0x171 PUSH1 0x4 DUP1 CALLDATASIZE SUB DUP2 ADD SWAP1 PUSH2 0x16C SWAP2 SWAP1 PUSH2 0x5A2 JUMP JUMPDEST PUSH2 0x476 JUMP JUMPDEST STOP JUMPDEST CALLVALUE DUP1 ISZERO PUSH2 0x17F JUMPI PUSH1 0x0 DUP1 REVERT JUMPDEST POP PUSH2 0x19A PUSH1 0x4 DUP1 CALLDATASIZE SUB DUP2 ADD SWAP1 PUSH2 0x195 SWAP2 SWAP1 PUSH2 0x5E2 JUMP JUMPDEST PUSH2 0x4BE JUMP JUMPDEST PUSH1 0x40 MLOAD PUSH2 0x1A7 SWAP2 SWAP1 PUSH2 0x6C9 JUMP JUMPDEST PUSH1 0x40 MLOAD DUP1 SWAP2 SUB SWAP1 RETURN JUMPDEST CALLVALUE DUP1 ISZERO PUSH2 0x1BC JUMPI PUSH1 0x0 DUP1 REVERT JUMPDEST POP PUSH2 0x1D7 PUSH1 0x4 DUP1 CALLDATASIZE SUB DUP2 ADD SWAP1 PUSH2 0x1D2 SWAP2 SWAP1 PUSH2 0x60F JUMP JUMPDEST PUSH2 0x4DE JUMP JUMPDEST STOP JUMPDEST CALLVALUE DUP1 ISZERO PUSH2 0x1E5 JUMPI PUSH1 0x0 DUP1 REVERT JUMPDEST POP PUSH2 0x200 PUSH1 0x4 DUP1 CALLDATASIZE SUB DUP2 ADD SWAP1 PUSH2 0x1FB SWAP2 SWAP1 PUSH2 0x575 JUMP JUMPDEST PUSH2 0x50D JUMP JUMPDEST PUSH1 0x40 MLOAD PUSH2 0x20D SWAP2 SWAP1 PUSH2 0x726 JUMP JUMPDEST PUSH1 0x40 MLOAD DUP1 SWAP2 SUB SWAP1 RETURN JUMPDEST CALLVALUE DUP1 ISZERO PUSH2 0x222 JUMPI PUSH1 0x0 DUP1 REVERT JUMPDEST POP PUSH2 0x22B PUSH2 0x525 JUMP JUMPDEST PUSH1 0x40 MLOAD PUSH2 0x238 SWAP2 SWAP1 PUSH2 0x6C9 JUMP JUMPDEST PUSH1 0x40 MLOAD DUP1 SWAP2 SUB SWAP1 RETURN JUMPDEST PUSH1 0x0 SELFBALANCE SWAP1 POP SWAP1 JUMP JUMPDEST PUSH1 0x2 SLOAD DUP2 JUMP JUMPDEST PUSH1 0x1 DUP1 SLOAD PUSH2 0x25C SWAP1 PUSH2 0x8BC JUMP JUMPDEST DUP1 PUSH1 0x1F ADD PUSH1 0x20 DUP1 SWAP2 DIV MUL PUSH1 0x20 ADD PUSH1 0x40 MLOAD SWAP1 DUP2 ADD PUSH1 0x40 MSTORE DUP1 SWAP3 SWAP2 SWAP1 DUP2 DUP2 MSTORE PUSH1 0x20 ADD DUP3 DUP1 SLOAD PUSH2 0x288 SWAP1 PUSH2 0x8BC JUMP JUMPDEST DUP1 ISZERO PUSH2 0x2D5 JUMPI DUP1 PUSH1 0x1F LT PUSH2 0x2AA JUMPI PUSH2 0x100 DUP1 DUP4 SLOAD DIV MUL DUP4 MSTORE SWAP2 PUSH1 0x20 ADD SWAP2 PUSH2 0x2D5 JUMP JUMPDEST DUP3 ADD SWAP2 SWAP1 PUSH1 0x0 MSTORE PUSH1 0x20 PUSH1 0x0 KECCAK256 SWAP1 JUMPDEST DUP2 SLOAD DUP2 MSTORE SWAP1 PUSH1 0x1 ADD SWAP1 PUSH1 0x20 ADD DUP1 DUP4 GT PUSH2 0x2B8 JUMPI DUP3 SWAP1 SUB PUSH1 0x1F AND DUP3 ADD SWAP2 JUMPDEST POP POP POP POP POP DUP2 JUMP JUMPDEST PUSH1 0x0 PUSH8 0xDE0B6B3A7640000 DUP3 PUSH2 0x2F3 SWAP2 SWAP1 PUSH2 0x7B3 JUMP JUMPDEST SWAP1 POP PUSH1 0x4 PUSH1 0x0 CALLER PUSH20 0xFFFFFFFFFFFFFFFFFFFFFFFFFFFFFFFFFFFFFFFF AND PUSH20 0xFFFFFFFFFFFFFFFFFFFFFFFFFFFFFFFFFFFFFFFF AND DUP2 MSTORE PUSH1 0x20 ADD SWAP1 DUP2 MSTORE PUSH1 0x20 ADD PUSH1 0x0 KECCAK256 SLOAD DUP2 GT ISZERO PUSH2 0x377 JUMPI PUSH1 0x40 MLOAD PUSH32 0x8C379A000000000000000000000000000000000000000000000000000000000 DUP2 MSTORE PUSH1 0x4 ADD PUSH2 0x36E SWAP1 PUSH2 0x706 JUMP JUMPDEST PUSH1 0x40 MLOAD DUP1 SWAP2 SUB SWAP1 REVERT JUMPDEST DUP1 PUSH1 0x4 PUSH1 0x0 CALLER PUSH20 0xFFFFFFFFFFFFFFFFFFFFFFFFFFFFFFFFFFFFFFFF AND PUSH20 0xFFFFFFFFFFFFFFFFFFFFFFFFFFFFFFFFFFFFFFFF AND DUP2 MSTORE PUSH1 0x20 ADD SWAP1 DUP2 MSTORE PUSH1 0x20 ADD PUSH1 0x0 KECCAK256 PUSH1 0x0 DUP3 DUP3 SLOAD PUSH2 0x3C6 SWAP2 SWAP1 PUSH2 0x80D JUMP JUMPDEST SWAP3 POP POP DUP2 SWAP1 SSTORE POP PUSH1 0x0 CALLER SWAP1 POP DUP1 PUSH20 0xFFFFFFFFFFFFFFFFFFFFFFFFFFFFFFFFFFFFFFFF AND PUSH2 0x8FC DUP4 SWAP1 DUP2 ISZERO MUL SWAP1 PUSH1 0x40 MLOAD PUSH1 0x0 PUSH1 0x40 MLOAD DUP1 DUP4 SUB DUP2 DUP6 DUP9 DUP9 CALL SWAP4 POP POP POP POP ISZERO DUP1 ISZERO PUSH2 0x418 JUMPI RETURNDATASIZE PUSH1 0x0 DUP1 RETURNDATACOPY RETURNDATASIZE PUSH1 0x0 REVERT JUMPDEST POP POP POP POP JUMP JUMPDEST CALLVALUE PUSH1 0x4 PUSH1 0x0 CALLER PUSH20 0xFFFFFFFFFFFFFFFFFFFFFFFFFFFFFFFFFFFFFFFF AND PUSH20 0xFFFFFFFFFFFFFFFFFFFFFFFFFFFFFFFFFFFFFFFF AND DUP2 MSTORE PUSH1 0x20 ADD SWAP1 DUP2 MSTORE PUSH1 0x20 ADD PUSH1 0x0 KECCAK256 PUSH1 0x0 DUP3 DUP3 SLOAD PUSH2 0x46D SWAP2 SWAP1 PUSH2 0x75D JUMP JUMPDEST SWAP3 POP POP DUP2 SWAP1 SSTORE POP JUMP JUMPDEST DUP1 PUSH1 0x4 PUSH1 0x0 DUP5 PUSH20 0xFFFFFFFFFFFFFFFFFFFFFFFFFFFFFFFFFFFFFFFF AND PUSH20 0xFFFFFFFFFFFFFFFFFFFFFFFFFFFFFFFFFFFFFFFF AND DUP2 MSTORE PUSH1 0x20 ADD SWAP1 DUP2 MSTORE PUSH1 0x20 ADD PUSH1 0x0 KECCAK256 DUP2 SWAP1 SSTORE POP POP POP JUMP JUMPDEST PUSH1 0x3 PUSH1 0x20 MSTORE DUP1 PUSH1 0x0 MSTORE PUSH1 0x40 PUSH1 0x0 KECCAK256 PUSH1 0x0 SWAP2 POP SLOAD SWAP1 PUSH2 0x100 EXP SWAP1 DIV PUSH1 0xFF AND DUP2 JUMP JUMPDEST DUP1 PUSH1 0x3 PUSH1 0x0 DUP5 DUP2 MSTORE PUSH1 0x20 ADD SWAP1 DUP2 MSTORE PUSH1 0x20 ADD PUSH1 0x0 KECCAK256 PUSH1 0x0 PUSH2 0x100 EXP DUP2 SLOAD DUP2 PUSH1 0xFF MUL NOT AND SWAP1 DUP4 ISZERO ISZERO MUL OR SWAP1 SSTORE POP POP POP JUMP JUMPDEST PUSH1 0x4 PUSH1 0x20 MSTORE DUP1 PUSH1 0x0 MSTORE PUSH1 0x40 PUSH1 0x0 KECCAK256 PUSH1 0x0 SWAP2 POP SWAP1 POP SLOAD DUP2 JUMP JUMPDEST PUSH1 0x0 DUP1 SLOAD SWAP1 PUSH2 0x100 EXP SWAP1 DIV PUSH1 0xFF AND DUP2 JUMP JUMPDEST PUSH1 0x0 DUP2 CALLDATALOAD SWAP1 POP PUSH2 0x545 DUP2 PUSH2 0x98B JUMP JUMPDEST SWAP3 SWAP2 POP POP JUMP JUMPDEST PUSH1 0x0 DUP2 CALLDATALOAD SWAP1 POP PUSH2 0x55A DUP2 PUSH2 0x9A2 JUMP JUMPDEST SWAP3 SWAP2 POP POP JUMP JUMPDEST PUSH1 0x0 DUP2 CALLDATALOAD SWAP1 POP PUSH2 0x56F DUP2 PUSH2 0x9B9 JUMP JUMPDEST SWAP3 SWAP2 POP POP JUMP JUMPDEST PUSH1 0x0 PUSH1 0x20 DUP3 DUP5 SUB SLT ISZERO PUSH2 0x58B JUMPI PUSH2 0x58A PUSH2 0x94C JUMP JUMPDEST JUMPDEST PUSH1 0x0 PUSH2 0x599 DUP5 DUP3 DUP6 ADD PUSH2 0x536 JUMP JUMPDEST SWAP2 POP POP SWAP3 SWAP2 POP POP JUMP JUMPDEST PUSH1 0x0 DUP1 PUSH1 0x40 DUP4 DUP6 SUB SLT ISZERO PUSH2 0x5B9 JUMPI PUSH2 0x5B8 PUSH2 0x94C JUMP JUMPDEST JUMPDEST PUSH1 0x0 PUSH2 0x5C7 DUP6 DUP3 DUP7 ADD PUSH2 0x536 JUMP JUMPDEST SWAP3 POP POP PUSH1 0x20 PUSH2 0x5D8 DUP6 DUP3 DUP7 ADD PUSH2 0x560 JUMP JUMPDEST SWAP2 POP POP SWAP3 POP SWAP3 SWAP1 POP JUMP JUMPDEST PUSH1 0x0 PUSH1 0x20 DUP3 DUP5 SUB SLT ISZERO PUSH2 0x5F8 JUMPI PUSH2 0x5F7 PUSH2 0x94C JUMP JUMPDEST JUMPDEST PUSH1 0x0 PUSH2 0x606 DUP5 DUP3 DUP6 ADD PUSH2 0x560 JUMP JUMPDEST SWAP2 POP POP SWAP3 SWAP2 POP POP JUMP JUMPDEST PUSH1 0x0 DUP1 PUSH1 0x40 DUP4 DUP6 SUB SLT ISZERO PUSH2 0x626 JUMPI PUSH2 0x625 PUSH2 0x94C JUMP JUMPDEST JUMPDEST PUSH1 0x0 PUSH2 0x634 DUP6 DUP3 DUP7 ADD PUSH2 0x560 JUMP JUMPDEST SWAP3 POP POP PUSH1 0x20 PUSH2 0x645 DUP6 DUP3 DUP7 ADD PUSH2 0x54B JUMP JUMPDEST SWAP2 POP POP SWAP3 POP SWAP3 SWAP1 POP JUMP JUMPDEST PUSH2 0x658 DUP2 PUSH2 0x853 JUMP JUMPDEST DUP3 MSTORE POP POP JUMP JUMPDEST PUSH1 0x0 PUSH2 0x669 DUP3 PUSH2 0x741 JUMP JUMPDEST PUSH2 0x673 DUP2 DUP6 PUSH2 0x74C JUMP JUMPDEST SWAP4 POP PUSH2 0x683 DUP2 DUP6 PUSH1 0x20 DUP7 ADD PUSH2 0x889 JUMP JUMPDEST PUSH2 0x68C DUP2 PUSH2 0x951 JUMP JUMPDEST DUP5 ADD SWAP2 POP POP SWAP3 SWAP2 POP POP JUMP JUMPDEST PUSH1 0x0 PUSH2 0x6A4 PUSH1 0x1C DUP4 PUSH2 0x74C JUMP JUMPDEST SWAP2 POP PUSH2 0x6AF DUP3 PUSH2 0x962 JUMP JUMPDEST PUSH1 0x20 DUP3 ADD SWAP1 POP SWAP2 SWAP1 POP JUMP JUMPDEST PUSH2 0x6C3 DUP2 PUSH2 0x87F JUMP JUMPDEST DUP3 MSTORE POP POP JUMP JUMPDEST PUSH1 0x0 PUSH1 0x20 DUP3 ADD SWAP1 POP PUSH2 0x6DE PUSH1 0x0 DUP4 ADD DUP5 PUSH2 0x64F JUMP JUMPDEST SWAP3 SWAP2 POP POP JUMP JUMPDEST PUSH1 0x0 PUSH1 0x20 DUP3 ADD SWAP1 POP DUP2 DUP2 SUB PUSH1 0x0 DUP4 ADD MSTORE PUSH2 0x6FE DUP2 DUP5 PUSH2 0x65E JUMP JUMPDEST SWAP1 POP SWAP3 SWAP2 POP POP JUMP JUMPDEST PUSH1 0x0 PUSH1 0x20 DUP3 ADD SWAP1 POP DUP2 DUP2 SUB PUSH1 0x0 DUP4 ADD MSTORE PUSH2 0x71F DUP2 PUSH2 0x697 JUMP JUMPDEST SWAP1 POP SWAP2 SWAP1 POP JUMP JUMPDEST PUSH1 0x0 PUSH1 0x20 DUP3 ADD SWAP1 POP PUSH2 0x73B PUSH1 0x0 DUP4 ADD DUP5 PUSH2 0x6BA JUMP JUMPDEST SWAP3 SWAP2 POP POP JUMP JUMPDEST PUSH1 0x0 DUP2 MLOAD SWAP1 POP SWAP2 SWAP1 POP JUMP JUMPDEST PUSH1 0x0 DUP3 DUP3 MSTORE PUSH1 0x20 DUP3 ADD SWAP1 POP SWAP3 SWAP2 POP POP JUMP JUMPDEST PUSH1 0x0 PUSH2 0x768 DUP3 PUSH2 0x87F JUMP JUMPDEST SWAP2 POP PUSH2 0x773 DUP4 PUSH2 0x87F JUMP JUMPDEST SWAP3 POP DUP3 PUSH32 0xFFFFFFFFFFFFFFFFFFFFFFFFFFFFFFFFFFFFFFFFFFFFFFFFFFFFFFFFFFFFFFFF SUB DUP3 GT ISZERO PUSH2 0x7A8 JUMPI PUSH2 0x7A7 PUSH2 0x8EE JUMP JUMPDEST JUMPDEST DUP3 DUP3 ADD SWAP1 POP SWAP3 SWAP2 POP POP JUMP JUMPDEST PUSH1 0x0 PUSH2 0x7BE DUP3 PUSH2 0x87F JUMP JUMPDEST SWAP2 POP PUSH2 0x7C9 DUP4 PUSH2 0x87F JUMP JUMPDEST SWAP3 POP DUP2 PUSH32 0xFFFFFFFFFFFFFFFFFFFFFFFFFFFFFFFFFFFFFFFFFFFFFFFFFFFFFFFFFFFFFFFF DIV DUP4 GT DUP3 ISZERO ISZERO AND ISZERO PUSH2 0x802 JUMPI PUSH2 0x801 PUSH2 0x8EE JUMP JUMPDEST JUMPDEST DUP3 DUP3 MUL SWAP1 POP SWAP3 SWAP2 POP POP JUMP JUMPDEST PUSH1 0x0 PUSH2 0x818 DUP3 PUSH2 0x87F JUMP JUMPDEST SWAP2 POP PUSH2 0x823 DUP4 PUSH2 0x87F JUMP JUMPDEST SWAP3 POP DUP3 DUP3 LT ISZERO PUSH2 0x836 JUMPI PUSH2 0x835 PUSH2 0x8EE JUMP JUMPDEST JUMPDEST DUP3 DUP3 SUB SWAP1 POP SWAP3 SWAP2 POP POP JUMP JUMPDEST PUSH1 0x0 PUSH2 0x84C DUP3 PUSH2 0x85F JUMP JUMPDEST SWAP1 POP SWAP2 SWAP1 POP JUMP JUMPDEST PUSH1 0x0 DUP2 ISZERO ISZERO SWAP1 POP SWAP2 SWAP1 POP JUMP JUMPDEST PUSH1 0x0 PUSH20 0xFFFFFFFFFFFFFFFFFFFFFFFFFFFFFFFFFFFFFFFF DUP3 AND SWAP1 POP SWAP2 SWAP1 POP JUMP JUMPDEST PUSH1 0x0 DUP2 SWAP1 POP SWAP2 SWAP1 POP JUMP JUMPDEST PUSH1 0x0 JUMPDEST DUP4 DUP2 LT ISZERO PUSH2 0x8A7 JUMPI DUP1 DUP3 ADD MLOAD DUP2 DUP5 ADD MSTORE PUSH1 0x20 DUP2 ADD SWAP1 POP PUSH2 0x88C JUMP JUMPDEST DUP4 DUP2 GT ISZERO PUSH2 0x8B6 JUMPI PUSH1 0x0 DUP5 DUP5 ADD MSTORE JUMPDEST POP POP POP POP JUMP JUMPDEST PUSH1 0x0 PUSH1 0x2 DUP3 DIV SWAP1 POP PUSH1 0x1 DUP3 AND DUP1 PUSH2 0x8D4 JUMPI PUSH1 0x7F DUP3 AND SWAP2 POP JUMPDEST PUSH1 0x20 DUP3 LT DUP2 EQ ISZERO PUSH2 0x8E8 JUMPI PUSH2 0x8E7 PUSH2 0x91D JUMP JUMPDEST JUMPDEST POP SWAP2 SWAP1 POP JUMP JUMPDEST PUSH32 0x4E487B7100000000000000000000000000000000000000000000000000000000 PUSH1 0x0 MSTORE PUSH1 0x11 PUSH1 0x4 MSTORE PUSH1 0x24 PUSH1 0x0 REVERT JUMPDEST PUSH32 0x4E487B7100000000000000000000000000000000000000000000000000000000 PUSH1 0x0 MSTORE PUSH1 0x22 PUSH1 0x4 MSTORE PUSH1 0x24 PUSH1 0x0 REVERT JUMPDEST PUSH1 0x0 DUP1 REVERT JUMPDEST PUSH1 0x0 PUSH1 0x1F NOT PUSH1 0x1F DUP4 ADD AND SWAP1 POP SWAP2 SWAP1 POP JUMP JUMPDEST PUSH32 0x4E6F7420656E6F756768206D6F6E657920746F20776974686472617700000000 PUSH1 0x0 DUP3 ADD MSTORE POP JUMP JUMPDEST PUSH2 0x994 DUP2 PUSH2 0x841 JUMP JUMPDEST DUP2 EQ PUSH2 0x99F JUMPI PUSH1 0x0 DUP1 REVERT JUMPDEST POP JUMP JUMPDEST PUSH2 0x9AB DUP2 PUSH2 0x853 JUMP JUMPDEST DUP2 EQ PUSH2 0x9B6 JUMPI PUSH1 0x0 DUP1 REVERT JUMPDEST POP JUMP JUMPDEST PUSH2 0x9C2 DUP2 PUSH2 0x87F JUMP JUMPDEST DUP2 EQ PUSH2 0x9CD JUMPI PUSH1 0x0 DUP1 REVERT JUMPDEST POP JUMP INVALID LOG2 PUSH5 0x6970667358 0x22 SLT KECCAK256 PUSH9 0x58BC8664AA9087CD81 BASEFEE 0xC1 DUP4 0xB2 ADDRESS PUSH17 0x85AE2244CF19AF7BDDE2ACAD28F8B3B64 PUSH20 0x6F6C634300080700330000000000000000000000 "
				},
				"gasEstimates": {
					"creation": {
						"codeDepositCost": "513200",
						"executionCost": "549",
						"totalCost": "513749"
					},
					"external": {
						"getBalance()": "340",
						"myAddress(address)": "2880",
						"myBoolean()": "2556",
						"myMapping(uint256)": "2818",
						"myNumber()": "2452",
						"myString()": "infinite",
						"receiveMoney()": "infinite",
						"setAddress(address,uint256)": "22832",
						"setValue(uint256,bool)": "24974",
						"withdrawMoney(uint256)": "infinite"
					}
				},
				"methodIdentifiers": {
					"getBalance()": "12065fe0",
					"myAddress(address)": "c1198ea1",
					"myBoolean()": "dc99be11",
					"myMapping(uint256)": "7c668844",
					"myNumber()": "23fd0e40",
					"myString()": "492bfa18",
					"receiveMoney()": "6d26ec18",
					"setAddress(address,uint256)": "70db6902",
					"setValue(uint256,bool)": "82e33e82",
					"withdrawMoney(uint256)": "54876921"
				}
			},
			"storageLayout": {
				"storage": [
					{
						"astId": 3,
						"contract": "tarea1.sol:ModifierExample",
						"label": "myBoolean",
						"offset": 0,
						"slot": "0",
						"type": "t_bool"
					},
					{
						"astId": 5,
						"contract": "tarea1.sol:ModifierExample",
						"label": "myString",
						"offset": 0,
						"slot": "1",
						"type": "t_string_storage"
					},
					{
						"astId": 7,
						"contract": "tarea1.sol:ModifierExample",
						"label": "myNumber",
						"offset": 0,
						"slot": "2",
						"type": "t_uint256"
					},
					{
						"astId": 11,
						"contract": "tarea1.sol:ModifierExample",
						"label": "myMapping",
						"offset": 0,
						"slot": "3",
						"type": "t_mapping(t_uint256,t_bool)"
					},
					{
						"astId": 15,
						"contract": "tarea1.sol:ModifierExample",
						"label": "myAddress",
						"offset": 0,
						"slot": "4",
						"type": "t_mapping(t_address,t_uint256)"
					}
				],
				"types": {
					"t_address": {
						"encoding": "inplace",
						"label": "address",
						"numberOfBytes": "20"
					},
					"t_bool": {
						"encoding": "inplace",
						"label": "bool",
						"numberOfBytes": "1"
					},
					"t_mapping(t_address,t_uint256)": {
						"encoding": "mapping",
						"key": "t_address",
						"label": "mapping(address => uint256)",
						"numberOfBytes": "32",
						"value": "t_uint256"
					},
					"t_mapping(t_uint256,t_bool)": {
						"encoding": "mapping",
						"key": "t_uint256",
						"label": "mapping(uint256 => bool)",
						"numberOfBytes": "32",
						"value": "t_bool"
					},
					"t_string_storage": {
						"encoding": "bytes",
						"label": "string",
						"numberOfBytes": "32"
					},
					"t_uint256": {
						"encoding": "inplace",
						"label": "uint256",
						"numberOfBytes": "32"
					}
				}
			},
			"userdoc": {
				"kind": "user",
				"methods": {},
				"version": 1
			}
		}
	}
}