{
  "contractName": "EventTest",
  "abi": [
    {
      "inputs": [],
      "stateMutability": "nonpayable",
      "type": "constructor"
    },
    {
      "anonymous": false,
      "inputs": [
        {
          "indexed": false,
          "internalType": "address",
          "name": "from",
          "type": "address"
        },
        {
          "indexed": false,
          "internalType": "address",
          "name": "to",
          "type": "address"
        },
        {
          "indexed": false,
          "internalType": "uint256",
          "name": "amount",
          "type": "uint256"
        }
      ],
      "name": "tokenSent",
      "type": "event"
    },
    {
      "inputs": [
        {
          "internalType": "address",
          "name": "",
          "type": "address"
        }
      ],
      "name": "tokenBalance",
      "outputs": [
        {
          "internalType": "uint256",
          "name": "",
          "type": "uint256"
        }
      ],
      "stateMutability": "view",
      "type": "function"
    },
    {
      "inputs": [
        {
          "internalType": "address",
          "name": "to",
          "type": "address"
        },
        {
          "internalType": "uint256",
          "name": "amount",
          "type": "uint256"
        }
      ],
      "name": "sendToken",
      "outputs": [
        {
          "internalType": "bool",
          "name": "",
          "type": "bool"
        }
      ],
      "stateMutability": "nonpayable",
      "type": "function"
    }
  ],
  "bytecode": "0x608060405234801561001057600080fd5b506064600160003373ffffffffffffffffffffffffffffffffffffffff1673ffffffffffffffffffffffffffffffffffffffff16815260200190815260200160002081905550336000806101000a81548173ffffffffffffffffffffffffffffffffffffffff021916908373ffffffffffffffffffffffffffffffffffffffff16021790555061054c806100a56000396000f3fe608060405234801561001057600080fd5b50600436106100365760003560e01c8063412664ae1461003b578063eedc966a1461006b575b600080fd5b610055600480360381019061005091906102cd565b61009b565b6040516100629190610328565b60405180910390f35b61008560048036038101906100809190610343565b61021c565b604051610092919061037f565b60405180910390f35b60003373ffffffffffffffffffffffffffffffffffffffff1660008054906101000a900473ffffffffffffffffffffffffffffffffffffffff1673ffffffffffffffffffffffffffffffffffffffff161461012b576040517f08c379a0000000000000000000000000000000000000000000000000000000008152600401610122906103f7565b60405180910390fd5b81600160003373ffffffffffffffffffffffffffffffffffffffff1673ffffffffffffffffffffffffffffffffffffffff168152602001908152602001600020600082825461017a9190610446565b9250508190555081600160008573ffffffffffffffffffffffffffffffffffffffff1673ffffffffffffffffffffffffffffffffffffffff16815260200190815260200160002060008282546101d0919061047a565b925050819055507f16a1605b4e6210f29341360b5a5b4627b7ccf2bbb184f1d0c2ebe1a07ad4a31533848460405161020a939291906104df565b60405180910390a16001905092915050565b60016020528060005260406000206000915090505481565b600080fd5b600073ffffffffffffffffffffffffffffffffffffffff82169050919050565b600061026482610239565b9050919050565b61027481610259565b811461027f57600080fd5b50565b6000813590506102918161026b565b92915050565b6000819050919050565b6102aa81610297565b81146102b557600080fd5b50565b6000813590506102c7816102a1565b92915050565b600080604083850312156102e4576102e3610234565b5b60006102f285828601610282565b9250506020610303858286016102b8565b9150509250929050565b60008115159050919050565b6103228161030d565b82525050565b600060208201905061033d6000830184610319565b92915050565b60006020828403121561035957610358610234565b5b600061036784828501610282565b91505092915050565b61037981610297565b82525050565b60006020820190506103946000830184610370565b92915050565b600082825260208201905092915050565b7f596f7520617265206e6f7420746865206f776e65720000000000000000000000600082015250565b60006103e160158361039a565b91506103ec826103ab565b602082019050919050565b60006020820190508181036000830152610410816103d4565b9050919050565b7f4e487b7100000000000000000000000000000000000000000000000000000000600052601160045260246000fd5b600061045182610297565b915061045c83610297565b92508282101561046f5761046e610417565b5b828203905092915050565b600061048582610297565b915061049083610297565b9250827fffffffffffffffffffffffffffffffffffffffffffffffffffffffffffffffff038211156104c5576104c4610417565b5b828201905092915050565b6104d981610259565b82525050565b60006060820190506104f460008301866104d0565b61050160208301856104d0565b61050e6040830184610370565b94935050505056fea264697066735822122068ae71e9dae490f9b9ae006ab44d474a9940ec610140ff9d58961c662be7763464736f6c634300080e0033",
  "immutableReferences": {},
  "source": "//SPDX-License-Identifier: GPL-3.0\n\npragma solidity ^0.8.0;\n\ncontract EventTest {\n    address private owner;\n    mapping(address => uint) public tokenBalance;\n\n    event tokenSent(address from, address to, uint amount);\n\n    constructor() {\n        tokenBalance[msg.sender] = 100;\n        owner = msg.sender;\n    }\n\n    function sendToken(address to, uint amount) public returns(bool) {\n        require(owner == msg.sender, \"You are not the owner\");\n        tokenBalance[msg.sender] -= amount;\n        tokenBalance[to] += amount;\n\n        emit tokenSent(msg.sender, to, amount);\n\n        return true;\n    }\n}\n",
  "sourcePath": "C:\\Users\\hpzbook15\\Desktop\\app React\\c-coin\\ethereum\\contracts\\EventsTest.sol",
  "compiler": {
    "name": "solc",
    "version": "0.8.14+commit.80d49f37.Emscripten.clang"
  },
  "schemaVersion": "3.4.7",
  "updatedAt": "2022-06-03T17:13:17.673Z",
  "devdoc": {
    "kind": "dev",
    "methods": {},
    "version": 1
  },
  "userdoc": {
    "kind": "user",
    "methods": {},
    "version": 1
  }
}