{
  "contractName": "Lottery",
  "abi": [
    {
      "inputs": [],
      "stateMutability": "nonpayable",
      "type": "constructor"
    },
    {
      "inputs": [],
      "name": "manager",
      "outputs": [
        {
          "internalType": "address",
          "name": "",
          "type": "address"
        }
      ],
      "stateMutability": "view",
      "type": "function",
      "constant": true
    },
    {
      "inputs": [
        {
          "internalType": "uint256",
          "name": "",
          "type": "uint256"
        }
      ],
      "name": "players",
      "outputs": [
        {
          "internalType": "address",
          "name": "",
          "type": "address"
        }
      ],
      "stateMutability": "view",
      "type": "function",
      "constant": true
    },
    {
      "inputs": [],
      "name": "enter",
      "outputs": [],
      "stateMutability": "payable",
      "type": "function",
      "payable": true
    },
    {
      "inputs": [],
      "name": "random",
      "outputs": [
        {
          "internalType": "uint256",
          "name": "",
          "type": "uint256"
        }
      ],
      "stateMutability": "view",
      "type": "function",
      "constant": true
    },
    {
      "inputs": [],
      "name": "pickWinner",
      "outputs": [],
      "stateMutability": "nonpayable",
      "type": "function"
    },
    {
      "inputs": [],
      "name": "getPlayers",
      "outputs": [
        {
          "internalType": "address[]",
          "name": "",
          "type": "address[]"
        }
      ],
      "stateMutability": "view",
      "type": "function",
      "constant": true
    }
  ],
  "bytecode": "0x608060405234801561001057600080fd5b5033600160006101000a81548173ffffffffffffffffffffffffffffffffffffffff021916908373ffffffffffffffffffffffffffffffffffffffff1602179055506108ab806100616000396000f3fe6080604052600436106100555760003560e01c8063481c6a751461005a5780635d495aea146100855780635ec01e4d1461009c5780638b5b9ccc146100c7578063e97dcb62146100f2578063f71d96cb146100fc575b600080fd5b34801561006657600080fd5b5061006f610139565b60405161007c91906104b2565b60405180910390f35b34801561009157600080fd5b5061009a61015f565b005b3480156100a857600080fd5b506100b1610262565b6040516100be91906104e6565b60405180910390f35b3480156100d357600080fd5b506100dc610298565b6040516100e991906105bf565b60405180910390f35b6100fa610326565b005b34801561010857600080fd5b50610123600480360381019061011e9190610612565b61038b565b60405161013091906104b2565b60405180910390f35b600160009054906101000a900473ffffffffffffffffffffffffffffffffffffffff1681565b6000808054905061016e610262565b610178919061066e565b90506000818154811061018e5761018d61069f565b5b9060005260206000200160009054906101000a900473ffffffffffffffffffffffffffffffffffffffff1673ffffffffffffffffffffffffffffffffffffffff166108fc479081150290604051600060405180830381858888f193505050501580156101fe573d6000803e3d6000fd5b50600067ffffffffffffffff81111561021a576102196106ce565b5b6040519080825280602002602001820160405280156102485781602001602082028036833780820191505090505b506000908051906020019061025e9291906103ca565b5050565b60004442600060405160200161027a9392919061083c565b6040516020818303038152906040528051906020012060001c905090565b6060600080548060200260200160405190810160405280929190818152602001828054801561031c57602002820191906000526020600020905b8160009054906101000a900473ffffffffffffffffffffffffffffffffffffffff1673ffffffffffffffffffffffffffffffffffffffff16815260200190600101908083116102d2575b5050505050905090565b6000339080600181540180825580915050600190039060005260206000200160009091909190916101000a81548173ffffffffffffffffffffffffffffffffffffffff021916908373ffffffffffffffffffffffffffffffffffffffff160217905550565b6000818154811061039b57600080fd5b906000526020600020016000915054906101000a900473ffffffffffffffffffffffffffffffffffffffff1681565b828054828255906000526020600020908101928215610443579160200282015b828111156104425782518260006101000a81548173ffffffffffffffffffffffffffffffffffffffff021916908373ffffffffffffffffffffffffffffffffffffffff160217905550916020019190600101906103ea565b5b5090506104509190610454565b5090565b5b8082111561046d576000816000905550600101610455565b5090565b600073ffffffffffffffffffffffffffffffffffffffff82169050919050565b600061049c82610471565b9050919050565b6104ac81610491565b82525050565b60006020820190506104c760008301846104a3565b92915050565b6000819050919050565b6104e0816104cd565b82525050565b60006020820190506104fb60008301846104d7565b92915050565b600081519050919050565b600082825260208201905092915050565b6000819050602082019050919050565b61053681610491565b82525050565b6000610548838361052d565b60208301905092915050565b6000602082019050919050565b600061056c82610501565b610576818561050c565b93506105818361051d565b8060005b838110156105b2578151610599888261053c565b97506105a483610554565b925050600181019050610585565b5085935050505092915050565b600060208201905081810360008301526105d98184610561565b905092915050565b600080fd5b6105ef816104cd565b81146105fa57600080fd5b50565b60008135905061060c816105e6565b92915050565b600060208284031215610628576106276105e1565b5b6000610636848285016105fd565b91505092915050565b7f4e487b7100000000000000000000000000000000000000000000000000000000600052601260045260246000fd5b6000610679826104cd565b9150610684836104cd565b9250826106945761069361063f565b5b828206905092915050565b7f4e487b7100000000000000000000000000000000000000000000000000000000600052603260045260246000fd5b7f4e487b7100000000000000000000000000000000000000000000000000000000600052604160045260246000fd5b6000819050919050565b610718610713826104cd565b6106fd565b82525050565b600081549050919050565b600081905092915050565b60008190508160005260206000209050919050565b61075281610491565b82525050565b60006107648383610749565b60208301905092915050565b60008160001c9050919050565b600073ffffffffffffffffffffffffffffffffffffffff82169050919050565b60006107b06107ab83610770565b61077d565b9050919050565b60006107c3825461079d565b9050919050565b6000600182019050919050565b60006107e28261071e565b6107ec8185610729565b93506107f783610734565b8060005b8381101561082f5761080c826107b7565b6108168882610758565b9750610821836107ca565b9250506001810190506107fb565b5085935050505092915050565b60006108488286610707565b6020820191506108588285610707565b60208201915061086882846107d7565b915081905094935050505056fea2646970667358221220fe0768d218aa83ab72d329741610fc52d334a1cd45017ce5710425db40a9385a64736f6c634300080e0033",
  "immutableReferences": {},
  "source": "//SPDX-License-Identifier: GPL-3.0\r\n\r\npragma solidity ^0.8.0;\r\n\r\ncontract Lottery {\r\n    address [] public players;\r\n    address public manager;\r\n\r\n    constructor(){\r\n        manager = msg.sender;\r\n    }\r\n\r\n    function enter() public payable {\r\n        players.push(msg.sender);\r\n    }\r\n\r\n    function random() public view returns(uint){\r\n        return uint(keccak256(abi.encodePacked(block.difficulty, block.timestamp, players)));\r\n    }\r\n\r\n    function pickWinner() public{\r\n        //return random() % players.length;\r\n        uint index = random() % players.length;\r\n        payable(players[index]).transfer(address(this).balance);\r\n        players = new address[](0);\r\n    }\r\n\r\n    modifier restricted() {\r\n        require(msg.sender == manager);\r\n        _;\r\n    }\r\n\r\n    function getPlayers() public view returns (address[] memory){\r\n        return players;\r\n    }\r\n}\r\n",
  "sourcePath": "C:\\Users\\hpzbook15\\Desktop\\blockchain\\blockchain-course-2022\\lottery test\\contracts\\Lottery.sol",
  "compiler": {
    "name": "solc",
    "version": "0.8.14+commit.80d49f37.Emscripten.clang"
  },
  "schemaVersion": "3.4.7",
  "updatedAt": "2022-06-07T18:10:13.141Z",
  "networkType": "ethereum",
  "devdoc": {
    "kind": "dev",
    "methods": {},
    "version": 1
  },
  "userdoc": {
    "kind": "user",
    "methods": {},
    "version": 1
  }
}